:100000000C946A000C9492000C9492000C94920050
:100010000C9492000C9492000C9492000C94920018
:100020000C9492000C9492000C9492000C94920008
:100030000C9492000C9492000C9492000C949200F8
:100040000C9491100C9492000C94080B0C94E20AFE
:100050000C9492000C9492000C9492000C949200D8
:100060000C9492000C9492007C3C3E5E2B3D3F2F02
:100070005B5D3B2C2A225C0000000000240027006E
:100080002A0000000000250028002B0000000000CE
:1000900023002600290004040404040404040202CA
:1000A00002020202030303030303010204081020F7
:1000B0004080010204081020010204081020000002
:1000C0000008000201000003040700000000000017
:1000D0000000B81311241FBECFEFD8E0DEBFCDBFA4
:1000E00011E0A0E0B1E0E8E5FBE202C005900D926E
:1000F000A63FB107D9F724E0A6EFB1E001C01D92F9
:10010000A83FB207E1F710E0CAE6D0E004C02197AB
:10011000FE010E945314C936D107C9F70E94DB10B3
:100120000C94AA150C940000FC01538D448D252FCE
:1001300030E0842F90E0821B930B541710F0CF9681
:10014000089501970895FC01918D828D981761F0B3
:10015000828DDF01A80FB11D5D968C91928D9F5FFE
:100160009F73928F90E008958FEF9FEF0895FC01A9
:10017000918D828D981731F0828DE80FF11D858D5C
:1001800090E008958FEF9FEF0895FC01918D228DEF
:10019000892F90E0805C9F4F821B91098F73992774
:1001A000089580E090E0892B29F00E94D80A8111FF
:1001B0000C9400000895DC015996ED91FC915A973A
:1001C0003097B9F083899489A589B689428553858A
:1001D00064857585841B950BA60BB70B811520E8EC
:1001E0009207A105B10538F08FEF9FE7A0E0B0E0DE
:1001F000089580E090E00895CF93DF931F92CDB7EC
:10020000DEB76983DC01ED91FC910280F381E02D82
:1002100041E050E0BE016F5F7F4F09950F90DF9185
:10022000CF910895089580E090E00895FC01848DB9
:10023000DF01A80FB11DA35ABF4F2C91848D90E010
:1002400001968F739927848FA689B7892C93A089EB
:10025000B1898C91837080648C93938D848D981375
:1002600006C00288F389E02D80818F7D8083089508
:10027000EF92FF920F931F93CF93DF93EC0181E0F6
:10028000888F9B8D8C8D981305C0E889F9898081B2
:1002900085FD26C0F62E0B8D10E00F5F1F4F0F73EC
:1002A0001127E02E8C8DE8120CC00FB607FCFACF98
:1002B000E889F989808185FFF5CFCE010E9416017A
:1002C000F1CF8B8DFE01E80FF11DE35AFF4FF08255
:1002D0009FB7F8940B8FEA89FB89808180620AC0FE
:1002E0009FB7F894EE89FF896083E889F989808156
:1002F0008370806480839FBF81E090E0DF91CF9125
:100300001F910F91FF90EF900895CF93DF93EC0131
:10031000888D8823C9F0EA89FB89808185FD05C025
:10032000A889B9898C9186FD0FC00FB607FCF5CF5F
:10033000808185FFF2CFA889B9898C9185FFEDCFA7
:10034000CE010E941601E7CFDF91CF9108958FB7BC
:10035000F8948091F7018FBF089561E0FC018481DA
:100360000E94F50F8091F60181111092F601089517
:100370008EBD00000DB407FEFDCF8EB508958FEF42
:100380000C94B8010F931F93CF93DF93EB010E945E
:1003900085108B010E94BF018F3F49F00E9485109C
:1003A000601B710B6C177D07A8F380E001C081E032
:1003B000DF91CF911F910F910895CF93DF93EC01BF
:1003C0008E81882389F08F8198859C012F5F3F4F14
:1003D00038872F838230924018F40E94BF01F3CFF8
:1003E000CE010E94AD011E82DF91CF9108958CBD98
:1003F0009DBD0895CF93DF93EC018091F6018111AB
:1004000009C081E08093F60180919E0490919F0441
:100410000E94F70160E08C81DF91CF910C94F50F81
:100420008F929F92AF92BF92FF920F931F93CF93A1
:10043000DF93EC01F62E49015A010E94DD01CE0145
:100440000E94FA016CE271E0CE010E94C2018F2D80
:1004500080640E94B80108E110E0D501C401002EBB
:1004600004C0B695A795979587950A94D2F70E94F0
:10047000B80108501109083F8FEF180771F7FF20E6
:1004800029F088E0F81204C087E803C085E901C0BC
:100490008FEF0E94B80110E00E94BF018A8787FF9A
:1004A00004C01F3F11F01F5FF7CFDF91CF911F9165
:1004B0000F91FF90BF90AF909F908F900895AF9253
:1004C000BF92CF92DF92EF92FF920F931F93CF9341
:1004D000DF93EC016901C801820F931F81309240C4
:1004E00008F070C08E81882371F088819981AA817B
:1004F000BB8184179507A607B70729F48F819885D4
:10050000C816D906B0F5488359836A837B838B85E7
:10051000833039F089E0440F551F661F771F8A9595
:10052000D1F79A01AB0161E1CE010E94100288234C
:1005300019F083E08D8346C00E9485105B010E9404
:10054000BF018A878F3F49F40E9485106A197B0991
:100550006D327140A0F38FE003C08E3F31F08DE02B
:100560008D83CE010E94AD012DC018861F8281E0CF
:100570008E838F8198858C159D0540F40E94BF0164
:100580008F819885019698878F83F3CF6701E00E5E
:10059000F11EEC14FD0431F00E94BF01F6018193BD
:1005A0006F01F7CF8F819885080F191F18870F8368
:1005B0008985882319F00115124048F0CE010E9468
:1005C000DD0105C0CE010E94AD0180E001C081E0E7
:1005D000DF91CF911F910F91FF90EF90DF90CF901F
:1005E000BF90AF900895EF92FF920F931F93CF9318
:1005F000DF93EC017901411551056105710511F495
:1006000082E13CC08B85833039F089E0440F551F6F
:10061000661F771F8A95D1F79A01AB0168E1CE0179
:100620000E941002882311F084E028C08EEF0E94FF
:10063000B80187018EEFF81AF80181918F010E94AD
:10064000B801E016F106C1F78FEF0E94B8018FEFF5
:100650000E94B8010E94BF018A878F71853031F0F6
:1006600081E18D83CE010E94AD0109C068E572E091
:10067000CE010E94C201811107C085E18D83CE01A8
:100680000E94AD0180E014C020E030E0A9016DE0DF
:10069000CE010E941002811109C00E94BF01811188
:1006A00005C0CE010E94AD0181E002C084E1E6CF29
:1006B000DF91CF911F910F91FF90EF90089580915E
:1006C00000028823A9F14091020150910301609139
:1006D00004017091050121E032E08091E9049091DC
:1006E000EA040E94F302811102C080E00895409163
:1006F000F8015091F9016091FA017091FB014115E7
:1007000051056105710591F021E032E08091E90425
:100710009091EA040E94F302882339F31092F801C1
:100720001092F9011092FA011092FB01109200024E
:1007300081E008958F929F92AF92BF92EF92FF92C5
:100740000F931F93CF934B015C01C42F8091020143
:1007500090910301A0910401B091050188159905BC
:10076000AA05BB0501F10E945F03811102C080E070
:1007700020C081E0E82E82E0F82E00E012E020E0C8
:1007800030E0B501A4018091E9049091EA040E944F
:100790005F02882361F38092020190920301A0928C
:1007A0000401B092050180910002C82BC0930002A1
:1007B00081E0CF911F910F91FF90EF90BF90AF908C
:1007C0009F908F9008954F925F926F927F928F9239
:1007D0009F92AF92BF92CF92DF92EF92FF920F93D0
:1007E0001F93CF93DF93EC014230510561057105F2
:1007F00010F480E078C089859A85AB85BC85019628
:10080000A11DB11D84179507A607B70790F3CB88E4
:10081000DC88ED88FE888F89803129F4BB27A72FDB
:10082000962F852F09C0DB01CA01E7E0B695A79591
:1008300097958795EA95D1F7480159012A013B011F
:10084000C80ED91EEA1EFB1E809102019091030181
:10085000A0910401B0910501C816D906EA06FB066D
:1008600081F48F898031A9F4B301A201552766274D
:100870007727440F551FFA01EF5FFD4F9182808269
:1008800019C040E0C701B6010E949A038111E9CF67
:10089000B0CFB301A2014F77552766277727440FC2
:1008A000551F440F551FFA01EF5FFD4F8082918263
:1008B000A282B382809100028160809300028A89C3
:1008C000823080F08D819E81AF81B885C80ED91E9F
:1008D000EA1EFB1EC092F801D092F901E092FA01E3
:1008E000F092FB0181E0DF91CF911F910F91FF907A
:1008F000EF90DF90CF90BF90AF909F908F907F90C0
:100900006F905F904F9008958F929F92AF92BF9299
:10091000CF92DF92EF92FF920F931F93CF93DF93CB
:10092000FC0181859285A385B4850196A11DB11D29
:1009300084179507A607B70710F480E05BC083888B
:100940009488A588B6888789803129F4BB27A72F8A
:10095000962F852F09C0DB01CA01C7E0B695A79580
:1009600097958795CA95D1F7E9016A017B018F01B7
:10097000BC01CD01680D791D8A1D9B1D809002016F
:1009800090900301A0900401B090050168157905CD
:100990008A059B0591F4F80187898031A1F4DD2453
:1009A000EE24FF24C601880F991FFC01EF5FFD4F65
:1009B00080819181A0E0B0E018C040E00E949A03DD
:1009C0008111E9CFBACFE894C7F8DD24EE24FF24E3
:1009D000C601880F991F880F991FFC01EF5FFD4F1B
:1009E00080819181A281B381BF7088839983AA831A
:1009F000BB8381E0DF91CF911F910F91FF90EF902A
:100A0000DF90CF90BF90AF909F908F9008958F927E
:100A10009F92AF92BF92CF92DF92EF92FF920F938D
:100A20001F93CF93DF93EC018D81811102C080E091
:100A300078C00B891C892D893E8904171507260764
:100A40003707A8F36A017B01823029F4CA86DB8666
:100A5000EC86FD860DC0C114D104E104F10451F40B
:100A60001E821F82188619861A861B861C861D8682
:100A700081E057C08A849B84AC84BD84EB8DFC8D5F
:100A8000258530E0275F3F4FB501A4014150510952
:100A900061097109022E04C07695679557954795AF
:100AA0000A94D2F7D701C6010197A109B10904C080
:100AB000B695A795979587952A95D2F784179507A8
:100AC000A607B70720F089288A288B2871F44F8958
:100AD000588D698D7A8D4E835F83688779874C0145
:100AE0005D018E010A5F1F4F16C0841B950BA60B7C
:100AF000B70BF5CF4E815F816885798598018B8D25
:100B00009C8D0E94840491E0891A9108A108B10883
:100B1000882309F48CCF81149104A104B10451F706
:100B200095CFDF91CF911F910F91FF90EF90DF90C4
:100B3000CF90BF90AF909F908F9008953F924F922B
:100B40005F926F927F928F929F92AF92BF92CF925D
:100B5000DF92EF92FF920F931F93CF93DF93CDB766
:100B6000DEB72C970FB6F894DEBF0FBECDBF5C0189
:100B7000DC015B968D909C905C971696CD90DD90F5
:100B8000ED90FC901997C114D104E104F10439F0FF
:100B9000BFEFCB1ADB0AEB0AFB0A312C07C0F401CA
:100BA000C080D180E280F38033243394F4018185C6
:100BB0009285A385B4859C01AD012F5F3F4F4F4FB8
:100BC0005F4F29873A874B875C87260137011D8253
:100BD0001E821F821886F40181859285A385B485C3
:100BE0002D813E814F815885281739074A075B07B9
:100BF00008F063C089859A85AB85BC858C159D05F9
:100C0000AE05BF0550F482E0C82ED12CE12CF12CAA
:100C100092E0492E512C612C712C9E012F5F3F4F89
:100C2000B701A601C4010E948404882309F445C0C9
:100C300089819A81AB81BC81892B8A2B8B2B41F0D6
:100C4000260137019FEF491A590A690A790A05C036
:100C5000C414D504E604F70491F02D813E814F8140
:100C600058852F5F3F4F4F4F5F4F2D833E834F83FC
:100C700058873FEFC31AD30AE30AF30AACCF0FEF4A
:100C80001FEF2FEF3FE0B301A201C4010E94E30375
:100C9000882399F0D50116964D915D916D917C91C7
:100CA0001997411551056105710549F093018201BC
:100CB000C4010E94E303811102C080E02AC0D50173
:100CC00016964D925D926D927C921997332051F059
:100CD000D301C2010196A11DB11DF401808391834E
:100CE000A283B383F5018789908DA18DB28D892B65
:100CF0008A2B8B2B69F4D50157964D925D926D929C
:100D00007C925A9714968C911497806814968C93C1
:100D100081E02C960FB6F894DEBF0FBECDBFDF91F9
:100D2000CF911F910F91FF90EF90DF90CF90BF90E8
:100D3000AF909F908F907F906F905F904F903F907B
:100D40000895CF93DF93EC018D81882379F18C8115
:100D500087FF28C06E857F858889998941E00E9438
:100D60009A03882319F1EA8980E2E89FF0011124AF
:100D7000EF5FFD4F3097D1F08D81823040F48B8949
:100D80009C89AD89BE89848F958FA68FB78F8F89F7
:100D9000988DA98DBA8D938F828FB58BA48B8C8102
:100DA0008F778C83DF91CF910C945F0380E0DF918C
:100DB000CF910895CF93DF93EC010E94A106882381
:100DC00011F01D8281E0DF91CF910895FC01818DAA
:100DD000928D009711F00C94A10608952F923F92E6
:100DE0004F925F926F927F928F929F92AF92BF923B
:100DF000CF92DF92EF92FF920F931F93CF93DF93E7
:100E000000D000D0CDB7DEB78C015B011A01DC0148
:100E100015968C9115978130C9F414968C9181FFA9
:100E200015C082FF1DC0F801438954896589768900
:100E300082859385A485B58584179507A607B7078E
:100E400079F0C8010E94070581110AC081E090E095
:100E5000D80113969C938E93129780E090E036C150
:100E6000610183C05B968D919C915C97FC017480BD
:100E70002FEF270D2A013B0139E0769467945794B0
:100E800047943A95D1F7722E74207A01F1E0FF224F
:100E9000772009F476C080E092E08E199F09460120
:100EA0008C159D0508F44C01D8015B962D913C9161
:100EB0005C9716968D919D910D90BC91A02D0297F7
:100EC000A109B109F901058404C0880F991FAA1F5F
:100ED000BB1F0A94D2F74685578560897189840FB4
:100EE000951FA61FB71F9C01AD01270D311D411D88
:100EF000511D29013A01811432E0930609F088C09E
:100F00008091020190910301A0910401B09105012B
:100F1000481659066A067B0659F48FEF9FEFDC01ED
:100F20008093020190930301A0930401B093050103
:100F30009501B301A2018091E9049091EA040E9415
:100F4000F302882309F482CF9EEFB91AC818D90892
:100F5000F80182859385A485B585880D991DA11D0D
:100F6000B11D82879387A487B587D8011A964D91C2
:100F70005D916D917C911D97C114D10409F072CFE0
:100F800087C0E114F10409F086CF16964D915D916A
:100F90006D917C911997411551056105710559F4C1
:100FA00057968D919D910D90BC91A02D0097A10514
:100FB000B10541F521C09E012F5F3F4F0E9484047F
:100FC000882309F44BCF89819A81AB81BC81F801D8
:100FD000238D348DF9012789203129F048EF5FEF07
:100FE0006FEF7FE004C048EF5FEF60E070E08417D0
:100FF0009507A607B70730F0C8010E949E0581112A
:101000004ACF24CFF80186839783A087B18743CF47
:10101000E114F10429F5D8011A964D915D916D9175
:101020007C911D9753968D919D910D90BC91A02D13
:10103000481759076A077B0798F00E945F038823C7
:1010400009F404CF4092020150920301609204011E
:10105000709205018091000281608093000208C0B7
:1010600041E0C301B2010E949A03882309F4EECE45
:10107000D501F701EF5FFD4F9F01280D391D2E1798
:101080003F0719F08D918193FACFA80CB91C5ECF60
:10109000F80183899489A589B68984179507A607DD
:1010A000B70738F4438B548B658B768B84818068CB
:1010B0008483F801848183FD02C0C10107C0C80197
:1010C0000E94A106882309F4C1CEF7CF0F900F909C
:1010D0000F900F90DF91CF911F910F91FF90EF90A4
:1010E000DF90CF90BF90AF909F908F907F906F9048
:1010F0005F904F903F902F900895CF93DF931F9272
:10110000CDB7DEB7698341E050E0BE016F5F7F4F2E
:101110000E94EE060F90DF91CF910895CF93DF9359
:10112000EC01898D9A8D009739F481E090E09B83E2
:101130008A8380E090E00BC0FC01138212820E943F
:10114000EE06E98DFA8D22813381232B71F7DF9131
:10115000CF910895FC01DB0112968D919C9113971C
:101160009383828388E491E09183808314968C91A9
:101170001497848315968C911597858316964D91B7
:101180005D916D917C911997468357836087718734
:101190001A964D915D916D917C911D974287538771
:1011A000648775871E964D915D916D917C915197E5
:1011B00046875787608B718B52968C915297828BA2
:1011C00053964D915D916D917C915697438B548BC5
:1011D000658B768B57964D915D916D917C915A9769
:1011E000478B508F618F728F5B968D919C915C972E
:1011F000948F838F08954F925F926F927F92AF92F8
:10120000BF92CF92DF92EF92FF920F931F93CF93F3
:10121000DF931F92CDB7DEB7FC012581222309F4AD
:10122000C1C0848180FFBEC083899489A589B689A5
:10123000428453846484758484159505A605B70596
:1012400009F4B0C06F015201F1E0BF22D6015B96F4
:101250008D919C915C97B301A20139E076956795D9
:10126000579547953A95D1F7223071F4FC01828D5C
:10127000938DA48DB58D8A019B01080F191F2A1F1C
:101280003B1FC901B8014AC0DC0114961C911150E2
:101290001423A114B104F9F411111DC045284628E6
:1012A000472851F4F6018789908DA18DB28D8683F0
:1012B0009783A087B1870FC0D60116964D915D9197
:1012C0006D917C91199796012A5F3F4F0E9484048B
:1012D000882309F467C0F601238D348D86819781B8
:1012E000A085B1850297A109B109AC01BD01F90141
:1012F000058404C0440F551F661F771F0A94D2F758
:1013000086859785A089B189840F951FA61FB71F71
:10131000BC01CD01610F711D811D911DD601149677
:101320002C9126FF0DC04090020150900301609067
:10133000040170900501461657066806790699F46F
:1013400040E00E949A03882369F1F501EF5FFD4FA9
:10135000DE0111969F012F5F3F4F2E173F0799F037
:1013600081918D93FACFFE0131967F0101E010E06B
:101370009501AB01BC018091E9049091EA040E94BF
:101380005F02882379F0F60182859385A485B5856F
:101390000196A11DB11D82879387A487B587898196
:1013A00090E002C08FEF9FEF0F90DF91CF911F91E0
:1013B0000F91FF90EF90DF90CF90BF90AF907F9014
:1013C0006F905F904F900895FC01818D928D0097F2
:1013D00011F00C94FB088FEF9FEF08950F931F936C
:1013E000CF93DF93FC01818D928D0097B9F0EF01CF
:1013F0000E94FB088C010F3F8FEF180791F0898D39
:101400009A8DFC014285538564857585415051094B
:10141000610971090E940705C80105C080E090E0DC
:1014200002C08FEF9FEFDF91CF911F910F91089531
:10143000CF92DF92EF92FF920F931F93CF93DF93A0
:10144000CDB7DEB76E970FB6F894DEBF0FBECDBF37
:101450007C01CE0101960E949D0D00E010E0670125
:1014600081E0C81AD108CE0101960E94DB00892BC9
:1014700001F1CE0101960E94E4098D3031F40F5F35
:101480001F4FE016F10679F714C00C151D0559F72A
:10149000833249F3282F082E000C330B20533109D7
:1014A0002A30310500F3682F81E094E00E94380172
:1014B000DACF8A8D9B8D009731F0FC0142855385F0
:1014C0006485758503C04FEF5FEFBA014550510940
:1014D00061097109009711F00E94070500E010E012
:1014E000CE0101960E94DB00892BE9F0CE01019626
:1014F0000E94E409282F082E000C330B20533109D9
:101500002A30310550F4ECE1F0E0EC0FFD1FE00F64
:10151000F11F80830F5F1F4FE3CF8D3009F7FE016E
:10152000E00FF11F148ECE014C960E940014182F6C
:10153000CE0101960E94F50B812F6E960FB6F8949E
:10154000DEBF0FBECDBFDF91CF911F910F91FF90F6
:10155000EF90DF90CF900895CF92DF92EF92FF92BD
:101560000F931F93CF93DF936C017A018B01C0E03F
:10157000D0E0CE15DF0581F0D8016D918D01D60147
:10158000ED91FC910190F081E02DC6010995892B28
:1015900011F02196EECF7E01C701DF91CF911F910F
:1015A0000F91FF90EF90DF90CF9008950E948915E2
:1015B00081E094E00E94C50021E0892B09F420E03D
:1015C000822F08951F920F920FB60F9211242F931E
:1015D0003F934F935F936F937F938F939F93AF93BB
:1015E000BF93EF93FF9381E094E00E941601FF9177
:1015F000EF91BF91AF919F918F917F916F915F918B
:101600004F913F912F910F900FBE0F901F90189503
:101610001F920F920FB60F9211242F938F939F93C7
:10162000EF93FF93E0911104F09112048081E09117
:101630001704F091180482FD12C0908180911A0461
:101640008F5F8F7320911B04821751F0E0911A0471
:10165000F0E0EF5FFB4F958F80931A0401C080810B
:10166000FF91EF919F918F912F910F900FBE0F904F
:101670001F9018954F925F926F927F92AF92BF9298
:10168000CF92DF92EF92FF920F931F93CF93DF934E
:1016900000D000D0CDB7DEB78C0149835A836B836D
:1016A0007C835901C12CD12C7601412C82E0582E2B
:1016B000612C712C49815A816B817C819E012F5F45
:1016C0003F4FC8010E948404882351F1D301C20115
:1016D000F801058404C0880F991FAA1FBB1F0A9434
:1016E000D2F7C80ED91EEA1EFB1E49815A816B81B2
:1016F0007C818789803129F088EF9FEFAFEFBFE0D1
:1017000004C088EF9FEFA0E0B0E0481759076A07D0
:101710007B0780F2F501C082D182E282F38281E010
:101720000F900F900F900F90DF91CF911F910F911D
:10173000FF90EF90DF90CF90BF90AF907F906F9031
:101740005F904F900895CF93DF93EC0180E2689F04
:10175000F0011124EF5FFD4F6A8B8091020190919F
:101760000301A0910401B09105018E879F87A88B8A
:10177000B98B4489558960E070E0BA015527442748
:10178000828D938DA0E0B0E0482B592B6A2B7B2BE8
:101790004F8B588F698F7A8F8385887151F4848D30
:1017A000958DA68DB78D8B8B9C8BAD8BBE8B81E081
:1017B0000EC0803111F080E015C09E012D5E3F4FBC
:1017C0008B8D9C8D0E943A0B8823A9F384E08D8336
:1017D00081E08C831E821F82188619861A861B86DA
:1017E0001C861D86DF91CF910895CF93DF93EC0186
:1017F000898D9A8D009741F00E94DA06898D9A8D25
:101800000E9400151A8E198EDF91CF910895EF92E4
:10181000FF920F931F93CF93DF93EC017B018A011B
:101820001B821A8288EE93E0A0E0B0E08C839D8357
:10183000AE83BF8382E191E0998388838DE190E05C
:101840000E9468149A8F898F009779F02DE1F70133
:10185000DC0101900D922A95E1F74CE050E0B801CF
:10186000CE010C960E949B15188EDF91CF911F918F
:101870000F91FF90EF900895AF92BF92CF92DF92B9
:10188000EF92FF920F931F93CF93DF93CDB7DEB705
:101890002B970FB6F894DEBF0FBECDBF6C01FE01D3
:1018A0003196CE010C967F0120E22193E817F907CB
:1018B000E1F7DA0120E037E09D91992331F19E3282
:1018C00031F43A3009F4AAC028E03AE0F5CFE8E66E
:1018D000F0E08491882321F031969813FACF9EC0CE
:1018E000321708F49BC08FED890F8E3508F096C033
:1018F00081E0820FF701E20FF11D2FE9290F2A3154
:1019000008F490529083282FD7CF8981803209F430
:1019100085C08B01FB01838D948DF601948F838F9D
:10192000FB01168217821086118612861386148692
:101930001586B12CF80182859385A485B5854389E8
:1019400054896589768984179507A607B70708F033
:1019500065C025E0B695A795979587952A95D1F707
:10196000F82FFF70AF2EF8018581823008F456C041
:10197000C8010E94FB0897FD51C0F801828593853C
:10198000A485B5854F96A11DB11D82879387A48735
:10199000B587F0E2AF9EB00111246F5F7D4F6115F6
:1019A0007105E1F1FB0180818823F1F0853E99F119
:1019B0004BE050E0C7010E948E15892B09F0BACF89
:1019C0006A2DC6012B960FB6F894DEBF0FBECDBFB1
:1019D000DF91CF911F910F91FF90EF90DF90CF900B
:1019E000BF90AF900C94A30BB11018C0F601A28A5F
:1019F0008091020190910301A0910401B091050131
:101A000086879787A08BB18BFB018081882331F07B
:101A1000BB24B3948FCFB110FBCFE8CF80E02B96DF
:101A20000FB6F894DEBF0FBECDBFDF91CF911F91EF
:101A30000F91FF90EF90DF90CF90BF90AF900895FF
:101A4000CF93DF93FC012581222311F080E049C070
:101A5000EC018091C3048031C1F482E08583178A50
:101A6000108E118E128E8091C4049091C504A0E056
:101A7000B0E025E0880F991FAA1FBB1F2A95D1F758
:101A8000838B948BA58BB68B19C08032F9F683E0DB
:101A900085834091C6045091C7046091C804709139
:101AA000C904478B508F618F728F9F012D5E3F4F0E
:101AB0008CEA94E00E943A0B882341F28CEA94E08D
:101AC0009C8F8B8F81E08C831E821F8218861986E3
:101AD0001A861B861C861D861E861F86188A198AF2
:101AE0001A8ADF91CF910895833081F028F48130F4
:101AF00099F08230A1F008958730A9F08830B9F0CC
:101B00008430D1F4809180008F7D03C0809180006B
:101B10008F7780938000089584B58F7702C084B555
:101B20008F7D84BD08958091B0008F7703C0809130
:101B3000B0008F7D8093B0000895EF92FF920F93D5
:101B40001F93CF93DF93CDB7DEB7C755D1090FB63B
:101B5000F894DEBF0FBECDBF8C011C821B8288E4CF
:101B6000E82E81E0F82EFA82E9821E82CE010196EB
:101B70000E94200DBE016F5F7F4FCE01CB960E9469
:101B8000AA0819A218A2FF8EEE8E1BA221968FAD75
:101B90002197811113C0F8011382128288EE93E01D
:101BA000A0E0B0E084839583A683B78382E191E0CF
:101BB00091838083128E118E14861EC04BEE51E0ED
:101BC000BE01655C7F4FCE014E960E943C0C88237F
:101BD00011F3CE01CB960E94DA06BE01625E7F4F02
:101BE000CE0101960E94AA084BEE51E0BE016F5F44
:101BF0007F4FC8010E94070CC801C95ADF4F0FB6BA
:101C0000F894DEBF0FBECDBFDF91CF911F910F9132
:101C1000FF90EF900895009769F0FC01019000207B
:101C2000E9F73197AF01481B590BBC0181E094E003
:101C30000C94AC0A80E090E008958F929F92AF924E
:101C4000BF920F931F93CF93DF93CDB7DEB7A197CA
:101C50000FB6F894DEBF0FBECDBF19A2423008F414
:101C60004AE08E010F5D1F4F842E912CA12CB12CC8
:101C7000A50194010E942614E62FB901CA01015062
:101C80001109EA3014F4E05D01C0E95CD801EC937D
:101C9000232B242B252B61F7C8010E940B0EA19644
:101CA0000FB6F894DEBF0FBECDBFDF91CF911F916D
:101CB0000F91BF90AF909F908F900895CF92DF9239
:101CC000EF92FF92CF93DF936C01990FEE08FF081C
:101CD000F7FE13C06DE281E094E00E943801EC0150
:101CE00066277727CB016C197D098E099F094AE089
:101CF0000E941D0EC80FD91F06C04AE0C701B601D9
:101D00000E941D0EEC0185EB91E00E940B0E8C0FE2
:101D10009D1FDF91CF91FF90EF90DF90CF900895BE
:101D2000CF93DF930E940B0EEC0185EB91E00E94B4
:101D30000B0E8C0F9D1FDF91CF9108958F929F9274
:101D4000AF92BF92CF92DF92EF92FF92CF93DF9349
:101D5000C82F80EA94E09093EA048093E904CC23AE
:101D600069F1C53010F080E00CC140E060E070E047
:101D7000CB010E949A038823B1F320E1C29FC001E6
:101D800011248F509E4FFC01E254FE4F20812F778B
:101D900051F73C96408151816281738144365105EF
:101DA0006105710500F33497C080D180E280F38033
:101DB000C114D104E104F10421F4D5CFC12CD12CFC
:101DC000760140E0C701B6010E949A03882359F2C8
:101DD00080910C0290910D028115924021F6A09104
:101DE0001102AA2309F4BFCF60910F027091100273
:101DF0006115710509F4B7CF20910E02222309F471
:101E0000B2CFA093BE042093B00480E030E041E064
:101E100050E0C82FFA01082E02C0EE0FFF1F0A94EF
:101E2000E2F72E173F0739F08F5FC83091F789E04E
:101E30008093B90498CF8093B90420911702309110
:101E400018022115310519F040E050E008C020913A
:101E500025023091260240912702509128022093BA
:101E6000B1043093B2044093B3045093B4044601D8
:101E70005701860E971EA11CB11C8092BF04909240
:101E8000C004A092C104B092C204E0911202F09189
:101E90001302F093C504E093C404B0E00E94481418
:101EA000860E971EA81EB91E8092C6049092C70483
:101EB000A092C804B092C90485E0EE0FFF1F8A9576
:101EC000E1F7E150FE4FEF2FFF27E6958E0E9F1EA4
:101ED000A11CB11C8092BA049092BB04A092BC04D5
:101EE000B092BD04209114023091150221153105E4
:101EF00021F0A90160E070E008C0409121025091FA
:101F000022026091230270912402D701C601881930
:101F10009909AA09BB09840F951FA61FB71F04C002
:101F2000B695A79597958795CA95D2F78093B504EE
:101F30009093B604A093B704B093B804853F2FE004
:101F40009207A105B10510F48CE018C0853F9F4FA2
:101F5000A105B10510F480E111C080912D0290918E
:101F60002E02A0912F02B09130028093C60490936C
:101F7000C704A093C804B093C90480E28093C3044B
:101F800081E0DF91CF91FF90EF90DF90CF90BF90F5
:101F9000AF909F908F900895CF93DF93282F30E0DC
:101FA000F901E254FF4F8491F901E655FF4FD491B6
:101FB000F901EA56FF4FC491CC2391F081110E94A0
:101FC000740DEC2FF0E0EE0FFF1FE457FF4FA591CB
:101FD000B491EC91ED2381E090E021F480E002C027
:101FE00080E090E0DF91CF9108951F93CF93DF932E
:101FF000282F30E0F901E254FF4F8491F901E655B2
:10200000FF4FD491F901EA56FF4FC491CC23C1F0A0
:10201000162F81110E94740DEC2FF0E0EE0FFF1FC0
:10202000EE57FF4FA591B4919FB7F894111104C0DA
:102030008C91D095D82302C0EC91DE2BDC939FBF0E
:10204000DF91CF911F910895CF93DF9390E0FC0132
:10205000E655FF4F2491FC01EA56FF4F84918823F7
:1020600061F190E0880F991FFC01E858FF4FC5917E
:10207000D491FC01EE57FF4FA591B491611109C0B5
:102080009FB7F8948881209582238883EC912E2332
:102090000BC0623061F49FB7F8948881322F30957D
:1020A00083238883EC912E2B2C939FBF06C08FB780
:1020B000F894E8812E2B28838FBFDF91CF9108956C
:1020C0003FB7F8948091F0049091F104A091F2044C
:1020D000B091F30426B5A89B05C02F3F19F00196D7
:1020E000A11DB11D3FBFBA2FA92F982F8827820F9E
:1020F000911DA11DB11DBC01CD0142E0660F771FEE
:10210000881F991F4A95D1F708952FB7F8946091C9
:10211000EC047091ED048091EE049091EF042FBFD8
:1021200008951F920F920FB60F9211242F933F9391
:102130008F939F93AF93BF938091EC049091ED04A4
:10214000A091EE04B091EF043091EB0423E0230F53
:102150002D3720F40196A11DB11D05C026E8230FDF
:102160000296A11DB11D2093EB048093EC04909383
:10217000ED04A093EE04B093EF048091F0049091ED
:10218000F104A091F204B091F3040196A11DB11DD8
:102190008093F0049093F104A093F204B093F304BD
:1021A000BF91AF919F918F913F912F910F900FBE53
:1021B0000F901F901895CF93DF93CDB7DEB76E9732
:1021C0000FB6F894DEBF0FBECDBF789484B58260A1
:1021D00084BD84B5816084BD85B5826085BD85B5CB
:1021E000816085BD80916E00816080936E00109249
:1021F00081008091810082608093810080918100C4
:102200008160809381008091800081608093800054
:102210008091B10084608093B1008091B0008160B2
:102220008093B00080917A00846080937A008091DE
:102230007A00826080937A0080917A008160809336
:102240007A0080917A00806880937A001092C100B1
:10225000E0911104F091120482E08083E0910D047A
:10226000F0910E041082E0910F04F09110048FECB5
:10227000808310921904E0911504F091160486E011
:102280008083E0911304F091140480818061808345
:10229000E0911304F0911404808188608083E091C0
:1022A0001304F0911404808180688083E09113040A
:1022B000F091140480818F7D80838CE591E00E94F1
:1022C0000B0E8091CF04882321F08AEC94E00E94C9
:1022D000DA061092AB041092A9041092A604109290
:1022E000A5048AE08093A4040E9485108B0161E01C
:1022F0008091A4040E94241061E08091A4040E94B3
:10230000F50FFFB6F8948091FC01811127C0E0EA37
:10231000F0E08491E4EBF0E09491E82FF0E0EE0F30
:10232000FF1FE858FF4FA591B491EC91E92321F4E8
:1023300061E08AE00E94F50F61E08AE00E942410CB
:102340008CB580618CBD8CB580648CBD61E08DE006
:102350000E94241061E08BE00E9424108091FC0117
:102360008F5F8093FC01FFBE82E580939E041092F4
:102370009F0480919E0490919F040E94F7014AE07F
:10238000F42E8FEF0E94B801FA94F110FACF80EA90
:1023900094E00E94FA0120E030E0A90160E080EAC8
:1023A00094E00E941002F82E8093AA0421E0821784
:1023B00049F00E948510601B710B613D774058F316
:1023C00081E056C02AEA31E040E050E068E080EA6F
:1023D00094E00E94100282FF03C0F092AB0410C090
:1023E00034E0F32E0E94BF018093AA04FA94F11006
:1023F000F9CF8A3A11F082E03BC082E08093AB04CF
:102400008091AB04823021F0C12CD12C760105C023
:10241000C12CD12CE12C20E4F22E20E030E0A901E7
:1024200067E380EA94E00E941002A701960169E246
:1024300080EA94E00E9410028093AA04882349F065
:102440000E948510601B710B613D774030F388E07E
:102450000FC08091AB04823001F520E030E0A9018B
:102460006AE380EA94E00E941002882341F086E04B
:102470008093A50480EA94E00E94AD0128C00E94E8
:10248000BF01807C803C19F483E08093AB040E9400
:10249000BF010E94BF010E94BF0180EA94E00E9438
:1024A000AD0180E580939E0410929F0481E00E941C
:1024B0009E0E882339F08AEC94E00E94200D882338
:1024C00031F00AC080E00E949E0E8111F4CF84E7B3
:1024D00091E00E94900EFFCF80E991E00E94900E63
:1024E000CE0101960E949D0DEA8DFB8D3097A1F0E3
:1024F000858100E010E0882389F0CE0101960E94DA
:10250000DB00892B59F0CE0101960E94E4098D3041
:10251000A1F70F5F1F4FF1CF00E010E0CE01019651
:102520000E94F50B1093FF010093FE0160E085E02F
:102530000E94241060E086E00E94241060E084E0A5
:102540000E94241082EA91E00E940B0E8091FE010D
:102550009091FF010E945E0EBB24B3948091000114
:10256000909101010E94180A182F83EB91E00E94BC
:102570000B0E612F70E080E090E04AE00E941D0E9B
:1025800085EB91E00E940B0E85E00E94CC0F81301C
:10259000910591F420910001309101014091FE01DB
:1025A0005091FF0124173507B9F02F5F3F4F30934B
:1025B0000101209300011EC086E00E94CC0F01970C
:1025C00091F480910001909101018130910549F4CD
:1025D0008091FE019091FF01909301018093000191
:1025E00009C00197F9CF84E00E94CC0F019761F6F2
:1025F000B092FD018091FD01882309F490C088EB21
:1026000091E00E940B0E80910001909101010E94C7
:10261000180A8FEB91E00E94900E80ED91E00E94ED
:102620000B0EC12CD12CEE24E394F12CCE0101969B
:102630000E949D0D00E010E0CE0101960E94DB009B
:10264000892B51F48A8D9B8D009791F0FC01428576
:102650005385648575850FC0CE0101960E94E409FB
:102660008D3051F70F5F1F4FE016F10629F7EACFC3
:102670004FEF5FEFBA0145505109610971090097A9
:1026800011F00E94070500E010E0CE0101960E94C3
:10269000DB00892B01F1CE0101960E94E409282F6D
:1026A000082E000C330B205331092A30310550F429
:1026B000ECE1F0E0EC0FFD1FE00FF11F80830F5FF6
:1026C0001F4FE3CF8D3009F7ECE1F0E0EC0FFD1F79
:1026D000E00FF11F1082CE014C960E940014182FBB
:1026E000CE0101960E94F50B112319F0FFEFCF1ACE
:1026F000DF0A8091FE019091FF01E816F90631F49E
:10270000C6010E945E0E1092FD0109C02FEFE21A71
:10271000F20A6EE281E094E00E94380187CF0E94C5
:1027200060106B017C0184EB482E512C612C712CC4
:102730000E946010DC01CB018C199D09AE09BF0914
:10274000883E9340A105B10598F381E0481A5108ED
:1027500061087108E8EECE0EE3E0DE1EE11CF11C1C
:10276000411451046104710419F70E94D100F6CE9E
:10277000E1E0F4E01382128288EE93E0A0E0B0E0A2
:1027800084839583A683B78386E391E091838083D6
:1027900085EC90E09587848784EC90E09787868726
:1027A00080EC90E0918B808B81EC90E0938B828B1E
:1027B00082EC90E0958B848B86EC90E0978B868BF7
:1027C000118E128E138E148EEEE9F4E080E5808374
:1027D0001182E0EAF4E0158216821186138682E007
:1027E00090E0A0E0B0E084879587A687B78713A222
:1027F00015A614A688E491E093A782A717A60895CA
:10280000FC0188279927E89421912032E9F32930A7
:1028100010F02E30C8F32B3241F02D3239F4689489
:1028200004C00E941E14820F911D219120532A3052
:10283000C0F31EF4909581959F4F08957AE0979F7D
:10284000902D879F802D910D11240895A1E21A2EBD
:10285000AA1BBB1BFD010DC0AA1FBB1FEE1FFF1F44
:10286000A217B307E407F50720F0A21BB30BE40B94
:10287000F50B661F771F881F991F1A9469F76095DB
:102880007095809590959B01AC01BD01CF01089595
:102890000E945914A59F900DB49F900DA49F800D88
:1028A000911D11240895EE0FFF1F0590F491E02D66
:1028B0000994A29FB001B39FC001A39F700D811D19
:1028C0001124911DB29F700D811D1124911D089539
:1028D0000F931F93CF93DF938230910510F482E022
:1028E00090E0E091F604F091F70420E030E0A0E001
:1028F000B0E0309719F1408151810281138148176E
:102900005907C8F08417950769F4109731F01296AB
:102910000C93129713961C9327C00093F604109300
:10292000F70422C02115310519F04217530718F496
:102930009A01BD01EF01DF01F801DBCF211531055F
:10294000F9F0281B390B2430310580F48A819B81F2
:102950006115710521F0FB019383828304C090937C
:10296000F7048093F604FE01329644C0FE01E20FA4
:10297000F31F8193919322503109398328833AC000
:102980002091F4043091F504232B41F420910801A7
:10299000309109013093F5042093F404209106014D
:1029A000309107012115310541F42DB73EB7409113
:1029B0000A0150910B01241B350BE091F404F091B6
:1029C000F504E217F307A0F42E1B3F0B2817390775
:1029D00078F0AC014E5F5F4F2417350748F04E0F7B
:1029E0005F1F5093F5044093F4048193919302C0C8
:1029F000E0E0F0E0CF01DF91CF911F910F910895BA
:102A0000CF93DF93009709F481C0FC0132971382C2
:102A10001282A091F604B091F704109781F42081FE
:102A20003181820F931F2091F4043091F50428170F
:102A3000390751F5F093F504E093F40467C0ED0114
:102A400020E030E0CE17DF0740F44A815B819E0131
:102A500041155105F1F0EA01F5CFD383C2834081DE
:102A60005181840F951FC817D90759F4888199811E
:102A7000840F951F0296918380838A819B81938323
:102A800082832115310529F4F093F704E093F604CD
:102A90003DC0E901FB83EA8349915991C40FD51FD9
:102AA000EC17FD0761F480819181840F951F0296D8
:102AB000E90199838883828193819B838A83E0E003
:102AC000F0E012968D919C911397009719F0FD01FB
:102AD000DC01F7CF8D919C9111979D012E5F3F4FA7
:102AE000820F931F2091F4043091F50428173907C1
:102AF00069F4309729F41092F7041092F60402C09A
:102B000013821282B093F504A093F404DF91CF9165
:102B1000089581E090E0F8940C94AA15FB01DC0183
:102B200004C08D910190801921F441505040C8F7A4
:102B3000881B990B0895FB01DC014150504048F07F
:102B400001900D920020C9F701C01D9241505040E4
:082B5000E0F70895F894FFCFAF
:102B58000100FFFFFFFF0000F804800000000000F4
:102B68000000FC008E081301E606DB00E409EE090C
:102B780000000000D60AAC0A13011201D60AD60AD0
:102B8800D60A000000003801AC0A94008501C5008F
:102B9800A300B700000000007D08AC0A1301120171
:102BA80000000000D60AAC0A13011201496E6974CC
:102BB80069616C697A696E67205344206361726445
:102BC8002E2E2E0043617264206661696C65642C48
:102BD800206F72206E6F742070726573656E74005A
:102BE8006361726420696E697469616C697A65648D
:102BF8002E002D2D2D2D2D3E3E3E2044454255477D
:102C0800203A2020000D0A00616C756E6F200020AC
:102C1800666F692073656C6563696F6E61646F00C8
:102C28004E756D65726F2064652049445320636159
:102C380064617374726164617320006C6973746198
:062C48002E7478740000F8
:00000001FF
