:100000000C947D000C94A5000C94A5000C94A50004
:100010000C94A5000C94A5000C94A5000C94A500CC
:100020000C94A5000C94A5000C94A5000C94A500BC
:100030000C94A5000C94A5000C94A5000C94A500AC
:100040000C9480130C94A5000C94ED0F0C94C70F26
:100050000C94A5000C94A5000C94A5000C94A5008C
:100060000C94A5000C94A5004E6F6D6520646F2064
:10007000616C756E6F207072696E7461646F20635D
:100080006F6D207375636573736F0000000000244B
:100090000027002A0000000000250028002B000097
:1000A00000000023002600290004040404040404C2
:1000B0000402020202020203030303030301020417
:1000C00008102040800102040810200102040810DA
:1000D00020000000080002010000030407000000E7
:1000E00000000000007C3C3E5E2B3D3F2F5B5D3BF3
:1000F0002C2A225C00001618101811241FBECFEF06
:10010000D8E0DEBFCDBF25E0A8E8B2E001C01D9277
:10011000A039B207E1F712E0A0E0B1E0E0EEF6E3CB
:1001200002C005900D92A838B107D9F710E0CCE7CE
:10013000D0E004C02197FE010E943A19CB37D107C5
:10014000C9F70E94CA130C94631B0C940000DC01D5
:100150005996ED91FC915A973097B9F0838994891B
:10016000A589B6894285538564857585841B950B61
:10017000A60BB70B811520E89207A105B10538F051
:100180008FEF9FE7A0E0B0E0089580E090E0089551
:10019000CF93DF931F92CDB7DEB76983DC01ED917A
:1001A000FC910280F381E02D41E050E0BE016F5FE1
:1001B0007F4F09950F90DF91CF910895089580E0CA
:1001C00090E00895CF93DF93EC018D81882379F13E
:1001D0008C8187FF28C06E857F858889998941E059
:1001E0000E945A10882319F1EA8980E2E89FF00101
:1001F0001124EA56FD4F3097D1F08D81823040F4C2
:100200008B899C89AD89BE89848F958FA68FB78F86
:100210008F89988DA98DBA8D938F828FB58BA48B82
:100220008C818F778C83DF91CF910C941F1080E0AD
:10023000DF91CF910895FC01818D928D009711F08F
:100240000C94E20008958F929F92AF92BF92CF924A
:10025000DF92EF92FF920F931F93CF93DF93EC0106
:100260008D81811102C080E078C00B891C892D89A5
:100270003E890417150726073707A8F36A017B0193
:10028000823029F4CA86DB86EC86FD860DC0C11457
:10029000D104E104F10451F41E821F8218861986EC
:1002A0001A861B861C861D8681E057C08A849B8423
:1002B000AC84BD84EB8DFC8D258530E0275F3F4FFE
:1002C000B501A4014150510961097109022E04C010
:1002D00076956795579547950A94D2F7D701C60149
:1002E0000197A109B10904C0B695A795979587957F
:1002F0002A95D2F784179507A607B70720F0892813
:100300008A288B2871F44F89588D698D7A8D4E8398
:100310005F83688779874C015D018E010A5F1F4FFB
:1003200016C0841B950BA60BB70BF5CF4E815F81D2
:100330006885798598018B8D9C8D0E94441191E090
:10034000891A9108A108B108882309F48CCF811477
:100350009104A104B10451F795CFDF91CF911F9182
:100360000F91FF90EF90DF90CF90BF90AF909F9054
:100370008F9008958F929F92AF92BF92CF92DF920B
:10038000EF92FF920F931F93CF93DF9300D000D093
:10039000CDB7DEB77C0180E2689FF0011124EA56F8
:1003A000FD4F9385917121F0842F827409F08FC0E5
:1003B000142FD70152966C9352974091020150919D
:1003C000030160910401709105011E964D935D93A8
:1003D0006D937C9351974489558960E070E0BA0130
:1003E00055274427828D938DA0E0B0E0482B592BF0
:1003F0006A2B7B2BD70157964D935D936D937C931E
:100400005A978385887159F4848D958DA68DB78D03
:10041000F701838B948BA58BB68B81E012C0803162
:1004200009F055C097012D5E3F4FD7015B968D9126
:100430009C915C970E94DB09882309F448C084E002
:10044000F7018583812F8F70D70114968C931497B1
:10045000F70116821782108611861A961D921D9238
:100460001D921C921D9716FF34C015968C918130F9
:1004700071F511FF2CC0F70143895489658976898C
:10048000452B462B472B09F461C040E050E0BA01F0
:10049000C7010E9423018823D1F0F7018788908C3F
:1004A000A18CB28CC38CD48C82E090E0A0E0B0E050
:1004B000F60180839183A283B3839E012F5F3F4F18
:1004C000B501A401C6010E944411811104C080E05D
:1004D0003DC081E03BC000E010E09801B501A401FF
:1004E000C6010E94A310882391F389809A80AB8073
:1004F000BC80D60157968C91803129F088EF9FEF10
:10050000AFEFBFE004C088EF9FEFA0E0B0E0881637
:100510009906AA06BB0688F2D70157961D921D922E
:100520001D921C925A97F701138A148A158A168A0B
:10053000848180688483C7010E94E200882339F2A5
:1005400040E050E0BA01C7010E9423010F900F90D4
:100550000F900F90DF91CF911F910F91FF90EF902F
:10056000DF90CF90BF90AF909F908F900895CF93E2
:10057000DF93EC010E94E200882311F01D8281E0EC
:10058000DF91CF9108953F924F925F926F927F9249
:100590008F929F92AF92BF92CF92DF92EF92FF9293
:1005A0000F931F93CF93DF93CDB7DEB72C970FB682
:1005B000F894DEBF0FBECDBF5C01DC015B968D9071
:1005C0009C905C971696CD90DD90ED90FC901997DD
:1005D000C114D104E104F10439F0BFEFCB1ADB0AF6
:1005E000EB0AFB0A312C07C0F401C080D180E28005
:1005F000F38033243394F40181859285A385B485F7
:100600009C01AD012F5F3F4F4F4F5F4F29873A87C6
:100610004B875C87260137011D821E821F82188648
:10062000F40181859285A385B4852D813E814F811A
:100630005885281739074A075B0708F063C0898582
:100640009A85AB85BC858C159D05AE05BF0550F41C
:1006500082E0C82ED12CE12CF12C92E0492E512CB5
:10066000612C712C9E012F5F3F4FB701A601C40181
:100670000E944411882309F445C089819A81AB8185
:10068000BC81892B8A2B8B2B41F0260137019FEFF0
:10069000491A590A690A790A05C0C414D504E6043E
:1006A000F70491F02D813E814F8158852F5F3F4F98
:1006B0004F4F5F4F2D833E834F8358873FEFC31AC1
:1006C000D30AE30AF30AACCF0FEF1FEF2FEF3FE09F
:1006D000B301A201C4010E94A310882399F0D5019F
:1006E00016964D915D916D917C911997411551052B
:1006F0006105710549F093018201C4010E94A310B4
:10070000811102C080E02AC0D50116964D925D92FB
:100710006D927C921997332051F0D301C20101965A
:10072000A11DB11DF40180839183A283B383F501E0
:100730008789908DA18DB28D892B8A2B8B2B69F4A3
:10074000D50157964D925D926D927C925A97149670
:100750008C911497806814968C9381E02C960FB638
:10076000F894DEBF0FBECDBFDF91CF911F910F91E7
:10077000FF90EF90DF90CF90BF90AF909F908F90C1
:100780007F906F905F904F903F9008958FB7F8944F
:1007900080918D028FBF089561E0FC0184810E94E9
:1007A000840D80918C02811110928C0208958EBD6F
:1007B00000000DB407FEFDCF8EB508958FEF0C94A9
:1007C000D7030F931F93CF93DF93EB010E94140E77
:1007D0008B010E94DE038F3F49F00E94140E601BC4
:1007E000710B6C177D07A8F380E001C081E0DF91F9
:1007F000CF911F910F910895CF93DF93EC018E81DC
:10080000882389F08F8198859C012F5F3F4F38871F
:100810002F838230924018F40E94DE03F3CFCE0182
:100820000E94CC031E82DF91CF9108958CBD9DBDA7
:100830000895CF93DF93EC0180918C02811109C060
:1008400081E080938C0280913505909136050E945D
:10085000160460E08C81DF91CF910C94840D8F920F
:100860009F92AF92BF92FF920F931F93CF93DF930C
:10087000EC01F62E49015A010E94FC03CE010E94B0
:1008800019046CE271E0CE010E94E1038F2D8064B7
:100890000E94D70308E110E0D501C401002E04C076
:1008A000B695A795979587950A94D2F70E94D70396
:1008B00008501109083F8FEF180771F7FF2029F042
:1008C00088E0F81204C087E803C085E901C08FEF13
:1008D0000E94D70310E00E94DE038A8787FF04C0CE
:1008E0001F3F11F01F5FF7CFDF91CF911F910F9145
:1008F000FF90BF90AF909F908F900895AF92BF925E
:10090000CF92DF92EF92FF920F931F93CF93DF93DB
:10091000EC016901C801820F931F8130924008F0F9
:1009200070C08E81882371F088819981AA81BB81F2
:1009300084179507A607B70729F48F819885C816ED
:10094000D906B0F5488359836A837B838B858330CE
:1009500039F089E0440F551F661F771F8A95D1F73C
:100960009A01AB0161E1CE010E942F04882319F0A6
:1009700083E08D8346C00E94140E5B010E94DE035B
:100980008A878F3F49F40E94140E6A197B096D32E1
:100990007140A0F38FE003C08E3F31F08DE08D8376
:1009A000CE010E94CC032DC018861F8281E08E8369
:1009B0008F8198858C159D0540F40E94DE038F8100
:1009C0009885019698878F83F3CF6701E00EF11E1B
:1009D000EC14FD0431F00E94DE03F60181936F01F7
:1009E000F7CF8F819885080F191F18870F83898586
:1009F000882319F00115124048F0CE010E94FC0333
:100A000005C0CE010E94CC0380E001C081E0DF91EF
:100A1000CF911F910F91FF90EF90DF90CF90BF90FB
:100A2000AF900895EF92FF920F931F93CF93DF93B0
:100A3000EC017901411551056105710511F482E15F
:100A40003CC08B85833039F089E0440F551F661F09
:100A5000771F8A95D1F79A01AB0168E1CE010E9418
:100A60002F04882311F084E028C08EEF0E94D70362
:100A700087018EEFF81AF80181918F010E94D70348
:100A8000E016F106C1F78FEF0E94D7038FEF0E94A7
:100A9000D7030E94DE038A878F71853031F081E1B0
:100AA0008D83CE010E94CC0309C068E572E0CE01BF
:100AB0000E94E103811107C085E18D83CE010E9470
:100AC000CC0380E014C020E030E0A9016DE0CE014D
:100AD0000E942F04811109C00E94DE03811105C00C
:100AE000CE010E94CC0381E002C084E1E6CFDF9119
:100AF000CF911F910F91FF90EF9008952F923F9209
:100B00004F925F926F927F928F929F92AF92BF921D
:100B1000CF92DF92EF92FF920F931F93CF93DF93C9
:100B200000D000D0CDB7DEB78C015B011A01DC012B
:100B300015968C9115978130C9F414968C9181FF8C
:100B400015C082FF1DC0F8014389548965897689E3
:100B500082859385A485B58584179507A607B70771
:100B600079F0C8010E94230181110AC081E090E060
:100B7000D80113969C938E93129780E090E036C133
:100B8000610183C05B968D919C915C97FC017480A0
:100B90002FEF270D2A013B0139E076946794579493
:100BA00047943A95D1F7722E74207A01F1E0FF2232
:100BB000772009F476C080E092E08E199F09460103
:100BC0008C159D0508F44C01D8015B962D913C9144
:100BD0005C9716968D919D910D90BC91A02D0297DA
:100BE000A109B109F901058404C0880F991FAA1F42
:100BF000BB1F0A94D2F74685578560897189840F97
:100C0000951FA61FB71F9C01AD01270D311D411D6A
:100C1000511D29013A01811432E0930609F088C080
:100C20008091020190910301A0910401B09105010E
:100C3000481659066A067B0659F48FEF9FEFDC01D0
:100C40008093020190930301A0930401B0930501E6
:100C50009501B301A20180919604909197040E949E
:100C60001205882309F482CF9EEFB91AC818D90853
:100C7000F80182859385A485B585880D991DA11DF0
:100C8000B11D82879387A487B587D8011A964D91A5
:100C90005D916D917C911D97C114D10409F072CFC3
:100CA00087C0E114F10409F086CF16964D915D914D
:100CB0006D917C911997411551056105710559F4A4
:100CC00057968D919D910D90BC91A02D0097A105F7
:100CD000B10541F521C09E012F5F3F4F0E94441195
:100CE000882309F44BCF89819A81AB81BC81F801BB
:100CF000238D348DF9012789203129F048EF5FEFEA
:100D00006FEF7FE004C048EF5FEF60E070E08417B2
:100D10009507A607B70730F0C8010E94C3028111EA
:100D20004ACF24CFF80186839783A087B18743CF2A
:100D3000E114F10429F5D8011A964D915D916D9158
:100D40007C911D9753968D919D910D90BC91A02DF6
:100D5000481759076A077B0798F00E941F108823DD
:100D600009F404CF40920201509203016092040101
:100D7000709205018091860581608093860508C088
:100D800041E0C301B2010E945A10882309F4EECE5B
:100D9000D501F701EA56FD4F9F01280D391D2E1789
:100DA0003F0719F08D918193FACFA80CB91C5ECF43
:100DB000F80183899489A589B68984179507A607C0
:100DC000B70738F4438B548B658B768B84818068AE
:100DD0008483F801848183FD02C0C10107C0C8017A
:100DE0000E94E200882309F4C1CEF7CF0F900F9044
:100DF0000F900F90DF91CF911F910F91FF90EF9087
:100E0000DF90CF90BF90AF909F908F907F906F902A
:100E10005F904F903F902F900895CF93DF93EC0118
:100E2000898D9A8D009739F481E090E09B838A83C5
:100E300080E090E00BC0FC01138212820E947E05CC
:100E4000E98DFA8D22813381232B71F7DF91CF91C8
:100E50000895FC01DB0112968D919C911397938369
:100E6000828384E391E09183808314968C9114971C
:100E7000848315968C911597858316964D915D9177
:100E80006D917C91199746835783608771871A9675
:100E90004D915D916D917C911D9742875387648739
:100EA00075871E964D915D916D917C915197468706
:100EB0005787608B718B52968C915297828B539689
:100EC0004D915D916D917C915697438B548B658BC1
:100ED000768B57964D915D916D917C915A97478B8A
:100EE000508F618F728F5B968D919C915C97948FE0
:100EF000838F08954F925F926F927F92AF92BF92CD
:100F0000CF92DF92EF92FF920F931F93CF93DF93D5
:100F10001F92CDB7DEB7FC012581222309F4C1C0A1
:100F2000848180FFBEC083899489A589B689428463
:100F300053846484758484159505A605B70509F462
:100F4000B0C06F015201F1E0BF22D6015B968D91D6
:100F50009C915C97B301A20139E07695679557950E
:100F600047953A95D1F7223071F4FC01828D938D2B
:100F7000A48DB58D8A019B01080F191F2A1F3B1FE5
:100F8000C901B8014AC0DC0114961C911150142308
:100F9000A114B104F9F411111DC0452846284728B1
:100FA00051F4F6018789908DA18DB28D8683978348
:100FB000A087B1870FC0D60116964D915D916D91B6
:100FC0007C91199796012A5F3F4F0E944411882314
:100FD00009F467C0F601238D348D86819781A08541
:100FE000B1850297A109B109AC01BD01F9010584E0
:100FF00004C0440F551F661F771F0A94D2F78685D9
:101000009785A089B189840F951FA61FB71FBC01C2
:10101000CD01610F711D811D911DD60114962C917A
:1010200026FF0DC040900201509003016090040122
:1010300070900501461657066806790699F440E057
:101040000E945A10882369F1F501EA56FD4FDE012E
:1010500011969F012F5F3F4F2E173F0799F0819107
:101060008D93FACFFE0131967F0101E010E09501EA
:10107000AB01BC0180919604909197040E947E047C
:10108000882379F0F60182859385A485B58501963C
:10109000A11DB11D82879387A487B587898190E0C0
:1010A00002C08FEF9FEF0F90DF91CF911F910F91B3
:1010B000FF90EF90DF90CF90BF90AF907F906F90B8
:1010C0005F904F900895FC01818D928D009711F0F3
:1010D0000C947A078FEF9FEF08950F931F93CF9390
:1010E000DF93FC01818D928D0097B9F0EF010E9492
:1010F0007A078C010F3F8FEF180791F0898D9A8D39
:10110000FC0142855385648575854150510961090B
:1011100071090E942301C80105C080E090E002C06F
:101120008FEF9FEFDF91CF911F910F910895CF9295
:10113000DF92EF92FF920F931F93CF93DF93CDB780
:10114000DEB76E970FB6F894DEBF0FBECDBF7C0141
:1011500041E06EE871E0CE0101960E94980A00E03D
:1011600010E0670181E0C81AD108CE0101960E9403
:10117000A700892B01F1CE0101960E9463088D30F2
:1011800031F40F5F1F4FE016F10679F714C00C150C
:101190001D0559F7833249F3282F082E000C330B15
:1011A000205331092A30310500F3682F88E994E093
:1011B0000E94B30EDACFEA8DFB8D309729F042857D
:1011C00053856485758503C04FEF5FEFBA014550C5
:1011D000510961097109CE0101960E94CE0900E012
:1011E00010E0CE0101960E94A700892BE9F0CE0104
:1011F00001960E946308282F082E000C330B205301
:1012000031092A30310550F4ECE1F0E0EC0FFD1F1C
:10121000E00FF11F80830F5F1F4FE3CF8D3009F781
:10122000FE01E00FF11F148ECE014C960E946C1847
:10123000182FCE0101960E94BC09812F6E960FB621
:10124000F894DEBF0FBECDBFDF91CF911F910F91FC
:10125000FF90EF90DF90CF900895833081F028F4D5
:10126000813099F08230A1F008958730A9F088305C
:10127000B9F08430D1F4809180008F7D03C08091DB
:1012800080008F7780938000089584B58F7702C0A7
:1012900084B58F7D84BD08958091B0008F7703C0A1
:1012A0008091B0008F7D8093B0000895EF92FF92FF
:1012B0000F931F93CF93DF93EC017B018A011B8275
:1012C0001A8288EE93E0A0E0B0E08C839D83AE8329
:1012D000BF8380E191E0998388838DE190E00E9453
:1012E00040199A8F898F009779F02DE1F701DC0181
:1012F00001900D922A95E1F74CE050E0B801CE0143
:101300000C960E94541B188EDF91CF911F910F9164
:10131000FF90EF900895CF93DF93FB0122813381FB
:10132000DC0113963C932E9312974481558166817C
:10133000778114964D935D936D937C9317974085B9
:1013400051856285738518964D935D936D937C935B
:101350001B971C96EF012C969C01275E3F4F4991ED
:101360004D93A217B307D9F7218D328DFC01328F2F
:10137000218FDF91CF910895CF93DF93EC01898D79
:101380009A8D009741F00E94B702898D9A8D0E9434
:10139000D8191A8E198EDF91CF910895FC01818D95
:1013A000928D009729F00E94230191E0811101C0E4
:1013B00090E0892F08954F925F926F927F92AF9243
:1013C000BF92CF92DF92EF92FF920F931F93CF9332
:1013D000DF9300D000D0CDB7DEB78C0149835A83AC
:1013E0006B837C835901C12CD12C7601412C82E086
:1013F000582E612C712C49815A816B817C819E0110
:101400002F5F3F4FC8010E944411882351F1D3013F
:10141000C201F801058404C0880F991FAA1FBB1FD1
:101420000A94D2F7C80ED91EEA1EFB1E49815A81C2
:101430006B817C818789803129F088EF9FEFAFEF46
:10144000BFE004C088EF9FEFA0E0B0E04817590765
:101450006A077B0780F2F501C082D182E282F382C3
:1014600081E00F900F900F900F90DF91CF911F911F
:101470000F91FF90EF90DF90CF90BF90AF907F9053
:101480006F905F904F900895CF93DF93FC0125817B
:10149000222311F080E049C0EC0180915A0580318F
:1014A000C1F482E08583178A108E118E128E80918E
:1014B0005B0590915C05A0E0B0E025E0880F991FE6
:1014C000AA1FBB1F2A95D1F7838B948BA58BB68B54
:1014D00019C08032F9F683E0858340915D05509113
:1014E0005E0560915F0570916005478B508F618F3D
:1014F000728F9F012D5E3F4F83E495E00E94DB09D0
:10150000882341F283E495E09C8F8B8F81E08C836C
:101510001E821F82188619861A861B861C861D86C7
:101520001E861F86188A198A1A8ADF91CF9108951C
:101530002F923F924F925F926F927F928F929F92E3
:10154000AF92BF92CF92DF92EF92FF920F931F93D1
:10155000CF93DF93CDB7DEB7C756D1090FB6F89456
:10156000DEBF0FBECDBF6C015B01A6964FAFA69745
:1015700019A218A284E391E09F8F8E8F1BA21C8278
:101580001B829A8389831E824E018EE1880E911CF4
:10159000C4010E94440A75018E010F5F1F4F240190
:1015A00018016FE270E0C7010E94421B009709F426
:1015B00042C0F70120812F3221F4FFEFEF1AFF0A1A
:1015C000F0CF8E198D3008F08CE0682E712CA301BD
:1015D000B701CE01885A9F4F0E94541BE8E5F0E006
:1015E000EC0FFD1FE60DF71D1082C8010E94B70227
:1015F000F8018581882351F01EAE1DAE84E391E091
:101600009CAF8BAF21961FAE219721C021E0AE0188
:10161000485A5F4FB201C8010E94C711882361F385
:10162000E60CF71CC2010E94B702942D852D2801FB
:10163000092F182FB6CFC7018A199B09A8969FAF0B
:101640008EAFA897B201CE01CB960E942907A8962B
:10165000EEADFFADA897AE0EBF1EF50180818111E2
:1016600009C0BE01655C7F4FC1010E94290746E8A1
:1016700052E041C019A218A284E391E09F8F8E8F9F
:101680001BA221968FAD2197811113C0F601138201
:10169000128288EE93E0A0E0B0E084839583A68375
:1016A000B78380E191E091838083128E118E14863E
:1016B00026C0A6962FADA697A501BE01655C7F4FFB
:1016C000C4010E94C711882309F3CE01CB960E9462
:1016D000B702A6968FADA6978670863039F449A9D1
:1016E0005AA96BA97CA9C4010E942301B401C101BC
:1016F0000E942907A501B101C6010E945609C60131
:10170000C959DF4F0FB6F894DEBF0FBECDBFDF91D2
:10171000CF911F910F91FF90EF90DF90CF90BF90EE
:10172000AF909F908F907F906F905F904F903F9081
:101730002F900895009769F0FC0101900020E9F7CF
:101740003197AF01481B590BBC0188E994E00C9418
:10175000200E80E090E00895CF93DF930E949A0BD3
:10176000EC018BEA91E00E949A0B8C0F9D1FDF9198
:10177000CF9108958F929F92AF92BF920F931F9334
:10178000CF93DF93CDB7DEB7A1970FB6F894DEBF46
:101790000FBECDBF19A2423008F44AE08E010F5DA2
:1017A0001F4F842E912CA12CB12CA50194010E94D5
:1017B0001819E62FB901CA0101501109EA3014F4D1
:1017C000E05D01C0E95CD801EC93232B242B252B91
:1017D00061F7C8010E949A0BA1960FB6F894DEBF7C
:1017E0000FBECDBFDF91CF911F910F91BF90AF90F2
:1017F0009F908F900895CF92DF92EF92FF92CF93B8
:10180000DF936C01990FEE08FF08F7FE13C06DE23D
:1018100088E994E00E94B30EEC0166277727CB019C
:101820006C197D098E099F094AE00E94BA0BC80F06
:10183000D91F06C04AE0C701B6010E94BA0BEC01ED
:101840008BEA91E00E949A0B8C0F9D1FDF91CF9144
:10185000FF90EF90DF90CF9008958F929F92AF927C
:10186000BF92CF92DF92EF92FF92CF93DF93C82F78
:1018700087E395E09093970480939604CC2369F1D5
:10188000C53010F080E00CC140E060E070E0CB01BA
:101890000E945A108823B1F320E1C29FC001112495
:1018A0008A579D4FFC01E254FE4F20812F7751F75C
:1018B0003C964081518162817381443651056105B6
:1018C000710500F33497C080D180E280F380C114A9
:1018D000D104E104F10421F4D5CFC12CD12C76013F
:1018E00040E0C701B6010E945A10882359F2809146
:1018F000A1029091A2028115924021F6A091A60228
:10190000AA2309F4BFCF6091A4027091A5026115CA
:10191000710509F4B7CF2091A302222309F4B2CFB5
:10192000A09355052093470580E030E041E050E06A
:10193000C82FFA01082E02C0EE0FFF1F0A94E2F72B
:101940002E173F0739F08F5FC83091F789E08093F9
:10195000500598CF809350052091AC023091AD0294
:101960002115310519F040E050E008C02091BA027D
:101970003091BB024091BC025091BD0220934805BA
:101980003093490540934A0550934B054601570152
:10199000860E971EA11CB11C809256059092570589
:1019A000A0925805B0925905E091A702F091A802C3
:1019B000F0935C05E0935B05B0E00E94C718860ECB
:1019C000971EA81EB91E80925D0590925E05A0929A
:1019D0005F05B092600585E0EE0FFF1F8A95E1F785
:1019E000E150FE4FEF2FFF27E6958E0E9F1EA11CA4
:1019F000B11C8092510590925205A0925305B0926D
:101A000054052091A9023091AA022115310521F037
:101A1000A90160E070E008C04091B6025091B702A1
:101A20006091B8027091B902D701C601881999096D
:101A3000AA09BB09840F951FA61FB71F04C0B6953E
:101A4000A79597958795CA95D2F780934C05909363
:101A50004D05A0934E05B0934F05853F2FE09207AB
:101A6000A105B10510F48CE018C0853F9F4FA1057A
:101A7000B10510F480E111C08091C2029091C302BF
:101A8000A091C402B091C50280935D0590935E055C
:101A9000A0935F05B093600580E280935A0581E0D2
:101AA000DF91CF91FF90EF90DF90CF90BF90AF90FC
:101AB0009F908F900895CF93DF93282F30E0F90106
:101AC000EF52FF4F8491F901E354FF4FD491F90194
:101AD000E755FF4FC491CC2391F081110E942D094D
:101AE000EC2FF0E0EE0FFF1FE156FF4FA591B491F0
:101AF000EC91ED2381E090E021F480E002C080E0F1
:101B000090E0DF91CF9108951F93CF93DF93282F1B
:101B100030E0F901EF52FF4F8491F901E354FF4F98
:101B2000D491F901E755FF4FC491CC23C1F0162F92
:101B300081110E942D09EC2FF0E0EE0FFF1FEB56F4
:101B4000FF4FA591B4919FB7F894111104C08C91E7
:101B5000D095D82302C0EC91DE2BDC939FBFDF91A0
:101B6000CF911F910895CF93DF9390E0FC01E35450
:101B7000FF4F2491FC01E755FF4F8491882361F1C9
:101B800090E0880F991FFC01E557FF4FC591D49154
:101B9000FC01EB56FF4FA591B491611109C09FB7AD
:101BA000F8948881209582238883EC912E230BC0A2
:101BB000623061F49FB7F8948881322F3095832387
:101BC0008883EC912E2B2C939FBF06C08FB7F8947F
:101BD000E8812E2B28838FBFDF91CF9108953FB7E7
:101BE000F8948091920290919302A0919402B09106
:101BF000950226B5A89B05C02F3F19F00196A11D9F
:101C0000B11D3FBFBA2FA92F982F8827820F911D92
:101C1000A11DB11DBC01CD0142E0660F771F881FD9
:101C2000991F4A95D1F708952FB7F89460918E02C5
:101C300070918F0280919002909191022FBF089530
:101C4000CF92DF92EF92FF920F931F93CF93DF9388
:101C50006C017A018B01C0E0D0E0CE15DF0581F088
:101C6000D8016D918D01D601ED91FC910190F0812B
:101C7000E02DC6010995892B11F02196EECF7E014A
:101C8000C701DF91CF911F910F91FF90EF90DF90EF
:101C9000CF900895FC01538D448D252F30E0842F83
:101CA00090E0821B930B541710F0CF960895019784
:101CB0000895FC01918D828D981761F0828DDF016E
:101CC000A80FB11D5D968C91928D9F5F9F73928F2F
:101CD00090E008958FEF9FEF0895FC01918D828D24
:101CE000981731F0828DE80FF11D858D90E00895F1
:101CF0008FEF9FEF0895FC01918D228D892F90E049
:101D0000805C9F4F821B91098F739927089588E902
:101D100094E00E947B0E21E0892B09F420E0822FC1
:101D20000895FC01848DDF01A80FB11DA35ABF4F98
:101D30002C91848D90E001968F739927848FA689CA
:101D4000B7892C93A089B1898C91837080648C931E
:101D5000938D848D981306C00288F389E02D8081CD
:101D60008F7D80830895EF92FF920F931F93CF93FF
:101D7000DF93EC0181E0888F9B8D8C8D981305C0DB
:101D8000E889F989808185FD26C0F62E0B8D10E04B
:101D90000F5F1F4F0F731127E02E8C8DE8120CC0C0
:101DA0000FB607FCFACFE889F989808185FFF5CF66
:101DB000CE010E94910EF1CF8B8DFE01E80FF11D37
:101DC000E35AFF4FF0829FB7F8940B8FEA89FB89A3
:101DD000808180620AC09FB7F894EE89FF89608392
:101DE000E889F98980818370806480839FBF81E066
:101DF00090E0DF91CF911F910F91FF90EF900895A8
:101E0000CF93DF93EC01888D8823C9F0EA89FB89A1
:101E1000808185FD05C0A889B9898C9186FD0FC098
:101E20000FB607FCF5CF808185FFF2CFA889B9896D
:101E30008C9185FFEDCFCE010E94910EE7CFDF910F
:101E4000CF91089580E090E0892B29F00E94870EC1
:101E500081110C94000008950E94271B0F931F937B
:101E6000CF93DF93EC0188819981009729F02A8133
:101E70003B812617370788F48B016F5F7F4F0E94E5
:101E8000611A009761F0998388831B830A832C81F0
:101E90003D81232B11F4FC01108281E001C080E020
:101EA000DF91CF911F910F910895CF93DF931F92F0
:101EB000CDB7DEB7698341E050E0BE016F5F7F4F71
:101EC0000E947E050F90DF91CF910895EF92FF92CF
:101ED0000F931F93CF93DF936115710511F480E089
:101EE0001CC041155105C1F07B01EC018C819D8125
:101EF0008A01080F191FB801CE010E942E0F8823F6
:101F000071F3288139818C819D81B701820F931FE4
:101F10000E944D1B1D830C8381E0DF91CF911F91A7
:101F20000F91FF90EF900895CF93DF93EC0188819C
:101F30009981009711F00E94D819198218821D8288
:101F40001C821B821A82DF91CF910895EF92FF923B
:101F50000F931F93CF93DF93EC017B018A01BA01AA
:101F60000E942E0F811104C0CE010E94940F07C061
:101F70001D830C83B701888199810E944D1BCE017E
:101F8000DF91CF911F910F91FF90EF9008951F92D5
:101F90000F920FB60F9211242F933F934F935F939D
:101FA0006F937F938F939F93AF93BF93EF93FF9321
:101FB00088E994E00E94910EFF91EF91BF91AF915B
:101FC0009F918F917F916F915F914F913F912F9151
:101FD0000F900FBE0F901F9018951F920F920FB683
:101FE0000F9211242F938F939F93EF93FF93E09180
:101FF000A804F091A9048081E091AE04F091AF04AF
:1020000082FD12C090818091B1048F5F8F73209107
:10201000B204821751F0E091B104F0E0E856FB4FB2
:10202000958F8093B10401C08081FF91EF919F91C2
:102030008F912F910F900FBE0F901F901895809148
:1020400086058823A9F14091020150910301609116
:1020500004017091050126E932E080919604909187
:1020600097040E941205811102C080E008954091FA
:102070008705509188056091890570918A05411501
:1020800051056105710591F026E932E080919604D1
:10209000909197040E941205882339F310928705C6
:1020A000109288051092890510928A051092860573
:1020B00081E008958F929F92AF92BF92EF92FF922C
:1020C0000F931F93CF934B015C01C42F80910201AA
:1020D00090910301A0910401B09105018815990523
:1020E000AA05BB0501F10E941F10811102C080E00A
:1020F00020C086E9E82E82E0F82E00E012E020E021
:1021000030E0B501A40180919604909197040E945B
:102110007E04882361F38092020190920301A092D1
:102120000401B092050180918605C82BC0938605F5
:1021300081E0CF911F910F91FF90EF90BF90AF90F2
:102140009F908F9008954F925F926F927F928F929F
:102150009F92AF92BF92CF92DF92EF92FF920F9336
:102160001F93CF93DF93EC01423051056105710558
:1021700010F480E078C089859A85AB85BC8501968E
:10218000A11DB11D84179507A607B70790F3CB884B
:10219000DC88ED88FE888F89803129F4BB27A72F42
:1021A000962F852F09C0DB01CA01E7E0B695A795F8
:1021B00097958795EA95D1F7480159012A013B0186
:1021C000C80ED91EEA1EFB1E8091020190910301E8
:1021D000A0910401B0910501C816D906EA06FB06D4
:1021E00081F48F898031A9F4B301A20155276627B4
:1021F0007727440F551FFA01EA56FD4F91828082DE
:1022000019C040E0C701B6010E945A108111E9CF00
:10221000B0CFB301A2014F77552766277727440F28
:10222000551F440F551FFA01EA56FD4F80829182D7
:10223000A282B382809186058160809386058A8917
:10224000823080F08D819E81AF81B885C80ED91E05
:10225000EA1EFB1EC0928705D0928805E092890590
:10226000F0928A0581E0DF91CF911F910F91FF904D
:10227000EF90DF90CF90BF90AF909F908F907F9026
:102280006F905F904F9008958F929F92AF92BF9200
:10229000CF92DF92EF92FF920F931F93CF93DF9332
:1022A000FC0181859285A385B4850196A11DB11D90
:1022B00084179507A607B70710F480E05BC08388F2
:1022C0009488A588B6888789803129F4BB27A72FF1
:1022D000962F852F09C0DB01CA01C7E0B695A795E7
:1022E00097958795CA95D1F7E9016A017B018F011E
:1022F000BC01CD01680D791D8A1D9B1D80900201D6
:1023000090900301A0900401B09005016815790533
:102310008A059B0591F4F80187898031A1F4DD24B9
:10232000EE24FF24C601880F991FFC01EA56FD4FD9
:1023300080819181A0E0B0E018C040E00E945A1076
:102340008111E9CFBACFE894C7F8DD24EE24FF2449
:10235000C601880F991F880F991FFC01EA56FD4F8F
:1023600080819181A281B381BF7088839983AA8380
:10237000BB8381E0DF91CF911F910F91FF90EF9090
:10238000DF90CF90BF90AF909F908F9008952F9245
:102390003F924F925F926F927F928F929F92AF92F5
:1023A000BF92CF92DF92EF92FF920F931F93CF9342
:1023B000DF93CDB7DEB72B970FB6F894DEBF0FBE15
:1023C000CDBF7C01FE013196CE010C966F0130E24B
:1023D0003193E817F907E1F7DA0130E087E09D91E2
:1023E000992331F19E3231F48A3009F46BC138E01F
:1023F0008AE0F5CFE5EEF0E04491442321F03196F8
:102400009413FACF5FC1831708F45CC14FED490FF5
:102410004E3508F057C141E0430FF601E30FF11DBF
:102420003FE9390F3A3108F490529083342FD7CFD7
:102430008981803209F446C1322E8B01DB015B9623
:102440008D919C915C97F701948F838F16961D92C6
:102450001D921D921C921997FB01128613861486F9
:102460001586B12CF80182859385A485B5854389AD
:1024700054896589768984179507A607B70708F0F8
:102480005BC025E0B695A795979587952A95D1F7D6
:10249000F82FFF70AF2ED80115968C91823008F47A
:1024A00011C1C8010E947A0797FD0CC1F80182850D
:1024B0009385A485B5854F96A11DB11D828793870D
:1024C000A487B587F0E2AF9EB00111246A567D4F14
:1024D0006115710509F4F6C0DB018C91882319F0B0
:1024E000853EC1F4F1C0B1100EC0F701A28A8091FF
:1024F000020190910301A0910401B091050186872A
:102500009787A08BB18BDB018C91882399F0BB243A
:10251000B394A8CF4BE050E0C6010E942C1B892B3E
:1025200009F0A0CF832D8073803309F4CBC0432DF5
:102530006A2DC4C0BB24B394832D8271823109F00B
:10254000C1C0BB20C1F0F70166857785808991897C
:1025500041E00E945A10882309F4B4C0D701529672
:102560008C91B0E28B9FC00111248A569D4F009739
:1025700009F078C0A7C0F8018581823009F4A2C0B3
:10258000C8010E94C302882309F49CC0D8015B964D
:10259000ED91FC915C9716968D909D90AD90BC90BE
:1025A0001997B2E08B1A9108A108B108058404C0FC
:1025B000880C991CAA1CBB1C0A94D2F786859785A7
:1025C000A089B189880E991EAA1EBB1E2480E1E055
:1025D0008E1A9108A108B108222009F124013501C1
:1025E000420C511C611C711C0E941F10882309F4AD
:1025F00069C0E6E9F2E0119224E0E639F207D9F782
:102600004092020150920301609204017092050110
:10261000809186058160809386052A94DDCFD8015C
:102620005B96ED91FC915C9780E092E0A0E0B0E0D9
:10263000058404C0880F991FAA1FBB1F0A94D2F7F4
:10264000F8014389548965897689840F951FA61FEF
:10265000B71F838B948BA58BB68BD70152961C9298
:1026600086E992E020E2FC0111922A95E9F72BE03D
:10267000F601DC0101900D922A95E1F721E238E2A2
:10268000DC0151963C932E93509740E058E01F9602
:102690005C934E931E9753963C932E935297599664
:1026A0003C932E93589757965C934E9356970E945F
:1026B0001F10882339F0432DF7016289C7010E945A
:1026C000BA0105C080E003C0B11021CF0ECF2B9618
:1026D0000FB6F894DEBF0FBECDBFDF91CF911F9133
:1026E0000F91FF90EF90DF90CF90BF90AF909F90B1
:1026F0008F907F906F905F904F903F902F900895B4
:102700001F920F920FB60F9211242F933F938F9326
:102710009F93AF93BF9380918E0290918F02A0916F
:102720009002B091910230918B0523E0230F2D3759
:1027300020F40196A11DB11D05C026E8230F0296C5
:10274000A11DB11D20938B0580938E0290938F0263
:10275000A0939002B0939102809192029091930283
:10276000A0919402B09195020196A11DB11D809394
:10277000920290939302A0939402B0939502BF911A
:10278000AF919F918F913F912F910F900FBE0F901E
:102790001F901895CF93DF93CDB7DEB7C254D10900
:1027A0000FB6F894DEBF0FBECDBF789484B58260BB
:1027B00084BD84B5816084BD85B5826085BD85B5E5
:1027C000816085BD80916E00816080936E00109263
:1027D00081008091810082608093810080918100DE
:1027E000816080938100809180008160809380006F
:1027F0008091B10084608093B1008091B0008160CD
:102800008093B00080917A00846080937A008091F8
:102810007A00826080937A0080917A008160809350
:102820007A0080917A00806880937A001092C100CB
:10283000E091A804F091A90482E08083E091A404CF
:10284000F091A5041082E091A604F091A7048FEC0A
:1028500080831092B004E091AC04F091AD0486E066
:102860008083E091AA04F091AB0480818061808331
:10287000E091AA04F091AB04808188608083E091AC
:10288000AA04F091AB04808180688083E091AA045F
:10289000F091AB0480818F7D808388E491E00E9479
:1028A0009A0B80916605882321F081E695E00E94CD
:1028B000B702109242051092400510923D05109209
:1028C0003C058AE080933B050E94140E8B0161E079
:1028D00080913B050E94B30D61E080913B050E9411
:1028E000840DFFB6F89480918802811127C0E3EB34
:1028F000F0E08491E7ECF0E09491E82FF0E0EE0F47
:10290000FF1FE557FF4FA591B491EC91E92321F406
:1029100061E08AE00E94840D61E08AE00E94B30DCC
:102920008CB580618CBD8CB580648CBD61E08DE020
:102930000E94B30D61E08BE00E94B30D809188028C
:102940008F5F80938802FFBE82E5809335051092E9
:10295000360580913505909136050E9416047AE07F
:10296000F72E8FEF0E94D703FA94F110FACF87E386
:1029700095E00E94190420E030E0A90160E087E3BF
:1029800095E00E942F04F82E8093410521E08217E4
:1029900049F00E94140E601B710B613D774058F3A3
:1029A00081E056C02AEA31E040E050E068E087E389
:1029B00095E00E942F0482FF03C0F092420510C0F0
:1029C00064E0F62E0E94DE0380934105FA94F11034
:1029D000F9CF8A3A11F082E03BC082E08093420551
:1029E00080914205823021F0C12CD12C760105C0A6
:1029F000C12CD12CE12C50E4F52E20E030E0A901CF
:102A000067E387E395E00E942F04A701960169E23E
:102A100087E395E00E942F0480934105882349F0C5
:102A20000E94140E601B710B613D774030F388E00B
:102A30000FC080914205823001F520E030E0A9010D
:102A40006AE387E395E00E942F04882341F086E043
:102A500080933C0587E395E00E94CC0328C00E9448
:102A6000DE03807C803C19F483E0809342050E9461
:102A7000DE030E94DE030E94DE0387E395E00E94EE
:102A8000CC0380E5809335051092360581E00E94E5
:102A90002D0C882339F081E695E00E94440A8823B2
:102AA00031F00AC080E00E942D0C8111F4CF80E645
:102AB00091E00E94AC0BFFCF8CE791E00E94AC0B41
:102AC00041E06EE871E08E010F5F1F4FC8010E9468
:102AD000980AEA8DFB8D309799F08581E12CF12CD5
:102AE000882381F0C8010E94A700892B59F0C801F2
:102AF0000E9463088D30B1F7FFEFEF1AFF0AF2CFA3
:102B0000E12CF12CC8010E94BC09F0928B02E092EA
:102B10008A0260E085E00E94B30D60E086E00E94DA
:102B2000B30D60E084E00E94B30D88E991E00E945B
:102B30009A0B80918A0290918B020E94FB0B8091EC
:102B40000001909101010E949708F82E89EA91E016
:102B50000E949A0B6F2D70E080E090E04AE00E94A6
:102B6000BA0B8BEA91E00E949A0B85E00E945B0D04
:102B70008130910591F42091000130910101409143
:102B80008A0250918B0224173507B9F02F5F3F4F0F
:102B900030930101209300011FC086E00E945B0D6D
:102BA000019791F48091000190910101813091058C
:102BB00049F480918A0290918B0290930101809355
:102BC00000010AC00197F9CF84E00E945B0D0197D4
:102BD00061F681E08093890280918902882309F45B
:102BE000ECC18EEA91E00E949A0B809100019091D5
:102BF00001010E94970885EB91E00E94AC0B809147
:102C00000001909101010E949708882329F086EC29
:102C100091E00E94AC0BCFC182EE91E00E949A0B32
:102C2000E12CF12CAA24A394B12C41E06EE871E0D0
:102C3000C8010E94980AC12CD12CC8010E94A7008B
:102C4000892B49F4EA8DFB8D309789F042855385B5
:102C5000648575850FC0C8010E9463088D3069F7CF
:102C60002FEFC21AD20AAC14BD0439F7EBCF4FEFE5
:102C70005FEFBA014550510961097109C8010E940D
:102C8000CE09C12CD12CC8010E94A700892B01F1CB
:102C9000C8010E946308282F082E000C330B205314
:102CA00031092A30310558F4ECE1F0E0EC0FFD1F5A
:102CB000EC0DFD1D80838FEFC81AD80AE4CF8D304C
:102CC00011F7ECE1F0E0EC0FFD1FEC0DFD1D1082A3
:102CD000CE014C960E946C18D82EC8010E94BC09E7
:102CE000DD2019F0EFEFEE1AFE0A80918A02909132
:102CF0008B02A816B906B1F4FFEFEF1AFF0AC7015D
:102D00000E94FB0BA0900001B090010141E06EE831
:102D100071E0CE014C960E94980AEDA9FEA9309769
:102D200051F445C12FEFA21AB20A6EE288E994E08D
:102D30000E94B30E7ACF8581882309F438C1C12C53
:102D4000D12CCE014C960E94A700892B09F42FC1EB
:102D5000CE014C960E9463088D3009F057C18FEF69
:102D6000C81AD80AEDA9FEA9AC14BD0409F0C8C060
:102D7000309729F0428453846484758404C04424C9
:102D80004A94542C3201CE014C960E94BC0947E172
:102D900069EF71E0C8010E94980AB801CE014C9613
:102DA0000E948B0918AE1FAA1AAE19AE1CAE1BAE3C
:102DB0004AE0B801C7010E948A18F801019000207A
:102DC000E9F73197AF01401B510BB801CE01C7960F
:102DD0000E94A60F1A8219821C821B821E821D82EB
:102DE00041E050E064E072E0C8010E94A60F4BADE4
:102DF0005CAD6FA978ADC8010E94660F811103C058
:102E0000C8010E94940F1EAE1DAE21961FAE1EAECD
:102E1000219723961FAE1EAE239769817A81611593
:102E2000710531F04D815E81CE01CD960E94A60FD5
:102E300089819A810E94D8198FA998AD0E94D819CA
:102E400023964EAD5FAD23976DAD7EAD80E895E0E6
:102E50000E94660F86E092E00E94AC0BEDA9FEA9ED
:102E6000309791F08581882379F0409184055091C5
:102E700085056091800570918105CE014C960E9478
:102E80000D0783E192E002C080E292E00E94AC0B69
:102E9000CE014C960E94BC0941E06EE871E0C80189
:102EA0000E94980AB801CE014C960E948B09B3018A
:102EB000A201CE014C960E94CE0928E6622E20E0A7
:102EC000722EF3016491611111C08BEA91E00E94AE
:102ED0009A0B40E050E06DEA71E080E895E00E94D6
:102EE000A60F8DAD9EAD0E94D8192BCF88E994E036
:102EF0000E94B30EFFEF6F1A7F0A892B11F7E5CFFF
:102F0000309729F0428453846484758404C0442437
:102F10004A94542C3201CE014C960E94BC0947E1E0
:102F200069EF71E0C8010E94980AB801CE014C9681
:102F30000E948B09EDA9FEA93097D9F085818823DD
:102F4000C1F0409184055091850560918005709194
:102F50008105CE014C960E940D076DE0CE014C9686
:102F60000E94C800CE014C960E94BC0983E592E005
:102F700002C08DE692E00E94AC0B41E06EE871E089
:102F8000C8010E94980AB801CE014C960E948B0994
:102F9000B301A201CE014C960E94CE0940E050E060
:102FA0006DEA71E080E895E00E94A60FCACECE01DE
:102FB0004C960E94BC09109289020E94EF0D2B01D1
:102FC0003C0184EBC82ED12CE12CF12C0E94EF0D9A
:102FD000DC01CB0184199509A609B709883E934005
:102FE000A105B10598F321E0C21AD108E108F10862
:102FF00088EE480E83E0581E611C711CC114D10478
:10300000E104F10419F70E94220F99CD89831A82F5
:1030100041E050E0B80180E895E00E94660F91CE53
:1030200080918005909181050C94D819E8E9F4E02D
:103030001382128288EE93E0A0E0B0E0848395834F
:10304000A683B78382E291E09183808385EC90E050
:103050009587848784EC90E09787868780EC90E062
:10306000918B808B81EC90E0938B828B82EC90E053
:10307000958B848B86EC90E0978B868B118E128ECD
:10308000138E148EE5E3F5E080E580831182E7E39B
:10309000F5E0158216821186138682E090E0A0E0AA
:1030A000B0E084879587A687B78713A215A614A6D4
:1030B00084E391E093A782A717A6E0E8F5E01182E8
:1030C0001082138212821582148240E050E06DEA71
:1030D00071E0CF010C94A60FFC0188279927E89492
:1030E00021912032E9F3293010F02E30C8F32B3231
:1030F00041F02D3239F4689404C00E949518820F73
:10310000911D219120532A30C0F31EF49095819592
:103110009F4F0895BB274A3031F4992322F4BDE232
:10312000909581959F4F0C949E187AE0979F902DD3
:10313000879F802D910D11240895BB27FB015527F2
:10314000AA27880F991FAA1FA41710F0A41B839504
:103150005051B9F7A05DAA3308F0A95DA19300977B
:1031600079F7B111B1931192CB010C94B718DC012E
:10317000FC01672F71917723E1F7329704C07C91AE
:103180006D9370836291AE17BF07C8F308950E94D4
:103190000919A59F900DB49F900DA49F800D911DBE
:1031A000112408952F923F924F925F926F927F92D7
:1031B0008F929F92AF92BF92CF92DF92EF92FF9247
:1031C0000F931F93CF93DF93CDB7DEB7CA1BDB0BF3
:1031D0000FB6F894DEBF0FBECDBF09942A88398898
:1031E00048885F846E847D848C849B84AA84B9849F
:1031F000C884DF80EE80FD800C811B81AA81B981AB
:10320000CE0FD11D0FB6F894DEBF0FBECDBFED01BE
:103210000895A29FB001B39FC001A39F700D811DAF
:103220001124911DB29F700D811D1124911D0895CF
:10323000A1E21A2EAA1BBB1BFD010DC0AA1FBB1FBA
:10324000EE1FFF1FA217B307E407F50720F0A21B2C
:10325000B30BE40BF50B661F771F881F991F1A9499
:1032600069F760957095809590959B01AC01BD01C3
:10327000CF010895EE0FFF1F0590F491E02D099402
:103280000F931F93CF93DF938230910510F482E068
:1032900090E0E0918E05F0918F0520E030E0A0E015
:1032A000B0E0309719F140815181028113814817B4
:1032B0005907C8F08417950769F4109731F01296F2
:1032C0000C93129713961C9327C000938E051093AE
:1032D0008F0522C02115310519F04217530718F444
:1032E0009A01BD01EF01DF01F801DBCF21153105A6
:1032F000F9F0281B390B2430310580F48A819B8139
:103300006115710521F0FB019383828304C09093C2
:103310008F0580938E05FE01329644C0FE01E20FB8
:10332000F31F8193919322503109398328833AC046
:1033300020918C0530918D05232B41F420910801BB
:103340003091090130938D0520938C052091060161
:10335000309107012115310541F42DB73EB7409159
:103360000A0150910B01241B350BE0918C05F09163
:103370008D05E217F307A0F42E1B3F0B2817390722
:1033800078F0AC014E5F5F4F2417350748F04E0FC1
:103390005F1F50938D0540938C058193919302C0DC
:1033A000E0E0F0E0CF01DF91CF911F910F91089500
:1033B000CF93DF93009709F481C0FC013297138209
:1033C0001282A0918E05B0918F05109781F4208113
:1033D0003181820F931F20918C0530918D05281724
:1033E000390751F5F0938D05E0938C0567C0ED0129
:1033F00020E030E0CE17DF0740F44A815B819E0178
:1034000041155105F1F0EA01F5CFD383C283408124
:103410005181840F951FC817D90759F48881998164
:10342000840F951F0296918380838A819B81938369
:1034300082832115310529F4F0938F05E0938E05E1
:103440003DC0E901FB83EA8349915991C40FD51F1F
:10345000EC17FD0761F480819181840F951F02961E
:10346000E90199838883828193819B838A83E0E049
:10347000F0E012968D919C911397009719F0FD0141
:10348000DC01F7CF8D919C9111979D012E5F3F4FED
:10349000820F931F20918C0530918D0528173907D5
:1034A00069F4309729F410928F0510928E0502C0AE
:1034B00013821282B0938D05A0938C05DF91CF917A
:1034C0000895A0E0B0E0E7E6FAE10C94D618EC012C
:1034D000009721F4CB010E944019B4C0FC01E60F13
:1034E000F71F9C0122503109E217F30708F4A8C026
:1034F000D9010D911C91119706171707B0F00530EF
:10350000110508F49BC0C80104978617970708F4B3
:1035100095C002501109061B170B019311936D936F
:103520007C93CF010E94D81989C05B01A01AB10A0F
:103530004C01800E911EA0918E05B0918F05612CDB
:10354000712CE12CF12C109709F446C08D919C91BF
:103550001197A815B905B1F56C0142E0C40ED11C54
:10356000CA14DB0478F14C018A189B08640142E01C
:10357000C40ED11C1296BC9012971396AC91B5E074
:10358000CB16D10440F0B282A38391828082D9010C
:103590006D937C9309C00E5F1F4F800F911FF9013F
:1035A00091838083EB2DFA2FE114F10431F0D701E0
:1035B0001396FC93EE93129741C0F0938F05E0931E
:1035C0008E053CC06816790608F43C017D01129610
:1035D0000D90BC91A02DB7CF80918C0590918D0559
:1035E00088169906E1F466167706C8F480910601FC
:1035F00090910701009741F48DB79EB740910A0161
:1036000050910B01841B950BE817F907C8F4F09350
:103610008D05E0938C05F901718360830FC0CB01A8
:103620000E9440197C01009759F0A801BE010E9438
:10363000391BCE010E94D819C70104C0CE0102C0B7
:1036400080E090E0CDB7DEB7EEE00C94F21881E0B8
:1036500090E0F8940C94631BFB01DC0104C08D9195
:103660000190801921F441505040C8F7881B990BF4
:103670000895FB01DC0102C001900D9241505040C1
:10368000D8F70895FC018191861721F08823D9F796
:10369000992708953197CF010895FB01DC0101902E
:1036A0000D920020E1F70895FB01DC0141505040EC
:1036B00048F001900D920020C9F701C01D924150C1
:1036C0005040E0F7089510E0CCE7D0E004C0FE01E0
:1036D0000E943A192196CD37D107C9F7F894FFCF48
:1036E0000100FFFFFFFF00009005800000000000C8
:1036F000C8000D07DF001B01A70063086D0800006C
:103700000000B30E200E4A0E000F7B0E590E6D0EF8
:1037100000000000550F200EDF00DE00000000005A
:103720002C0F200EDF00DE00496E697469616C6940
:103730007A696E6720534420636172642E2E2E00D6
:1037400043617264206661696C65642C206F72202D
:103750006E6F742070726573656E7400636172645D
:1037600020696E697469616C697A65642E006C69A0
:103770007374612E747874002D2D2D2D2D3E3E3ED8
:10378000204445425547203A2020000D0A00616C34
:10379000756E6F200020666F692073656C656369C4
:1037A0006F6E61646F00616C756E6F206A6120746A
:1037B000656D20756D612069642070617261207390
:1037C000690053657261206361646173747261643E
:1037D0006F206E6F20494420006C69737461322E33
:1037E0007478740023006573746F75206171756956
:1037F0002031006573746F75206171756920320026
:103800006E616F20636F6E736567756975206162A5
:10381000726972206F206172717569766F206465BC
:1038200020746578746F206C69737461322E7478BB
:103830007420005052494E5441444F204E4F204175
:1038400052515549564F204E4F564F2E00657272B9
:103850006F72206F70656E696E67204C49535441DA
:08386000322E747874002F0071
:00000001FF
