:100000000C946B000C9493000C9493000C9493004C
:100010000C9493000C9493000C9493000C94930014
:100020000C9493000C9493000C9493000C94930004
:100030000C9493000C9493000C9493000C949300F4
:100040000C94EA080C9493000C94ED010C94C701F5
:100050000C9493000C9493000C9493000C949300D4
:100060000C9493000C9493007C3C3E5E2B3D3F2F00
:100070005B5D3B2C2A225C0000000000240027006E
:100080002A0000000000250028002B0000000000CE
:1000900023002600290004040404040404040202CA
:1000A00002020202030303030303010204081020F7
:1000B0004080010204081020010204081020000002
:1000C0000008000201000003040700000000000017
:1000D00000003717D21711241FBECFEFD8E0DEBFC4
:1000E000CDBF25E0AEE4B2E001C01D92A635B20757
:1000F000E1F712E0A0E0B1E0EEE4F5E302C0059024
:100100000D92AE34B107D9F710E0CAE6D0E004C0D2
:100110002197FE010E947118C936D107C9F70E94C4
:1001200069130C949A1A0C940000FC01538D448DB1
:10013000252F30E0842F90E0821B930B541710F092
:10014000CF96089501970895FC01918D828D98179F
:1001500061F0828DDF01A80FB11D5D968C91928DAB
:100160009F5F9F73928F90E008958FEF9FEF0895A8
:10017000FC01918D828D981731F0828DE80FF11D71
:10018000858D90E008958FEF9FEF0895FC01918D8C
:10019000228D892F90E0805C9F4F821B91098F7385
:1001A0009927089582E694E00E94C60021E0892BF9
:1001B00009F420E0822F0895FC01848DDF01A80F4F
:1001C000B11DA35ABF4F2C91848D90E001968F737F
:1001D0009927848FA689B7892C93A089B1898C919E
:1001E000837080648C93938D848D981306C00288ED
:1001F000F389E02D80818F7D80830895EF92FF92B7
:100200000F931F93CF93DF93EC0181E0888F9B8D39
:100210008C8D981305C0E889F989808185FD26C0F9
:10022000F62E0B8D10E00F5F1F4F0F731127E02E7E
:100230008C8DE8120CC00FB607FCFACFE889F9895B
:10024000808185FFF5CFCE010E94DC00F1CF8B8D40
:10025000FE01E80FF11DE35AFF4FF0829FB7F894BB
:100260000B8FEA89FB89808180620AC09FB7F8946E
:10027000EE89FF896083E889F989808183708064D1
:1002800080839FBF81E090E0DF91CF911F910F911C
:10029000FF90EF900895CF93DF93EC01888D882332
:1002A000C9F0EA89FB89808185FD05C0A889B989E3
:1002B0008C9186FD0FC00FB607FCF5CF808185FFBE
:1002C000F2CFA889B9898C9185FFEDCFCE010E942C
:1002D000DC00E7CFDF91CF91089580E090E0892B9B
:1002E00029F00E94D20081110C94000008958091A1
:1002F0004E028823A9F140910001509101016091C3
:1003000002017091030120E632E080916004909137
:1003100061040E94F910811102C080E008954091AB
:100320004F0250915002609151027091520241155A
:1003300051056105710591F020E632E0809160047D
:10034000909161040E94F910882339F310924F02B2
:1003500010925002109251021092520210924E02CC
:1003600081E008956115710579F0FB01019000208D
:10037000E9F73197AF01461B570BDC01ED91FC917A
:100380000280F381E02D099480E090E008951F92AF
:100390000F920FB60F9211242F933F934F935F93B9
:1003A0006F937F938F939F93AF93BF93EF93FF933D
:1003B00082E694E00E94DC00FF91EF91BF91AF9143
:1003C0009F918F917F916F915F914F913F912F916D
:1003D0000F900FBE0F901F9018951F920F920FB69F
:1003E0000F9211242F938F939F93EF93FF93E0919C
:1003F0007204F09173048081E0917804F0917904A3
:1004000082FD12C0908180917B048F5F8F73209159
:100410007C04821751F0E0917B04F0E0EE59FB4F31
:10042000958F80937B0401C08081FF91EF919F9114
:100430008F912F910F900FBE0F901F9018958F9254
:100440009F92AF92BF92EF92FF920F931F93CF9321
:100450004B015C01C42F8091000190910101A0919A
:100460000201B091030188159905AA05BB0501F1A8
:100470000E947701811102C080E020C080E6E82E52
:1004800082E0F82E00E012E020E030E0B501A401A7
:1004900080916004909161040E946510882361F34B
:1004A0008092000190920101A0920201B09203019A
:1004B00080914E02C82BC0934E0281E0CF911F91D4
:1004C0000F91FF90EF90BF90AF909F908F90089505
:1004D0004F925F926F927F928F929F92AF92BF9254
:1004E000CF92DF92EF92FF920F931F93CF93DF9300
:1004F000EC01423051056105710510F480E078C0CF
:1005000089859A85AB85BC850196A11DB11D84178F
:100510009507A607B70790F3CB88DC88ED88FE889F
:100520008F89803129F4BB27A72F962F852F09C0EB
:10053000DB01CA01E7E0B695A79597958795EA95FF
:10054000D1F7480159012A013B01C80ED91EEA1E04
:10055000FB1E8091000190910101A0910201B091D8
:100560000301C816D906EA06FB0681F48F8980319B
:10057000A9F4B301A201552766277727440F551F19
:10058000FA01E05AFD4F9182808219C040E0C70114
:10059000B6010E941F028111E9CFB0CFB301A201C1
:1005A0004F77552766277727440F551F440F551F50
:1005B000FA01E05AFD4F80829182A282B38280913B
:1005C0004E02816080934E028A89823080F08D8154
:1005D0009E81AF81B885C80ED91EEA1EFB1EC0924F
:1005E0004F02D0925002E0925102F092520281E00A
:1005F000DF91CF911F910F91FF90EF90DF90CF90FF
:10060000BF90AF909F908F907F906F905F904F9032
:1006100008958F929F92AF92BF92CF92DF92EF9206
:10062000FF920F931F93CF93DF93FC0181859285F7
:10063000A385B4850196A11DB11D84179507A60752
:10064000B70710F480E05BC083889488A588B688DB
:100650008789803129F4BB27A72F962F852F09C0C2
:10066000DB01CA01C7E0B695A79597958795CA950E
:10067000D1F7E9016A017B018F01BC01CD01680D51
:10068000791D8A1D9B1D8090000190900101A09012
:100690000201B0900301681579058A059B0591F464
:1006A000F80187898031A1F4DD24EE24FF24C601FE
:1006B000880F991FFC01E05AFD4F80819181A0E0D5
:1006C000B0E018C040E00E941F028111E9CFBACF0C
:1006D000E894C7F8DD24EE24FF24C601880F991F93
:1006E000880F991FFC01E05AFD4F80819181A28102
:1006F000B381BF7088839983AA83BB8381E0DF9134
:10070000CF911F910F91FF90EF90DF90CF90BF900E
:10071000AF909F908F900895CF93DF93EC018D81E0
:10072000882379F18C8187FF28C06E857F85888931
:10073000998941E00E941F02882319F1EA8980E229
:10074000E89FF0011124E05AFD4F3097D1F08D81E0
:10075000823040F48B899C89AD89BE89848F958FC6
:10076000A68FB78F8F89988DA98DBA8D938F828F21
:10077000B58BA48B8C818F778C83DF91CF910C9478
:10078000770180E0DF91CF9108958F929F92AF9291
:10079000BF92CF92DF92EF92FF920F931F93CF936E
:1007A000DF93EC018D81811102C080E078C00B895C
:1007B0001C892D893E890417150726073707A8F3DA
:1007C0006A017B01823029F4CA86DB86EC86FD86CD
:1007D0000DC0C114D104E104F10451F41E821F8242
:1007E000188619861A861B861C861D8681E057C0CE
:1007F0008A849B84AC84BD84EB8DFC8D258530E0A0
:10080000275F3F4FB501A4014150510961097109AA
:10081000022E04C076956795579547950A94D2F7AE
:10082000D701C6010197A109B10904C0B695A795E2
:10083000979587952A95D2F784179507A607B70746
:1008400020F089288A288B2871F44F89588D698D6A
:100850007A8D4E835F83688779874C015D018E01B5
:100860000A5F1F4F16C0841B950BA60BB70BF5CF65
:100870004E815F816885798598018B8D9C8D0E9462
:10088000090391E0891A9108A108B108882309F4A5
:100890008CCF81149104A104B10451F795CFDF915D
:1008A000CF911F910F91FF90EF90DF90CF90BF906D
:1008B000AF909F908F9008952F923F924F925F92AA
:1008C0006F927F928F929F92AF92BF92CF92DF9260
:1008D000EF92FF920F931F93CF93DF9300D000D03E
:1008E000CDB7DEB78C015B011A01DC0115968C9146
:1008F00015978130C9F414968C9181FF15C082FF41
:100900001DC0F8014389548965897689828593855C
:10091000A485B58584179507A607B70779F0C801A0
:100920000E94C50381110AC081E090E0D8011396AE
:100930009C938E93129780E090E036C1610183C052
:100940005B968D919C915C97FC0174802FEF270D35
:100950002A013B0139E076946794579447943A957D
:10096000D1F7722E74207A01F1E0FF22772009F48A
:1009700076C080E092E08E199F0946018C159D0596
:1009800008F44C01D8015B962D913C915C9716962A
:100990008D919D910D90BC91A02D0297A109B10957
:1009A000F901058404C0880F991FAA1FBB1F0A9470
:1009B000D2F74685578560897189840F951FA61FD8
:1009C000B71F9C01AD01270D311D411D511D29018E
:1009D0003A01811432E0930609F088C08091000149
:1009E00090910101A0910201B091030148165906AE
:1009F0006A067B0659F48FEF9FEFDC0180930001BC
:100A000090930101A0930201B09303019501B301FA
:100A1000A20180916004909161040E94F9108823E2
:100A200009F482CF9EEFB91AC818D908F801828557
:100A30009385A485B585880D991DA11DB11D82875B
:100A40009387A487B587D8011A964D915D916D91D2
:100A50007C911D97C114D10409F072CF87C0E114B5
:100A6000F10409F086CF16964D915D916D917C91C0
:100A70001997411551056105710559F457968D91E6
:100A80009D910D90BC91A02D0097A105B10541F558
:100A900021C09E012F5F3F4F0E940903882309F464
:100AA0004BCF89819A81AB81BC81F801238D348D34
:100AB000F9012789203129F048EF5FEF6FEF7FE0E0
:100AC00004C048EF5FEF60E070E084179507A60769
:100AD000B70730F0C8010E94AA0E81114ACF24CF77
:100AE000F80186839783A087B18743CFE114F1048F
:100AF00029F5D8011A964D915D916D917C911D97C4
:100B000053968D919D910D90BC91A02D481759073A
:100B10006A077B0798F00E947701882309F404CFC5
:100B20004092000150920101609202017092030113
:100B300080914E02816080934E0208C041E0C30163
:100B4000B2010E941F02882309F4EECED501F701FD
:100B5000E05AFD4F9F01280D391D2E173F0719F050
:100B60008D918193FACFA80CB91C5ECFF8018389CF
:100B70009489A589B68984179507A607B70738F41D
:100B8000438B548B658B768B848180688483F801DA
:100B9000848183FD02C0C10107C0C8010E948C038B
:100BA000882309F4C1CEF7CF0F900F900F900F90CC
:100BB000DF91CF911F910F91FF90EF90DF90CF9039
:100BC000BF90AF909F908F907F906F905F904F906D
:100BD0003F902F900895CF93DF931F92CDB7DEB74C
:100BE000698341E050E0BE016F5F7F4F0E945C046B
:100BF0000F90DF91CF9108958F929F92AF92BF9205
:100C0000CF92DF92EF92FF920F931F93CF93DF93D8
:100C100000D000D0CDB7DEB77C0180E2689FF00144
:100C20001124E05AFD4F9385917121F0842F827435
:100C300009F08FC0142FD70152966C9352974091B0
:100C400000015091010160910201709103011E9613
:100C50004D935D936D937C9351974489558960E0E2
:100C600070E0BA0155274427828D938DA0E0B0E053
:100C7000482B592B6A2B7B2BD70157964D935D93AD
:100C80006D937C935A978385887159F4848D958DE3
:100C9000A68DB78DF701838B948BA58BB68B81E0E6
:100CA00012C0803109F055C097012D5E3F4FD7012A
:100CB0005B968D919C915C970E940F0A882309F4A2
:100CC00048C084E0F7018583812F8F70D701149687
:100CD0008C931497F70116821782108611861A9644
:100CE0001D921D921D921C921D9716FF34C01596E1
:100CF0008C91813071F511FF2CC0F7014389548923
:100D000065897689452B462B472B09F461C040E065
:100D100050E0BA01C7010E94C5038823D1F0F70152
:100D20008788908CA18CB28CC38CD48C82E090E0AC
:100D3000A0E0B0E0F60180839183A283B3839E019B
:100D40002F5F3F4FB501A401C6010E940903811125
:100D500004C080E03DC081E03BC000E010E09801AD
:100D6000B501A401C6010E946802882391F389801D
:100D70009A80AB80BC80D60157968C91803129F047
:100D800088EF9FEFAFEFBFE004C088EF9FEFA0E0D8
:100D9000B0E088169906AA06BB0688F2D7015796D6
:100DA0001D921D921D921C925A97F701138A148A64
:100DB000158A168A848180688483C7010E948C0307
:100DC000882339F240E050E0BA01C7010E94C50310
:100DD0000F900F900F900F90DF91CF911F910F9177
:100DE000FF90EF90DF90CF90BF90AF909F908F904B
:100DF00008952F923F924F925F926F927F928F92BF
:100E00009F92AF92BF92CF92DF92EF92FF920F9399
:100E10001F93CF93DF93CDB7DEB72B970FB6F89420
:100E2000DEBF0FBECDBF7C01FE013196CE010C9618
:100E30006F0130E23193E817F907E1F7DA0130E0AA
:100E400087E09D91992331F19E3231F48A3009F483
:100E50006BC138E08AE0F5CFE8E6F0E04491442346
:100E600021F031969413FACF5FC1831708F45CC167
:100E70004FED490F4E3508F057C141E0430FF601E1
:100E8000E30FF11D3FE9390F3A3108F49052908396
:100E9000342FD7CF8981803209F446C1322E8B019D
:100EA000DB015B968D919C915C97F701948F838F0A
:100EB00016961D921D921D921C921997FB01128687
:100EC000138614861586B12CF80182859385A48536
:100ED000B585438954896589768984179507A6075E
:100EE000B70708F05BC025E0B695A795979587955D
:100EF0002A95D1F7F82FFF70AF2ED80115968C9157
:100F0000823008F411C1C8010E94B61197FD0CC1CE
:100F1000F80182859385A485B5854F96A11DB11DE5
:100F200082879387A487B587F0E2AF9EB001112432
:100F3000605A7D4F6115710509F4F6C0DB018C9193
:100F4000882319F0853EC1F4F1C0B1100EC0F7013D
:100F5000A28A8091000190910101A0910201B091BB
:100F6000030186879787A08BB18BDB018C91882347
:100F700099F0BB24B394A8CF4BE050E0C6010E9487
:100F8000631A892B09F0A0CF832D8073803309F475
:100F9000CBC0432D6A2DC4C0BB24B394832D827172
:100FA000823109F0C1C0BB20C1F0F70166857785A9
:100FB0008089918941E00E941F02882309F4B4C00E
:100FC000D70152968C91B0E28B9FC0011124805AB8
:100FD0009D4F009709F078C0A7C0F8018581823045
:100FE00009F4A2C0C8010E94AA0E882309F49CC07B
:100FF000D8015B96ED91FC915C9716968D909D9033
:10100000AD90BC901997B2E08B1A9108A108B10875
:10101000058404C0880C991CAA1CBB1C0A94D2F736
:1010200086859785A089B189880E991EAA1EBB1E48
:101030002480E1E08E1A9108A108B108222009F16C
:1010400024013501420C511C611C711C0E94770166
:10105000882309F469C0E0E6F2E0119224E0E0366A
:10106000F207D9F74092000150920101609202010B
:101070007092030180914E02816080934E022A9407
:10108000DDCFD8015B96ED91FC915C9780E092E01A
:10109000A0E0B0E0058404C0880F991FAA1FBB1F01
:1010A0000A94D2F7F8014389548965897689840FB7
:1010B000951FA61FB71F838B948BA58BB68BD7016B
:1010C00052961C9280E692E020E2FC0111922A9551
:1010D000E9F72BE0F601DC0101900D922A95E1F78A
:1010E00021E238E2DC0151963C932E93509740E088
:1010F00058E01F965C934E931E9753963C932E9305
:10110000529759963C932E93589757965C934E93CB
:1011100056970E947701882339F0432DF7016289A1
:10112000C7010E94FC0505C080E003C0B11021CFBB
:101130000ECF2B960FB6F894DEBF0FBECDBFDF915A
:10114000CF911F910F91FF90EF90DF90CF90BF90C4
:10115000AF909F908F907F906F905F904F903F9057
:101160002F900895CF93DF93EC010E948C03882386
:1011700011F01D8281E0DF91CF910895CF92DF922F
:10118000EF92FF920F931F93CF93DF936C017A013D
:101190008B01C0E0D0E0CE15DF0581F0D8016D9164
:1011A0008D01D601ED91FC910190F081E02DC601F9
:1011B0000995892B11F02196EECF7E01C701DF91B1
:1011C000CF911F910F91FF90EF90DF90CF900895F6
:1011D0000E945E1A1F920F920FB60F9211242F9346
:1011E0003F938F939F93AF93BF93809158029091B9
:1011F0005902A0915A02B0915B023091570223E04C
:10120000230F2D3720F40196A11DB11D05C026E83E
:10121000230F0296A11DB11D2093570280935802FF
:1012200090935902A0935A02B0935B0280915C02A2
:1012300090915D02A0915E02B0915F020196A11DA6
:10124000B11D80935C0290935D02A0935E02B09307
:101250005F02BF91AF919F918F913F912F910F901E
:101260000FBE0F901F901895833081F028F48130C5
:1012700099F08230A1F008958730A9F08830B9F054
:101280008430D1F4809180008F7D03C080918000F4
:101290008F7780938000089584B58F7702C084B5DE
:1012A0008F7D84BD08958091B0008F7703C08091B9
:1012B000B0008F7D8093B0000895EF92FF920F935E
:1012C0001F93CF93DF93EC017B018A011B821A826B
:1012D00088EE93E0A0E0B0E08C839D83AE83BF8373
:1012E00080E191E0998388838DE190E00E947718F6
:1012F0009A8F898F009779F02DE1F701DC01019039
:101300000D922A95E1F74CE050E0B801CE010C9621
:101310000E948B1A188EDF91CF911F910F91FF9031
:10132000EF900895CF93DF93FB0122813381DC019D
:1013300013963C932E931297448155816681778151
:1013400014964D935D936D937C93179740855185CB
:101350006285738518964D935D936D937C931B976F
:101360001C96EF012C969C01275E3F4F49914D93AF
:10137000A217B307D9F7218D328DFC01328F218F4F
:10138000DF91CF910895CF93DF93EC0180914A05CF
:1013900090914B05009739F020914C0530914D0507
:1013A0002C173D07B8F4BE016F5F7F4F0E9498195C
:1013B000009791F090934B0580934A05D0934D058B
:1013C000C0934C0520914E0530914F05232B11F40D
:1013D000FC01108281E001C080E0DF91CF9108958F
:1013E000CF93DF93EC01898D9A8D009741F00E9495
:1013F000B208898D9A8D0E940F191A8E198EDF916D
:10140000CF910895FC01818D928D009729F00E9463
:10141000C50391E0811101C090E0892F08954F929A
:101420005F926F927F92AF92BF92CF92DF92EF92D4
:10143000FF920F931F93CF93DF9300D000D0CDB7CF
:10144000DEB78C0149835A836B837C835901C12C9D
:10145000D12C7601412C82E0582E612C712C4981CF
:101460005A816B817C819E012F5F3F4FC8010E9492
:101470000903882351F1D301C201F801058404C096
:10148000880F991FAA1FBB1F0A94D2F7C80ED91E36
:10149000EA1EFB1E49815A816B817C8187898031DC
:1014A00029F088EF9FEFAFEFBFE004C088EF9FEF18
:1014B000A0E0B0E0481759076A077B0780F2F50102
:1014C000C082D182E282F38281E00F900F900F9070
:1014D0000F90DF91CF911F910F91FF90EF90DF90D0
:1014E000CF90BF90AF907F906F905F904F90089596
:1014F000CF93DF93FC012581222311F080E049C0C6
:10150000EC01809124058031C1F482E08583178A43
:10151000108E118E128E8091250590912605A0E0E7
:10152000B0E025E0880F991FAA1FBB1F2A95D1F7AD
:10153000838B948BA58BB68B19C08032F9F683E030
:101540008583409127055091280560912905709168
:101550002A05478B508F618F728F9F012D5E3F4F01
:101560008DE095E00E940F0A882341F28DE095E01E
:101570009C8F8B8F81E08C831E821F821886198638
:101580001A861B861C861D861E861F86188A198A47
:101590001A8ADF91CF9108952F923F924F925F92D6
:1015A0006F927F928F929F92AF92BF92CF92DF9273
:1015B000EF92FF920F931F93CF93DF93CDB7DEB7D8
:1015C000C756D1090FB6F894DEBF0FBECDBF6C0170
:1015D0005B01A6964FAFA69719A218A284E391E0EB
:1015E0009F8F8E8F1BA21C821B829A8389831E82EF
:1015F0004E018EE1880E911CC4010E94780A75018B
:101600008E010F5F1F4F240118016FE270E0C701C8
:101610000E94791A009709F442C0F70120812F3205
:1016200021F4FFEFEF1AFF0AF0CF8E198D3008F08A
:101630008CE0682E712CA301B701CE01885A9F4F10
:101640000E948B1AE8E5F0E0EC0FFD1FE60DF71D98
:101650001082C8010E94B208F8018581882351F0E8
:101660001EAE1DAE84E391E09CAF8BAF21961FAE02
:10167000219721C021E0AE01485A5F4FB201C80155
:101680000E94F906882361F3E60CF71CC2010E9450
:10169000B208942D852D2801092F182FB6CFC70128
:1016A0008A199B09A8969FAF8EAFA897B201CE0169
:1016B000CB960E946511A896EEADFFADA897AE0E31
:1016C000BF1EF5018081811109C0BE01655C7F4F9D
:1016D000C1010E9465114CE452E041C019A218A258
:1016E00084E391E09F8F8E8F1BA221968FAD21976F
:1016F000811113C0F6011382128288EE93E0A0E0FC
:10170000B0E084839583A683B78380E191E09183E1
:101710008083128E118E148626C0A6962FADA697B2
:10172000A501BE01655C7F4FC4010E94F9068823B4
:1017300009F3CE01CB960E94B208A6968FADA6976C
:101740008670863039F449A95AA96BA97CA9C401CD
:101750000E94C503B401C1010E946511A501B10138
:10176000C6010E945D09C601C959DF4F0FB6F89442
:10177000DEBF0FBECDBFDF91CF911F910F91FF90C4
:10178000EF90DF90CF90BF90AF909F908F907F9021
:101790006F905F904F903F902F900895CF93DF937D
:1017A000BC0182E694E00E94B201EC016BEA71E0B8
:1017B00082E694E00E94B2018C0F9D1FDF91CF91D1
:1017C00008958F929F92AF92BF920F931F93CF93E2
:1017D000DF93CDB7DEB7A1970FB6F894DEBF0FBE8B
:1017E000CDBF19A2423008F44AE08E010F5D1F4FB1
:1017F000842E912CA12CB12CA50194010E944F188C
:10180000E62FB901CA0101501109EA3014F4E05D74
:1018100001C0E95CD801EC93232B242B252B61F725
:10182000B80182E694E00E94B201A1960FB6F89446
:10183000DEBF0FBECDBFDF91CF911F910F91BF9043
:10184000AF909F908F900895CF92DF92EF92FF928A
:10185000CF93DF936C01990FEE08FF08F7FE13C0DA
:101860006DE282E694E00E94FE00EC016627772795
:10187000CB016C197D098E099F094AE00E94E10B9A
:10188000C80FD91F06C04AE0C701B6010E94E10B8C
:10189000EC016BEA71E082E694E00E94B2018C0FE9
:1018A0009D1FDF91CF91FF90EF90DF90CF90089533
:1018B0008F929F92AF92BF92CF92DF92EF92FF9260
:1018C000CF93DF93C82F81E095E0909361048093DC
:1018D0006004CC2369F1C53010F080E00CC140E019
:1018E00060E070E0CB010E941F028823B1F320E189
:1018F000C29FC0011124805B9D4FFC01E254FE4F4A
:1019000020812F7751F73C9640815181628173810C
:10191000443651056105710500F33497C080D180CC
:10192000E280F380C114D104E104F10421F4D5CFA5
:10193000C12CD12C760140E0C701B6010E941F02E4
:10194000882359F280916B0290916C02811592402C
:1019500021F6A0917002AA2309F4BFCF60916E0214
:1019600070916F026115710509F4B7CF20916D0276
:10197000222309F4B2CFA0931F052093110580E024
:1019800030E041E050E0C82FFA01082E02C0EE0F0F
:10199000FF1F0A94E2F72E173F0739F08F5FC83018
:1019A00091F789E080931A0598CF80931A052091CA
:1019B0007602309177022115310519F040E050E0B0
:1019C00008C0209184023091850240918602509196
:1019D000870220931205309313054093140550930A
:1019E000150546015701860E971EA11CB11C809259
:1019F000200590922105A0922205B0922305E09146
:101A00007102F0917202F0932605E0932505B0E093
:101A10000E94FE17860E971EA81EB91E80922705EB
:101A200090922805A0922905B0922A0585E0EE0F34
:101A3000FF1F8A95E1F7E150FE4FEF2FFF27E69554
:101A40008E0E9F1EA11CB11C80921B0590921C053E
:101A5000A0921D05B0921E05209173023091740270
:101A60002115310521F0A90160E070E008C0409126
:101A70008002509181026091820270918302D701AD
:101A8000C60188199909AA09BB09840F951FA61FC9
:101A9000B71F04C0B695A79597958795CA95D2F7B5
:101AA0008093160590931705A0931805B093190518
:101AB000853F2FE09207A105B10510F48CE018C016
:101AC000853F9F4FA105B10510F480E111C08091C1
:101AD0008C0290918D02A0918E02B0918F02809322
:101AE000270590932805A0932905B0932A0580E245
:101AF0008093240581E0DF91CF91FF90EF90DF90FC
:101B0000CF90BF90AF909F908F900895CF93DF9329
:101B1000282F30E0F901E254FF4F8491F901E65596
:101B2000FF4FD491F901EA56FF4FC491CC2391F0B5
:101B300081110E943409EC2FF0E0EE0FFF1FE457F3
:101B4000FF4FA591B491EC91ED2381E090E021F459
:101B500080E002C080E090E0DF91CF9108951F9374
:101B6000CF93DF93282F30E0F901E254FF4F8491A7
:101B7000F901E655FF4FD491F901EA56FF4FC491A0
:101B8000CC23C1F0162F81110E943409EC2FF0E014
:101B9000EE0FFF1FEE57FF4FA591B4919FB7F8943A
:101BA000111104C08C91D095D82302C0EC91DE2B8A
:101BB000DC939FBFDF91CF911F910895CF93DF9367
:101BC00090E0FC01E655FF4F2491FC01EA56FF4FDF
:101BD0008491882361F190E0880F991FFC01E858F7
:101BE000FF4FC591D491FC01EE57FF4FA591B491E1
:101BF000611109C09FB7F89488812095822388835A
:101C0000EC912E230BC0623061F49FB7F894888169
:101C1000322F309583238883EC912E2B2C939FBFFA
:101C200006C08FB7F894E8812E2B28838FBFDF91F1
:101C3000CF9108953FB7F89480915C0290915D0236
:101C4000A0915E02B0915F0226B5A89B05C02F3F10
:101C500019F00196A11DB11D3FBFBA2FA92F982FD2
:101C60008827820F911DA11DB11DBC01CD0142E04D
:101C7000660F771F881F991F4A95D1F708952FB7D0
:101C8000F894609158027091590280915A02909193
:101C90005B022FBF0895DC015996ED91FC915A9794
:101CA0003097B9F083899489A589B689428553858F
:101CB00064857585841B950BA60BB70B811520E8F1
:101CC0009207A105B10538F08FEF9FE7A0E0B0E0E3
:101CD000089580E090E00895CF93DF931F92CDB7F1
:101CE000DEB76983DC01ED91FC910280F381E02D88
:101CF00041E050E0BE016F5F7F4F09950F90DF918B
:101D0000CF910895089580E090E00895FC01818DC1
:101D1000928D009711F00C948C030895CF93DF936C
:101D2000EC01898D9A8D009739F481E090E09B83D6
:101D30008A8380E090E00BC0FC01138212820E9433
:101D40005C04E98DFA8D22813381232B71F7DF91B9
:101D5000CF9108953F924F925F926F927F928F92B0
:101D60009F92AF92BF92CF92DF92EF92FF920F932A
:101D70001F93CF93DF93CDB7DEB72C970FB6F894B0
:101D8000DEBF0FBECDBF5C01DC015B968D909C90E9
:101D90005C971696CD90DD90ED90FC901997C1144C
:101DA000D104E104F10439F0BFEFCB1ADB0AEB0AEE
:101DB000FB0A312C07C0F401C080D180E280F3809F
:101DC00033243394F40181859285A385B4859C01E5
:101DD000AD012F5F3F4F4F4F5F4F29873A874B87AA
:101DE0005C87260137011D821E821F821886F4013E
:101DF00081859285A385B4852D813E814F8158854B
:101E0000281739074A075B0708F063C089859A8558
:101E1000AB85BC858C159D05AE05BF0550F482E0F1
:101E2000C82ED12CE12CF12C92E0492E512C612CA2
:101E3000712C9E012F5F3F4FB701A601C4010E9484
:101E40000903882309F445C089819A81AB81BC814B
:101E5000892B8A2B8B2B41F0260137019FEF491AE2
:101E6000590A690A790A05C0C414D504E604F704BE
:101E700091F02D813E814F8158852F5F3F4F4F4F0D
:101E80005F4F2D833E834F8358873FEFC31AD30A9A
:101E9000E30AF30AACCF0FEF1FEF2FEF3FE0B301E0
:101EA000A201C4010E946802882399F0D501169608
:101EB0004D915D916D917C91199741155105610589
:101EC000710549F093018201C4010E9468028111E9
:101ED00002C080E02AC0D50116964D925D926D92A7
:101EE0007C921997332051F0D301C2010196A11DB4
:101EF000B11DF40180839183A283B383F5018789A7
:101F0000908DA18DB28D892B8A2B8B2B69F4D501F5
:101F100057964D925D926D927C925A9714968C9141
:101F20001497806814968C9381E02C960FB6F894E1
:101F3000DEBF0FBECDBFDF91CF911F910F91FF90FC
:101F4000EF90DF90CF90BF90AF909F908F907F9059
:101F50006F905F904F903F9008958FB7F894809165
:101F600051058FBF089561E0FC0184810E94AF0D8F
:101F70008091500581111092500508958EBD00008A
:101F80000DB407FEFDCF8EB508958FEF0C94BE0FF4
:101F90000F931F93CF93DF93EB010E943F0E8B01B2
:101FA0000E94C50F8F3F49F00E943F0E601B710BCE
:101FB0006C177D07A8F380E001C081E0DF91CF912D
:101FC0001F910F910895CF93DF93EC018E818823A9
:101FD00089F08F8198859C012F5F3F4F38872F8331
:101FE0008230924018F40E94C50FF3CFCE010E94B8
:101FF000B30F1E82DF91CF9108958CBD9DBD0895D2
:10200000CF93DF93EC0180915005811109C081E0ED
:10201000809350058091FF04909100050E94FD0F70
:1020200060E08C81DF91CF910C94AF0D8F929F92E5
:10203000AF92BF92FF920F931F93CF93DF93EC0168
:10204000F62E49015A010E94E30FCE010E940010B2
:102050006CE271E0CE010E94C80F8F2D80640E9457
:10206000BE0F08E110E0D501C401002E04C0B695F2
:10207000A795979587950A94D2F70E94BE0F0850AE
:102080001109083F8FEF180771F7FF2029F088E04A
:10209000F81204C087E803C085E901C08FEF0E94F1
:1020A000BE0F10E00E94C50F8A8787FF04C01F3F44
:1020B00011F01F5FF7CFDF91CF911F910F91FF902C
:1020C000BF90AF909F908F900895AF92BF92CF92A4
:1020D000DF92EF92FF920F931F93CF93DF93EC0168
:1020E0006901C801820F931F8130924008F070C0CF
:1020F0008E81882371F088819981AA81BB818417A0
:102100009507A607B70729F48F819885C816D906C1
:10211000B0F5488359836A837B838B85833039F09C
:1021200089E0440F551F661F771F8A95D1F79A01E2
:10213000AB0161E1CE010E941610882319F083E003
:102140008D8346C00E943F0E5B010E94C50F8A87A7
:102150008F3F49F40E943F0E6A197B096D3271402E
:10216000A0F38FE003C08E3F31F08DE08D83CE0170
:102170000E94B30F2DC018861F8281E08E838F814D
:1021800098858C159D0540F40E94C50F8F81988518
:10219000019698878F83F3CF6701E00EF11EEC1450
:1021A000FD0431F00E94C50FF60181936F01F7CF56
:1021B0008F819885080F191F18870F8389858823B9
:1021C00019F00115124048F0CE010E94E30F05C03E
:1021D000CE010E94B30F80E001C081E0DF91CF917A
:1021E0001F910F91FF90EF90DF90CF90BF90AF9035
:1021F0000895EF92FF920F931F93CF93DF93EC011B
:102200007901411551056105710511F482E13CC068
:102210008B85833039F089E0440F551F661F771F87
:102220008A95D1F79A01AB0168E1CE010E941610A0
:10223000882311F084E028C08EEF0E94BE0F870132
:102240008EEFF81AF80181918F010E94BE0FE016FF
:10225000F106C1F78FEF0E94BE0F8FEF0E94BE0FF5
:102260000E94C50F8A878F71853031F081E18D839F
:10227000CE010E94B30F09C068E572E0CE010E9452
:10228000C80F811107C085E18D83CE010E94B30F75
:1022900080E014C020E030E0A9016DE0CE010E9492
:1022A0001610811109C00E94C50F811105C0CE0111
:1022B0000E94B30F81E002C084E1E6CFDF91CF91AD
:1022C0001F910F91FF90EF900895FC01DB01129692
:1022D0008D919C9113979383828384E391E0918302
:1022E000808314968C911497848315968C911597FE
:1022F000858316964D915D916D917C9119974683DA
:102300005783608771871A964D915D916D917C918D
:102310001D9742875387648775871E964D915D91FF
:102320006D917C91519746875787608B718B529640
:102330008C915297828B53964D915D916D917C91CA
:102340005697438B548B658B768B57964D915D9149
:102350006D917C915A97478B508F618F728F5B96EE
:102360008D919C915C97948F838F08954F925F928B
:102370006F927F92AF92BF92CF92DF92EF92FF92D5
:102380000F931F93CF93DF931F92CDB7DEB7FC015E
:102390002581222309F4C1C0848180FFBEC08389C6
:1023A0009489A589B689428453846484758484158C
:1023B0009505A605B70509F4B0C06F015201F1E01B
:1023C000BF22D6015B968D919C915C97B301A201CF
:1023D00039E076956795579547953A95D1F722302C
:1023E00071F4FC01828D938DA48DB58D8A019B01C2
:1023F000080F191F2A1F3B1FC901B8014AC0DC0181
:1024000014961C9111501423A114B104F9F4111164
:102410001DC045284628472851F4F6018789908D2C
:10242000A18DB28D86839783A087B1870FC0D60117
:1024300016964D915D916D917C91199796012A5F49
:102440003F4F0E940903882309F467C0F601238DDA
:10245000348D86819781A085B1850297A109B10944
:10246000AC01BD01F901058404C0440F551F661F6E
:10247000771F0A94D2F786859785A089B189840F42
:10248000951FA61FB71FBC01CD01610F711D811DD6
:10249000911DD60114962C9126FF0DC0409000018D
:1024A000509001016090020170900301461657069A
:1024B0006806790699F440E00E941F02882369F1BA
:1024C000F501E05AFD4FDE0111969F012F5F3F4F4E
:1024D0002E173F0799F081918D93FACFFE01319627
:1024E0007F0101E010E09501AB01BC018091600427
:1024F000909161040E946510882379F0F60182852D
:102500009385A485B5850196A11DB11D828793870A
:10251000A487B587898190E002C08FEF9FEF0F906D
:10252000DF91CF911F910F91FF90EF90DF90CF90AF
:10253000BF90AF907F906F905F904F900895FC0197
:10254000818D928D009711F00C94B6118FEF9FEF53
:1025500008950F931F93CF93DF93FC01818D928D8C
:102560000097B9F0EF010E94B6118C010F3F8FEF79
:10257000180791F0898D9A8DFC01428553856485F9
:10258000758541505109610971090E94C503C8014F
:1025900005C080E090E002C08FEF9FEFDF91CF9108
:1025A0001F910F910895CF92DF92EF92FF920F93B8
:1025B0001F93CF93DF93CDB7DEB76E970FB6F89426
:1025C000DEBF0FBECDBF7C0141E06EE871E0CE0101
:1025D00001960E94CC0A00E010E0670181E0C81A71
:1025E000D108CE0101960E944B0E892B01F1CE013C
:1025F00001960E949F128D3031F40F5F1F4FE0163D
:10260000F10679F714C00C151D0559F7833249F30B
:10261000282F082E000C330B205331092A303105A6
:1026200000F3682F82E694E00E94FE00DACFEA8D84
:10263000FB8D309729F0428553856485758503C0ED
:102640004FEF5FEFBA014550510961097109CE01A1
:1026500001960E94020A00E010E0CE0101960E945D
:102660004B0E892BE9F0CE0101960E949F12282F74
:10267000082E000C330B205331092A30310550F459
:10268000ECE1F0E0EC0FFD1FE00FF11F80830F5F26
:102690001F4FE3CF8D3009F7FE01E00FF11F148EBD
:1026A000CE014C960E94D817182FCE0101960E9499
:1026B000F009812F6E960FB6F894DEBF0FBECDBF26
:1026C000DF91CF911F910F91FF90EF90DF90CF900E
:1026D0000895CF93DF93CDB7DEB7E6970FB6F894A2
:1026E000DEBF0FBECDBF789484B5826084BD84B553
:1026F000816084BD85B5826085BD85B5816085BDFD
:1027000080916E00816080936E00109281008091B4
:10271000810082608093810080918100816080933C
:102720008100809180008160809380008091B10061
:1027300084608093B1008091B00081608093B0008C
:1027400080917A00846080937A0080917A00826020
:1027500080937A0080917A00816080937A008091E2
:102760007A00806880937A001092C100E091720430
:10277000F091730482E08083E0916E04F0916F0425
:102780001082E0917004F09171048FEC80831092BC
:102790007A04E0917604F091770486E08083E091FA
:1027A0007404F0917504808180618083E0917404E9
:1027B000F0917504808188608083E0917404F091C9
:1027C0007504808180688083E0917404F0917504C1
:1027D00080818F7D808368E471E082E694E00E94CE
:1027E000B20180913005882321F08BE295E00E94B0
:1027F000B20810920C0510920A051092070510926B
:1028000006058AE0809305050E943F0E8B0161E07A
:10281000809105050E94DE0D61E0809105050E9412
:10282000AF0DFFB6F89480915302811127C0E0EA02
:10283000F0E08491E4EBF0E09491E82FF0E0EE0F0B
:10284000FF1FE858FF4FA591B491EC91E92321F4C3
:1028500061E08AE00E94AF0D61E08AE00E94DE0D37
:102860008CB580618CBD8CB580648CBD61E08DE0E1
:102870000E94DE0D61E08BE00E94DE0D809153022C
:102880008F5F80935302FFBE82E58093FF04109216
:1028900000058091FF04909100050E94FD0F5AE011
:1028A000F52E8FEF0E94BE0FFA94F110FACF81E05F
:1028B00095E00E94001020E030E0A90160E081E096
:1028C00095E00E941610F82E80930B0521E08217E8
:1028D00049F00E943F0E601B710B613D774058F339
:1028E00081E056C02AEA31E040E050E068E081E053
:1028F00095E00E94161082FF03C0F0920C0510C0F4
:1029000044E0F42E0E94C50F80930B05FA94F11059
:10291000F9CF8A3A11F082E03BC082E080930C0547
:1029200080910C05823021F0C12CD12C760105C09C
:10293000C12CD12CE12C30E4F32E20E030E0A901B1
:1029400067E381E095E00E941610A701960169E215
:1029500081E095E00E94161080930B05882349F0D2
:102960000E943F0E601B710B613D774030F388E0A1
:102970000FC080910C05823001F520E030E0A90104
:102980006AE381E095E00E941610882341F086E01A
:102990008093060581E095E00E94B30F28C00E9455
:1029A000C50F807C803C19F483E080930C050E9465
:1029B000C50F0E94C50F0E94C50F81E095E00E94DF
:1029C000B30F80E58093FF041092000581E00E9420
:1029D000580C882339F08BE295E00E94780A88230E
:1029E00031F00AC080E00E94580C8111F4CF80E6DB
:1029F00091E00E94CE0BFFCF8CE791E00E94CE0BBE
:102A000041E06EE871E0CE0101960E94CC0AEA8DA9
:102A1000FB8D3097A1F0858100E010E0882389F0DC
:102A2000CE0101960E944B0E892B59F0CE010196E2
:102A30000E949F128D30A1F70F5F1F4FF1CF00E072
:102A400010E0CE0101960E94F00910935602009307
:102A5000550260E085E00E94DE0D60E086E00E94A5
:102A6000DE0D60E084E00E94DE0D68E971E082E640
:102A700094E00E94B20180915502909156020E940A
:102A8000240CBB24B39480910401909105010E9411
:102A9000D312182F69EA71E082E694E00E94B20135
:102AA000612F70E080E090E04AE00E94E10B6BEA69
:102AB00071E082E694E00E94B20185E00E94860DFA
:102AC0008130910591F420910401309105014091EC
:102AD00055025091560224173507B9F02F5F3F4F2A
:102AE00030930501209304011EC086E00E94860DEC
:102AF000019791F480910401909105018130910535
:102B000049F480915502909156029093050180936B
:102B1000040109C00197F9CF84E00E94860D019756
:102B200061F6B092540280915402882309F454C192
:102B30006EEA71E082E694E00E94B20180910401A5
:102B4000909105010E94D31285EB91E00E94CE0B7B
:102B500080910401909105010E94D312882329F0ED
:102B600086EC91E00E94CE0B35C162EE71E082E608
:102B700094E00E94B201C12CD12CEE24E394F12CFC
:102B800041E06EE871E0CE0101960E94CC0A00E0BF
:102B900010E0CE0101960E944B0E892B49F4EA8D7C
:102BA000FB8D309789F042855385648575850FC00C
:102BB000CE0101960E949F128D3059F70F5F1F4F73
:102BC000E016F10631F7EBCF4FEF5FEFBA0145505A
:102BD000510961097109CE0101960E94020A00E0C3
:102BE00010E0CE0101960E944B0E892B01F1CE011F
:102BF00001960E949F12282F082E000C330B2053A1
:102C000031092A30310550F4ECE1F0E0EC0FFD1F02
:102C1000E00FF11F80830F5F1F4FE3CF8D3009F767
:102C2000ECE1F0E0EC0FFD1FE00FF11F1082CE0190
:102C30004C960E94D817182FCE0101960E94F009D9
:102C4000112319F08FEFC81AD80A8091550290917C
:102C50005602E816F906A1F4C60101960E94240C5A
:102C6000C0900401D090050141E06EE871E0CE0112
:102C70004C960E94CC0AEDA9FEA9309751F4A6C04B
:102C80002FEFE21AF20A6EE282E694E00E94FE0062
:102C900077CF8581882309F499C0E12CF12CCE01EE
:102CA0004C960E944B0E892B09F490C0CE014C9695
:102CB0000E949F128D3009F0B8C08FEFE81AF80A11
:102CC000CE14DF0429F489EF91E00E94CE0BE7CF08
:102CD000EDA9FEA9309729F0428453846484758459
:102CE00004C044244A94542C3201CE014C960E94D4
:102CF000F00947E16EE072E0CE0101960E94CC0A35
:102D0000BE016F5F7F4FCE014C960E949209EDA9E4
:102D1000FEA93097E1F085818823C9F040914E05E6
:102D200050914F0560914A0570914B05CE014C962C
:102D30000E948E0E6BEA71E0CE014C960E94B201A9
:102D4000CE014C960E94F00989E192E002C083E333
:102D500092E00E94CE0B41E06EE871E0CE01019658
:102D60000E94CC0ABE016F5F7F4FCE014C960E943D
:102D70009209B301A201CE014C960E94020A80E0A2
:102D800090E00E94C30920914A0530914B058111C2
:102D900013C02115310519F0C9010E940F191092B5
:102DA0004B0510924A0510924F0510924E05109255
:102DB0004D0510924C0573CF10924F0510924E05A1
:102DC0006DEA71E0C9010E94841A69CFCE014C9668
:102DD0000E94F009109254020E941A0E6B017C01AD
:102DE00084EB482E512C612C712C0E941A0EDC01B0
:102DF000CB018C199D09AE09BF09883E9340A105FE
:102E0000B10598F321E0421A51086108710888EE73
:102E1000C80E83E0D81EE11CF11C4114510461046A
:102E2000710419F70E946D012ECE89831A820091D8
:102E30004E0510914F050F5F1F4FC8010E94C30937
:102E4000882309F42CCF20914A0530914B058091BD
:102E50004E0590914F05BE016F5F7F4F820F931F0C
:102E60000E94841A10934F0500934E0518CF1092BC
:102E700065041092640488EE93E0A0E0B0E08093D3
:102E8000660490936704A0936804B093690482E297
:102E900091E0909363048093620485EC90E09093BA
:102EA0006F0480936E0484EC90E09093710480939F
:102EB000700480EC90E0909373048093720481EC32
:102EC00090E0909375048093740482EC90E090936A
:102ED00077048093760486EC90E090937904809355
:102EE000780410927B0410927C0410927D0410925E
:102EF0007E0480E58093FF04109200051092060581
:102F00001092070510920A0510920C0582E090E0DD
:102F1000A0E0B0E080930D0590930E05A0930F05FF
:102F2000B09310051092240510922E0510922D05D5
:102F300084E391E090932C0580932B05109230054B
:102F400010924B0510924A0510924D0510924C05B7
:102F500010924F0510924E0580E090E00E94C30948
:102F600020914A0530914B05811113C0211531057F
:102F700019F0C9010E940F1910924B0510924A05D1
:102F800010924F0510924E0510924D0510924C056F
:102F9000089510924F0510924E056DEA71E0C90137
:102FA0000C94841A80914A0590914B050C940F194A
:102FB000FC0188279927E89421912032E9F32930F0
:102FC00010F02E30C8F32B3241F02D3239F46894D2
:102FD00004C00E94F617820F911D219120532A30C0
:102FE000C0F31EF4909581959F4F08957AE0979FC6
:102FF000902D879F802D910D112408950E944018D7
:10300000A59F900DB49F900DA49F800D911D11243C
:1030100008952F923F924F925F926F927F928F927C
:103020009F92AF92BF92CF92DF92EF92FF920F9357
:103030001F93CF93DF93CDB7DEB7CA1BDB0B0FB661
:10304000F894DEBF0FBECDBF09942A88398848881E
:103050005F846E847D848C849B84AA84B984C884B4
:10306000DF80EE80FD800C811B81AA81B981CE0FAB
:10307000D11D0FB6F894DEBF0FBECDBFED01089590
:10308000A29FB001B39FC001A39F700D811D1124A9
:10309000911DB29F700D811D1124911D0895A1E213
:1030A0001A2EAA1BBB1BFD010DC0AA1FBB1FEE1FC2
:1030B000FF1FA217B307E407F50720F0A21BB30B0D
:1030C000E40BF50B661F771F881F991F1A9469F789
:1030D00060957095809590959B01AC01BD01CF01E5
:1030E0000895EE0FFF1F0590F491E02D09940F93C2
:1030F0001F93CF93DF938230910510F482E090E02C
:10310000E0915405F091550520E030E0A0E0B0E0FA
:10311000309719F140815181028113814817590775
:10312000C8F08417950769F4109731F012960C9344
:10313000129713961C9327C00093540510935505BE
:1031400022C02115310519F04217530718F49A01CE
:10315000BD01EF01DF01F801DBCF21153105F9F0E9
:10316000281B390B2430310580F48A819B8161153D
:10317000710521F0FB019383828304C09093550570
:1031800080935405FE01329644C0FE01E20FF31F06
:103190008193919322503109398328833AC0209139
:1031A000520530915305232B41F4209108013091B1
:1031B0000901309353052093520520910601309167
:1031C00007012115310541F42DB73EB740910A01A1
:1031D00050910B01241B350BE0915205F0915305E2
:1031E000E217F307A0F42E1B3F0B2817390778F0DE
:1031F000AC014E5F5F4F2417350748F04E0F5F1F3D
:1032000050935305409352058193919302C0E0E09F
:10321000F0E0CF01DF91CF911F910F910895CF93EF
:10322000DF93009709F481C0FC0132971382128268
:10323000A0915405B0915505109781F420813181FA
:10324000820F931F2091520530915305281739079B
:1032500051F5F0935305E093520567C0ED0120E06E
:1032600030E0CE17DF0740F44A815B819E014115B3
:103270005105F1F0EA01F5CFD383C283408151813A
:10328000840F951FC817D90759F488819981840F35
:10329000951F0296918380838A819B819383828389
:1032A0002115310529F4F0935505E09354053DC0EF
:1032B000E901FB83EA8349915991C40FD51FEC17AB
:1032C000FD0761F480819181840F951F0296E901C9
:1032D00099838883828193819B838A83E0E0F0E0F5
:1032E00012968D919C911397009719F0FD01DC01C6
:1032F000F7CF8D919C9111979D012E5F3F4F820FCB
:10330000931F20915205309153052817390769F40E
:10331000309729F4109255051092540502C013827B
:103320001282B0935305A0935205DF91CF91089577
:10333000A0E0B0E0EEE9F9E10C940D18EC01009783
:1033400021F4CB010E947718B4C0FC01E60FF71FEF
:103350009C0122503109E217F30708F4A8C0D901F3
:103360000D911C91119706171707B0F00530110544
:1033700008F49BC0C80104978617970708F495C006
:1033800002501109061B170B019311936D937C9347
:10339000CF010E940F1989C05B01A01AB10A4C012C
:1033A000800E911EA0915405B0915505612C712C91
:1033B000E12CF12C109709F446C08D919C91119746
:1033C000A815B905B1F56C0142E0C40ED11CCA14B0
:1033D000DB0478F14C018A189B08640142E0C40EBA
:1033E000D11C1296BC9012971396AC91B5E0CB16F7
:1033F000D10440F0B282A38391828082D9016D937F
:103400007C9309C00E5F1F4F800F911FF9019183BC
:103410008083EB2DFA2FE114F10431F0D7011396DC
:10342000FC93EE93129741C0F0935505E093540539
:103430003CC06816790608F43C017D0112960D9097
:10344000BC91A02DB7CF809152059091530588165D
:103450009906E1F466167706C8F48091060190910A
:103460000701009741F48DB79EB740910A01509132
:103470000B01841B950BE817F907C8F4F09353056B
:10348000E0935205F901718360830FC0CB010E9464
:1034900077187C01009759F0A801BE010E94701AAC
:1034A000CE010E940F19C70104C0CE0102C080E006
:1034B00090E0CDB7DEB7EEE00C94291881E090E003
:1034C000F8940C949A1AFB01DC0104C08D910190D0
:1034D000801921F441505040C8F7881B990B08957A
:1034E000FB01DC0102C001900D9241505040D8F721
:1034F0000895FC018191861721F08823D9F7992737
:1035000008953197CF010895FB01DC0101900D92E0
:103510000020E1F70895FB01DC014150504048F0E4
:1035200001900D920020C9F701C01D9241505040FA
:10353000E0F7089510E0CAE6D0E004C0FE010E9462
:0E35400071182196CB36D107C9F7F894FFCF4A
:10354E00FFFFFFFF01000000560580000000000095
:10355E006C0E8E0E830E860E4B0E9F12A91200005D
:10356E000000FE00BE0895004B01C600A400B80086
:10357E0000000000EB05BE08830E820E0000000066
:10358E00E808BE08830E820E496E697469616C6923
:10359E007A696E6720534420636172642E2E2E006A
:1035AE0043617264206661696C65642C206F7220C1
:1035BE006E6F742070726573656E740063617264F1
:1035CE0020696E697469616C697A65642E006C6934
:1035DE007374612E747874002D2D2D2D2D3E3E3E6C
:1035EE00204445425547203A2020000D0A00616CC8
:1035FE00756E6F200020666F692073656C65636958
:10360E006F6E61646F00616C756E6F206A612074FD
:10361E00656D20756D612069642070617261207323
:10362E0069005365726120636164617374726164D1
:10363E006F206E6F2049442000626C6F636F2071A3
:10364E007565206A756E74612061206964006C690D
:10365E00737461322E747874005052494E54414442
:10366E004F204E4F204152515549564F204E4F56E6
:10367E004F2E006572726F72206F70656E696E6785
:0E368E00204C49535441322E747874002F00A2
:00000001FF
