:100000000C9491010C94B9010C94B9010C94160C48
:100010000C94160C0C94160C0C94B9010C94B901A8
:100020000C94B9010C94B9010C94B9010C94B90168
:100030000C94B9010C94B9010C94B9010C94B90158
:100040000C945C190C94B9010C94900F0C946A0FE9
:100050000C94B9010C94B9010C94B9010C94B90138
:100060000C945C100C94B901DB15E015EB15EB1545
:10007000EB15EB15F015F215F51554454E544520CA
:100080004E4F56414D454E54450054454E54452023
:100090004E4F56414D454E54450054454E54452013
:1000A0004E4F56414D454E54450054454E54452003
:1000B0004E4F56414D454E54450054454E544520F3
:1000C0004E4F56414D454E54450054454E544520E3
:1000D0004E4F56414D454E5445007C3C3E5E2B3DB7
:1000E0003F2F5B5D3B2C2A225C0041525155495603
:1000F0004F20414C554E4F5320204E414F20454EEE
:10010000434F4E545241444F004152515549564F6E
:1001100020414C554E4F532020454E434F4E545294
:1001200041444F004D4F44554C4F204445204445D9
:100130004D4F4E5354524143414F00475255504F3B
:1001400020494F544641202020202046414445521A
:10015000475300475255504F20494F5446412020A5
:100160002020204641444552475300475255504FA6
:1001700020494F54464120202020204641444552EA
:10018000475300475255504F20494F544641202075
:100190002020204641444552475300475255504F76
:1001A00020494F54464120202020204641444552BA
:1001B0004753004D6F64756C6F20496E69636961C8
:1001C0006C697A61646F20636F6D2073756365730A
:1001D000736F004C495354412047455241444120DC
:1001E000434F4D5355434553534F004341525441A0
:1001F0004F2053442044455445432D5441444F001F
:10020000494E534952412053442045205245494EBE
:1002100049434945204F204D4F44554C4F004172B2
:100220006D617A656E61646F212121002E00506F2F
:1002300064652072656D6F766572206F20646564F9
:100240006F00436F6C6F717565206F206D65736D06
:100250006F206465646F206E6F76616D656E746586
:100260000052656D6F766572206465646F002E00C4
:10027000416775617264616E646F206465646F00CC
:100280005245474953545241444F20444947492D10
:1002900054414C20452050524553454E4341004661
:1002A000494D2044412044454D4F4E535452414303
:1002B000414F004E6164612073656C6563696F6EC8
:1002C00061646F0000000000230026002900000088
:1002D0000000250028002B00040404040404040486
:1002E00002020202020203030303030301020408E1
:1002F0001020408001020408102001020408102090
:1003000000000000240027002A000000000800026E
:100310000100000304070000000000000000252089
:10032000A61911241FBECFEFD8E0DEBFCDBF26E057
:10033000A4ECB1E001C01D92AE34B207E1F711E0C8
:10034000A0E0B1E0E4E0F9E402C005900D92A43C25
:10035000B107D9F711E0C0E9D1E004C02197FE014F
:100360000E943822CF38D107C9F70E94CE190C94C9
:1003700075240C940000DC015996ED91FC915A977C
:100380003097B9F083899489A589B68942855385C8
:1003900064857585841B950BA60BB70B811520E82A
:1003A0009207A105B10538F08FEF9FE7A0E0B0E01C
:1003B000089580E090E00895CF93DF931F92CDB72A
:1003C000DEB76983DC01ED91FC910280F381E02DC1
:1003D00041E050E0BE016F5F7F4F09950F90DF91C4
:1003E000CF9108952091060230910702281739070E
:1003F00071F49091050280910402981741F0E09108
:100400000502F0E0EC53FE4F808190E008958FEFFD
:100410009FEF08951F93CF93DF93DC015C968D913E
:100420009C915D97009739F421E030E013963C935E
:100430002E9312973BC05196ED91FC915297509696
:100440002C915097322F30951FB75E964C915E9746
:10045000742F727041FD6095F8944081772311F0FC
:10046000422B01C043234083EC012197F1F748E080
:10047000508160FF02C0522B01C053235083EC0116
:100480002197F1F76695415099F78081772319F00C
:100490008323808302C0282B20831FBF5C968D910D
:1004A0009C915D970197F1F781E090E0DF91CF910A
:1004B0001F910895209106023091070228173907ED
:1004C00071F4809104022091050290E0805C9F4FBE
:1004D000821B910960E470E00E942422089580E06C
:1004E00090E00895209106023091070228173907FD
:1004F000B9F49091050280910402981789F0E09177
:100500000502F0E0EC53FE4F80812091050230E0BF
:100510002F5F3F4F2F7333272093050290E00895FC
:100520008FEF9FEF0895089580E090E00895CF93B6
:10053000DF93EC018D81882379F18C8187FF28C0BE
:100540006E857F858889998941E00E94C51188233D
:1005500019F1EA8980E2E89FF0011124E15CFB4F88
:100560003097D1F08D81823040F48B899C89AD89A0
:10057000BE89848F958FA68FB78F8F89988DA98D0F
:10058000BA8D938F828FB58BA48B8C818F778C8360
:10059000DF91CF910C948A1180E0DF91CF91089583
:1005A000FC01818D928D009711F00C9497020895B3
:1005B0003F924F925F926F927F928F929F92AF92F3
:1005C000BF92CF92DF92EF92FF920F931F93CF9340
:1005D000DF93CDB7DEB72C970FB6F894DEBF0FBE12
:1005E000CDBF5C01DC015B968D909C905C9716966C
:1005F000CD90DD90ED90FC901997C114D104E104E9
:10060000F10439F0BFEFCB1ADB0AEB0AFB0A312CFD
:1006100007C0F401C080D180E280F380332433949A
:10062000F40181859285A385B4859C01AD012F5F7E
:100630003F4F4F4F5F4F29873A874B875C87260193
:1006400037011D821E821F821886F40181859285E2
:10065000A385B4852D813E814F81588528173907A0
:100660004A075B0708F063C089859A85AB85BC851E
:100670008C159D05AE05BF0550F482E0C82ED12C27
:10068000E12CF12C92E0492E512C612C712C9E0111
:100690002F5F3F4FB701A601C4010E94AF1288230C
:1006A00009F445C089819A81AB81BC81892B8A2B51
:1006B0008B2B41F0260137019FEF491A590A690A2D
:1006C000790A05C0C414D504E604F70491F02D811D
:1006D0003E814F8158852F5F3F4F4F4F5F4F2D8396
:1006E0003E834F8358873FEFC31AD30AE30AF30AC6
:1006F000ACCF0FEF1FEF2FEF3FE0B301A201C4011A
:100700000E940E12882399F0D50116964D915D91A5
:100710006D917C911997411551056105710549F05D
:1007200093018201C4010E940E12811102C080E077
:100730002AC0D50116964D925D926D927C921997C2
:10074000332051F0D301C2010196A11DB11DF40166
:1007500080839183A283B383F5018789908DA18DD6
:10076000B28D892B8A2B8B2B69F4D50157964D922C
:100770005D926D927C925A9714968C911497806832
:1007800014968C9381E02C960FB6F894DEBF0FBEC2
:10079000CDBFDF91CF911F910F91FF90EF90DF9030
:1007A000CF90BF90AF909F908F907F906F905F9011
:1007B0004F903F9008958F929F92AF92BF92CF92A9
:1007C000DF92EF92FF920F931F93CF93DF93EC0191
:1007D0008D81811102C080E078C00B891C892D8930
:1007E0003E890417150726073707A8F36A017B011E
:1007F000823029F4CA86DB86EC86FD860DC0C114E2
:10080000D104E104F10451F41E821F821886198676
:100810001A861B861C861D8681E057C08A849B84AD
:10082000AC84BD84EB8DFC8D258530E0275F3F4F88
:10083000B501A4014150510961097109022E04C09A
:1008400076956795579547950A94D2F7D701C601D3
:100850000197A109B10904C0B695A7959795879509
:100860002A95D2F784179507A607B70720F089289D
:100870008A288B2871F44F89588D698D7A8D4E8323
:100880005F83688779874C015D018E010A5F1F4F86
:1008900016C0841B950BA60BB70BF5CF4E815F815D
:1008A0006885798598018B8D9C8D0E94AF1291E0AF
:1008B000891A9108A108B108882309F48CCF811402
:1008C0009104A104B10451F795CFDF91CF911F910D
:1008D0000F91FF90EF90DF90CF90BF90AF909F90DF
:1008E0008F9008958F929F92AF92BF92CF92DF9296
:1008F000EF92FF920F931F93CF93DF9300D000D01E
:10090000CDB7DEB77C0180E2689FF0011124E15C85
:10091000FB4F9385917121F0842F827409F08FC071
:10092000142FD70152966C93529740910101509128
:10093000020160910301709104011E964D935D9335
:100940006D937C9351974489558960E070E0BA01BA
:1009500055274427828D938DA0E0B0E0482B592B7A
:100960006A2B7B2BD70157964D935D936D937C93A8
:100970005A978385887159F4848D958DA68DB78D8E
:10098000F701838B948BA58BB68B81E012C08031ED
:1009900009F055C097012D5E3F4FD7015B968D91B1
:1009A0009C915C970E94D613882309F448C084E088
:1009B000F7018583812F8F70D70114968C9314973C
:1009C000F70116821782108611861A961D921D92C3
:1009D0001D921C921D9716FF34C015968C91813084
:1009E00071F511FF2CC0F701438954896589768917
:1009F000452B462B472B09F461C040E050E0BA017B
:100A0000C7010E94DB038823D1F0F7018788908C0F
:100A1000A18CB28CC38CD48C82E090E0A0E0B0E0DA
:100A2000F60180839183A283B3839E012F5F3F4FA2
:100A3000B501A401C6010E94AF12811104C080E07B
:100A40003DC081E03BC000E010E09801B501A40189
:100A5000C6010E940E12882391F389809A80AB8090
:100A6000BC80D60157968C91803129F088EF9FEF9A
:100A7000AFEFBFE004C088EF9FEFA0E0B0E08816C2
:100A80009906AA06BB0688F2D70157961D921D92B9
:100A90001D921C925A97F701138A148A158A168A96
:100AA000848180688483C7010E949702882339F279
:100AB00040E050E0BA01C7010E94DB030F900F90A5
:100AC0000F900F90DF91CF911F910F91FF90EF90BA
:100AD000DF90CF90BF90AF909F908F900895CF936D
:100AE000DF93EC010E949702882311F01D8281E0C0
:100AF000DF91CF9108958FB7F894809109028FBF4D
:100B0000089561E0FC0184810E948D1880910802A3
:100B100081111092080208958EBD00000DB407FEE9
:100B2000FDCF8EB508958FEF0C948C050F931F9316
:100B3000CF93DF93EB010E9450198B010E94930524
:100B40008F3F49F00E945019601B710B6C177D0795
:100B5000A8F380E001C081E0DF91CF911F910F9158
:100B60000895CF93DF93EC018E81882389F08F81E4
:100B700098859C012F5F3F4F38872F8382309240AA
:100B800018F40E949305F3CFCE010E9481051E82C6
:100B9000DF91CF9108958CBD9DBD0895CF93DF93D4
:100BA000EC0180910802811109C081E08093080264
:100BB00080917103909172030E94CB0560E08C815B
:100BC000DF91CF910C948D188F929F92AF92BF922C
:100BD000FF920F931F93CF93DF93EC01F62E490101
:100BE0005A010E94B105CE010E94CE056CE271E06F
:100BF000CE010E9496058F2D80640E948C0508E12D
:100C000010E0D501C401002E04C0B695A7959795B4
:100C100087950A94D2F70E948C0508501109083F65
:100C20008FEF180771F7FF2029F088E0F81204C051
:100C300087E803C085E901C08FEF0E948C0510E0B2
:100C40000E9493058A8787FF04C01F3F11F01F5F32
:100C5000F7CFDF91CF911F910F91FF90BF90AF9091
:100C60009F908F900895AF92BF92CF92DF92EF92B4
:100C7000FF920F931F93CF93DF93EC016901C8019B
:100C8000820F931F8130924008F070C08E818823BC
:100C900071F088819981AA81BB8184179507A60785
:100CA000B70729F48F819885C816D906B0F548830F
:100CB00059836A837B838B85833039F089E0440FC5
:100CC000551F661F771F8A95D1F79A01AB0161E125
:100CD000CE010E94E405882319F083E08D8346C08D
:100CE0000E9450195B010E9493058A878F3F49F447
:100CF0000E9450196A197B096D327140A0F38FE090
:100D000003C08E3F31F08DE08D83CE010E948105BE
:100D10002DC018861F8281E08E838F8198858C1567
:100D20009D0540F40E9493058F81988501969887D0
:100D30008F83F3CF6701E00EF11EEC14FD0431F058
:100D40000E949305F60181936F01F7CF8F819885FB
:100D5000080F191F18870F838985882319F001153B
:100D6000124048F0CE010E94B10505C0CE010E949C
:100D7000810580E001C081E0DF91CF911F910F914B
:100D8000FF90EF90DF90CF90BF90AF9008954F927B
:100D90005F926F927F92AF92BF92CF92DF92EF926B
:100DA000FF920F931F93CF93DF931F92CDB7DEB7C0
:100DB000FC012581222309F4C1C0848180FFBEC0CB
:100DC00083899489A589B68942845384648475840F
:100DD00084159505A605B70509F4B0C06F01520149
:100DE000F1E0BF22D6015B968D919C915C97B30197
:100DF000A20139E076956795579547953A95D1F7D1
:100E0000223071F4FC01828D938DA48DB58D8A0101
:100E10009B01080F191F2A1F3B1FC901B8014AC0B7
:100E2000DC0114961C9111501423A114B104F9F49F
:100E300011111DC045284628472851F4F60187891D
:100E4000908DA18DB28D86839783A087B1870FC0C7
:100E5000D60116964D915D916D917C9119979601F1
:100E60002A5F3F4F0E94AF12882309F467C0F60142
:100E7000238D348D86819781A085B1850297A10944
:100E8000B109AC01BD01F901058404C0440F551F2F
:100E9000661F771F0A94D2F786859785A089B18946
:100EA000840F951FA61FB71FBC01CD01610F711DD7
:100EB000811D911DD60114962C9126FF0DC04090E6
:100EC00001015090020160900301709004014616E8
:100ED00057066806790699F440E00E94C5118823F8
:100EE00069F1F501E15CFB4FDE0111969F012F5F77
:100EF0003F4F2E173F0799F081918D93FACFFE0156
:100F000031967F0101E010E09501AB01BC018091B9
:100F10003F06909140060E943306882379F0F6013F
:100F200082859385A485B5850196A11DB11D828713
:100F30009387A487B587898190E002C08FEF9FEFE8
:100F40000F90DF91CF911F910F91FF90EF90DF9065
:100F5000CF90BF90AF907F906F905F904F9008952B
:100F60002F923F924F925F926F927F928F929F92B9
:100F7000AF92BF92CF92DF92EF92FF920F931F93A7
:100F8000CF93DF93CDB7DEB72B970FB6F894DEBFC4
:100F90000FBECDBF7C01FE013196CE010C966F01D4
:100FA00030E23193E817F907E1F7DA0130E087E042
:100FB0009D91992331F19E3231F48A3009F46BC14D
:100FC00038E08AE0F5CFEAEDF0E04491442321F0E7
:100FD00031969413FACF5FC1831708F45CC14FEDCB
:100FE000490F4E3508F057C141E0430FF601E30FBA
:100FF000F11D3FE9390F3A3108F490529083342FB4
:10100000D7CF8981803209F446C1322E8B01DB01B2
:101010005B968D919C915C97F701948F838F1696C8
:101020001D921D921D921C921997FB011286138628
:1010300014861586B12CF80182859385A485B58523
:10104000438954896589768984179507A607B70768
:1010500008F05BC025E0B695A795979587952A95EA
:10106000D1F7F82FFF70AF2ED80115968C918230F2
:1010700008F411C1C8010E94C70697FD0CC1F80110
:1010800082859385A485B5854F96A11DB11D828764
:101090009387A487B587F0E2AF9EB0011124615C0D
:1010A0007B4F6115710509F4F6C0DB018C91882333
:1010B00019F0853EC1F4F1C0B1100EC0F701A28A4B
:1010C0008091010190910201A0910301B09104016E
:1010D00086879787A08BB18BDB018C91882399F051
:1010E000BB24B394A8CF4BE050E0C6010E943E243D
:1010F000892B09F0A0CF832D8073803309F4CBC0F6
:10110000432D6A2DC4C0BB24B394832D82718231D8
:1011100009F0C1C0BB20C1F0F701668577858089E1
:10112000918941E00E94C511882309F4B4C0D70118
:1011300052968C91B0E28B9FC0011124815C9B4F31
:10114000009709F078C0A7C0F8018581823009F4C2
:10115000A2C0C8010E94D802882309F49CC0D8010B
:101160005B96ED91FC915C9716968D909D90AD905D
:10117000BC901997B2E08B1A9108A108B1080584B8
:1011800004C0880C991CAA1CBB1C0A94D2F7868543
:101190009785A089B189880E991EAA1EBB1E24803E
:1011A000E1E08E1A9108A108B108222009F124017A
:1011B0003501420C511C611C711C0E948A1188234C
:1011C00009F469C0EFE3F4E0119226E0EF33F2078F
:1011D000D9F740920101509202016092030170928E
:1011E000040180911A02816080931A022A94DDCF53
:1011F000D8015B96ED91FC915C9780E092E0A0E0D5
:10120000B0E0058404C0880F991FAA1FBB1F0A9471
:10121000D2F7F8014389548965897689840F951F2F
:10122000A61FB71F838B948BA58BB68BD7015296C5
:101230001C928FE394E020E2FC0111922A95E9F7D9
:101240002BE0F601DC0101900D922A95E1F721E2F5
:1012500038E2DC0151963C932E93509740E058E0E1
:101260001F965C934E931E9753963C932E935297E2
:1012700059963C932E93589757965C934E93569756
:101280000E948A11882339F0432DF7016289C70132
:101290000E94720405C080E003C0B11021CF0ECFC0
:1012A0002B960FB6F894DEBF0FBECDBFDF91CF9166
:1012B0001F910F91FF90EF90DF90CF90BF90AF9074
:1012C0009F908F907F906F905F904F903F902F9066
:1012D0000895FC01818D928D009711F00C94C70642
:1012E0008FEF9FEF08950F931F93CF93DF93FC0130
:1012F000818D928D0097B9F0EF010E94C7068C0195
:101300000F3F8FEF180791F0898D9A8DFC01428570
:1013100053856485758541505109610971090E94A1
:10132000DB03C80105C080E090E002C08FEF9FEFB3
:10133000DF91CF911F910F910895EF92FF920F933C
:101340001F93CF93DF93EC0179014115510561059E
:10135000710511F482E13CC08B85833039F089E05E
:10136000440F551F661F771F8A95D1F79A01AB016D
:1013700068E1CE010E94E405882311F084E028C0D2
:101380008EEF0E948C0587018EEFF81AF80181918B
:101390008F010E948C05E016F106C1F78FEF0E94C5
:1013A0008C058FEF0E948C050E9493058A878F71B0
:1013B000853031F081E18D83CE010E94810509C025
:1013C00068E572E0CE010E949605811107C085E1B3
:1013D0008D83CE010E94810580E014C020E030E0C2
:1013E000A9016DE0CE010E94E405811109C00E94AF
:1013F0009305811105C0CE010E94810581E002C0E4
:1014000084E1E6CFDF91CF911F910F91FF90EF9094
:1014100008952F923F924F925F926F927F928F9298
:101420009F92AF92BF92CF92DF92EF92FF920F9373
:101430001F93CF93DF9300D000D0CDB7DEB78C01E0
:101440005B011A01DC0115968C9115978130C9F466
:1014500014968C9181FF15C082FF1DC0F80143894D
:1014600054896589768982859385A485B585841795
:101470009507A607B70779F0C8010E94DB03811121
:101480000AC081E090E0D80113969C938E93129746
:1014900080E090E036C1610183C05B968D919C91A4
:1014A0005C97FC0174802FEF270D2A013B0139E086
:1014B00076946794579447943A95D1F7722E742096
:1014C0007A01F1E0FF22772009F476C080E092E013
:1014D0008E199F0946018C159D0508F44C01D80111
:1014E0005B962D913C915C9716968D919D910D90F8
:1014F000BC91A02D0297A109B109F901058404C08E
:10150000880F991FAA1FBB1F0A94D2F746855785DB
:1015100060897189840F951FA61FB71F9C01AD01BB
:10152000270D311D411D511D29013A01811432E061
:10153000930609F088C08091010190910201A09169
:101540000301B0910401481659066A067B0659F456
:101550008FEF9FEFDC018093010190930201A09334
:101560000301B09304019501B301A20180913F06EC
:10157000909140060E949D09882309F482CF9EEF36
:10158000B91AC818D908F80182859385A485B5854C
:10159000880D991DA11DB11D82879387A487B587EA
:1015A000D8011A964D915D916D917C911D97C11452
:1015B000D10409F072CF87C0E114F10409F086CF9D
:1015C00016964D915D916D917C911997411551053C
:1015D0006105710559F457968D919D910D90BC91BF
:1015E000A02D0097A105B10541F521C09E012F5FF7
:1015F0003F4F0E94AF12882309F44BCF89819A8113
:10160000AB81BC81F801238D348DF901278920310C
:1016100029F048EF5FEF6FEF7FE004C048EF5FEF26
:1016200060E070E084179507A607B70730F0C8019F
:101630000E94D80281114ACF24CFF8018683978374
:10164000A087B18743CFE114F10429F5D8011A9698
:101650004D915D916D917C911D9753968D919D91CA
:101660000D90BC91A02D481759076A077B0798F089
:101670000E948A11882309F404CF409201015092FC
:101680000201609203017092040180911A0281604C
:1016900080931A0208C041E0C301B2010E94C51143
:1016A000882309F4EECED501F701E15CFB4F9F01E1
:1016B000280D391D2E173F0719F08D918193FACF10
:1016C000A80CB91C5ECFF80183899489A589B689D5
:1016D00084179507A607B70738F4438B548B658B9F
:1016E000768B848180688483F801848183FD02C0C5
:1016F000C10107C0C8010E949702882309F4C1CE26
:10170000F7CF0F900F900F900F90DF91CF911F9117
:101710000F91FF90EF90DF90CF90BF90AF909F9090
:101720008F907F906F905F904F903F902F90089593
:10173000CF93DF931F92CDB7DEB7698341E050E0CE
:10174000BE016F5F7F4F0E94090A0F90DF91CF911A
:101750000895CF93DF93EC01898D9A8D009739F42A
:1017600081E090E09B838A8380E090E00BC0FC01E5
:10177000138212820E94090AE98DFA8D2281338137
:10178000232B71F7DF91CF910895FC01DB011296B5
:101790008D919C9113979383828383E391E091834E
:1017A000808314968C911497848315968C91159749
:1017B000858316964D915D916D917C911997468325
:1017C0005783608771871A964D915D916D917C91D9
:1017D0001D9742875387648775871E964D915D914B
:1017E0006D917C91519746875787608B718B52968C
:1017F0008C915297828B53964D915D916D917C9116
:101800005697438B548B658B768B57964D915D9194
:101810006D917C915A97478B508F618F728F5B9639
:101820008D919C915C97948F838F08951F920F9256
:101830000FB60F9211242F933F934F935F936F93A3
:101840007F938F939F93AF93BF93EF93FF93E09119
:101850000602F0910702309709F451C0968DA685D3
:10186000B785858591FF04C09C91892329F447C0E1
:101870009C91892309F043C0A389B4899C918589EF
:10188000809589238C93868997890197F1F7608DDC
:10189000718DA685B785558538E020E0CB0101978D
:1018A000F1F7822F90E095958795282F4C9145234D
:1018B00009F02068315091F7868D81FD2095809147
:1018C000040290E001968F73992730910502381732
:1018D00049F0A0910402B0E0AC53BE4F2C9380932A
:1018E000040203C0868D8160868F828D938D01975F
:1018F000F1F7A389B4899C918589892B8C93FF91F9
:10190000EF91BF91AF919F918F917F916F915F9177
:101910004F913F912F910F900FBE0F901F901895F0
:101920008AEC90E00E94A5136CE271E080E090E008
:101930000E9416190E9495156CE271E080E090E01B
:101940000E9416198AEB90E00E94A5136CE271E0E8
:1019500080E090E00E9416190E9495156CE271E0FB
:1019600080E090E00E9416198AEA90E00E94A51398
:101970006CE271E080E090E00E9416190E949515DB
:101980006CE271E080E090E00E9416198AE990E034
:101990000E94A5136CE271E080E090E00E941619AD
:1019A0000E9495156CE271E080E090E00E941619AB
:1019B0008AE890E00E94A5136CE271E080E090E07C
:1019C0000E9416190E9495156CE271E080E090E08B
:1019D0000E9416198AE790E00E94A5136CE271E05C
:1019E00080E090E00E9416190E9495156CE271E06B
:1019F00080E090E00C941619CF92DF92EF92FF9264
:101A00000F931F93CF93DF936C017A018B01C0E09A
:101A1000D0E0CE15DF0581F0D8016D918D01D601A2
:101A2000ED91FC910190F081E02DC6010995892B83
:101A300011F02196EECF7E01C701DF91CF911F916A
:101A40000F91FF90EF90DF90CF900895FC01538DA0
:101A5000448D252F30E0842F90E0821B930B541788
:101A600010F0CF96089501970895FC01918D828D15
:101A7000981761F0828DDF01A80FB11D5D968C91E2
:101A8000928D9F5F9F73928F90E008958FEF9FEFED
:101A90000895FC01918D828D981731F0828DE80FA9
:101AA000F11D858D90E008958FEF9FEF0895FC0163
:101AB000918D228D892F90E0805C9F4F821B910930
:101AC0008F739927089588EC92E00E94570D21E0CA
:101AD000892B09F420E0822F0895FC01848DDF0119
:101AE000A80FB11DA35ABF4F2C91848D90E0019691
:101AF0008F739927848FA689B7892C93A089B18980
:101B00008C91837080648C93938D848D981306C020
:101B10000288F389E02D80818F7D80830895EF9284
:101B2000FF920F931F93CF93DF93EC0181E0888F97
:101B30009B8D8C8D981305C0E889F989808185FD7E
:101B400026C0F62E0B8D10E00F5F1F4F0F7311276D
:101B5000E02E8C8DE8120CC00FB607FCFACFE88996
:101B6000F989808185FFF5CFCE010E946D0DF1CFFF
:101B70008B8DFE01E80FF11DE35AFF4FF0829FB7F6
:101B8000F8940B8FEA89FB89808180620AC09FB735
:101B9000F894EE89FF896083E889F98980818370F0
:101BA000806480839FBF81E090E0DF91CF911F919F
:101BB0000F91FF90EF900895CF93DF93EC01888D04
:101BC0008823C9F0EA89FB89808185FD05C0A88941
:101BD000B9898C9186FD0FC00FB607FCF5CF8081C7
:101BE00085FFF2CFA889B9898C9185FFEDCFCE0111
:101BF0000E946D0DE7CFDF91CF91089580E090E0D6
:101C0000892B29F00E94630D81110C940000089526
:101C100085ED8093BC008091BC0084FDFCCF1092C8
:101C20001002089540915F02262F30E0240F311DED
:101C300021323105DCF4209110022430C9F4FC017A
:101C400080E090E0861758F430915F022191DC012A
:101C5000A15CBD4FA30FB11D2C930196F3CF8091D2
:101C60005F02680F60935F0280E0089581E008954D
:101C700082E00895089508950895E09114028091F6
:101C80001302E81730F4F0E0E15EFD4F808190E050
:101C900008958FEF9FEF08959091140280911302A1
:101CA000981750F4E92FF0E0E15EFD4F208130E01D
:101CB0009F5F9093140202C02FEF3FEFC901089578
:101CC0008091130290E020911402821B91090895E3
:101CD000CF92DF92EF92FF920F931F93CF93DF93F8
:101CE0007C01CB018A012091A602222389F0EB011D
:101CF0006B01C40ED51ECC15DD0569F06991D701C5
:101D0000ED91FC910190F081E02DC7010995F3CF91
:101D1000642F0E94120EC801DF91CF911F910F9185
:101D2000FF90EF90DF90CF900895CF93DF931F92B5
:101D3000CDB7DEB769832091A6022223D1F020918E
:101D40001102203240F021E030E0FC013383228395
:101D500080E090E015C080911202E82FF0E0E95594
:101D6000FD4F998190838F5F8093120280931102BF
:101D700005C061E0CE0101960E94120E81E090E064
:101D80000F90DF91CF9108950E9439240F931F93F4
:101D9000CF93DF93EC0188819981009729F02A8104
:101DA0003B812617370788F48B016F5F7F4F0E94B6
:101DB0007323009761F0998388831B830A832C81A6
:101DC0003D81232B11F4FC01108281E001C080E0F1
:101DD000DF91CF911F910F910895EF92FF920F9392
:101DE0001F93CF93DF9300D0CDB7DEB78C0169830B
:101DF0001A82FC01E480F580FFEFEF1AFF0AB701B9
:101E00000E94C60E882381F0F801208131818481EF
:101E10009581BE016F5F7F4F820F931F0E945F24E9
:101E2000F801F582E48281E00F900F90DF91CF916D
:101E30001F910F91FF90EF900895CF93DF93EC01E6
:101E400088819981009711F00E94EA2219821882F4
:101E50001D821C821B821A82DF91CF910895EF921E
:101E6000FF920F931F93CF93DF93EC017B018A01C5
:101E7000BA010E94C60E811104C0CE010E941D0F3E
:101E800007C01D830C83B701888199810E945F245C
:101E9000CE01DF91CF911F910F91FF90EF900895A8
:101EA000FC01808191810C94EA22FC011182108254
:101EB00013821282158214826115710551F0FB01A3
:101EC00001900020E9F73197AF01461B570B0C94A6
:101ED0002F0F08951F920F920FB60F9211242F9378
:101EE0003F934F935F936F937F938F939F93AF93A2
:101EF000BF93EF93FF9388EC92E00E946D0DFF91EA
:101F0000EF91BF91AF919F918F917F916F915F9171
:101F10004F913F912F910F900FBE0F901F901895EA
:101F20001F920F920FB60F9211242F938F939F93AE
:101F3000EF93FF93E091D802F091D9028081E09174
:101F4000DE02F091DF0282FD12C090818091E102F9
:101F50008F5F8F732091E202821751F0E091E102CE
:101F6000F0E0E853FD4F958F8093E10201C080813E
:101F7000FF91EF919F918F912F910F900FBE0F9036
:101F80001F901895CF93FC01C48121E02093A602F5
:101F9000C093C70210921202109211028385682B1F
:101FA00085E693E00E94950E90911102913208F01F
:101FB00045C0809110028111FCCF82E08093100215
:101FC00081E080930F028FEF8093A5021092A4020C
:101FD0009093A302A7EAB2E0E3E8F2E080E098176A
:101FE00021F02D9121938F5FFACF10928202809180
:101FF0008202CC0FC82BC093820280910E028130E6
:1020000061F410920E02809182028093BB00809155
:10201000BC0083FDF8CF85EC01C085EE8093BC0049
:10202000809110028230E1F38091A5028F3F31F060
:102030008091A502803211F08091A50210921202C7
:10204000109211021092A602CF9108950F931F9340
:10205000CF938C01C62F0E94C20F6C2F6460C80101
:102060000E94C20F6C2F6B7FC8010E94C20F83ECCD
:1020700090E00197F1F7CF911F910F9108950F9381
:102080001F93CF93DF938C01C62FD42F607F642BD7
:102090000E94261080E1C89FB00111246D2BC80159
:1020A000DF91CF911F910F910C94261041E00E9477
:1020B0003F1081E090E008951F920F920FB60F92AB
:1020C00011242F933F934F935F936F937F938F933D
:1020D0009F93AF93BF93EF93FF938091B900887F55
:1020E000803609F49CC068F5883209F45BC090F42E
:1020F000803109F454C038F4882309F4F6C08830DC
:1021000009F44DC0F6C0883109F44CC0803209F49E
:102110005DC0EFC0803409F468C048F4803309F42E
:1021200055C0883309F0E5C08093A502D8C080353A
:1021300009F44FC0883509F45DC0883409F0D9C06E
:10214000D6C0883909F4C7C0A8F4883709F467C035
:1021500038F4883609F463C0803709F460C0C9C018
:10216000883809F4B8C0803909F45FC0803809F0B4
:10217000C0C05BC0803B09F486C038F4803A09F4E3
:1021800066C0883A09F47FC0B4C0803C09F4A7C097
:10219000883C09F4A4C0883B09F48AC0AAC0809195
:1021A000820210C09091A4028091A302981770F54A
:1021B000E091A40281E08E0F8093A402F0E0ED573D
:1021C000FD4F80818093BB0085EC86C08093A50283
:1021D0008EC0E091A40281E08E0F8093A4028091D2
:1021E000BB00F0E0ED57FD4F80839091A4028091F9
:1021F000A3026EC0E091A40281E08E0F8093A4023E
:102200008091BB00F0E0ED57FD4F808380910F027D
:1022100081116DC081E080930E0284EA61C083E089
:102220008093100210928102CFCF80918102803280
:1022300008F051C0E091810281E08E0F809381020D
:102240008091BB00F0E0EF59FD4F8083BDCF85EC5E
:102250008093BC001092100280918102803230F491
:10226000E0918102F0E0EF59FD4F10826091810210
:1022700070E0E0910A02F0910B0281E692E009958C
:102280001092810236C084E08093100210926002A6
:1022900010925F02E0910C02F0910D02099580917D
:1022A0005F02811105C081E080935F0210923F02BE
:1022B000E091600281E08E0F80936002F0E0E15CCB
:1022C000FD4F80818093BB009091600280915F02FE
:1022D000981708F479CF85E88093BC000AC085EC94
:1022E0008093BC001092100204C01092A5020E94BC
:1022F000080EFF91EF91BF91AF919F918F917F91C8
:102300006F915F914F913F912F910F900FBE0F9062
:102310001F90189580911A028823A9F1409101011C
:102320005091020160910301709104012FE334E0A8
:1023300080913F06909140060E949D09811102C044
:1023400080E0089540911B0250911C0260911D0293
:1023500070911E02411551056105710591F02FE341
:1023600034E080913F06909140060E949D098823A9
:1023700039F310921B0210921C0210921D0210924F
:102380001E0210921A0281E008958F929F92AF92DE
:10239000BF92EF92FF920F931F93CF934B015C017B
:1023A000C42F8091010190910201A0910301B0918D
:1023B000040188159905AA05BB0501F10E948A113F
:1023C000811102C080E020C08FE3E82E84E0F82E67
:1023D00000E012E020E030E0B501A40180913F066A
:1023E000909140060E943306882361F38092010198
:1023F00090920201A0920301B092040180911A020E
:10240000C82BC0931A0281E0CF911F910F91FF90CA
:10241000EF90BF90AF909F908F9008954F925F92F2
:102420006F927F928F929F92AF92BF92CF92DF92E4
:10243000EF92FF920F931F93CF93DF93EC01423003
:1024400051056105710510F480E078C089859A8591
:10245000AB85BC850196A11DB11D84179507A60704
:10246000B70790F3CB88DC88ED88FE888F898031B0
:1024700029F4BB27A72F962F852F09C0DB01CA019E
:10248000E7E0B695A79597958795EA95D1F7480126
:1024900059012A013B01C80ED91EEA1EFB1E80917C
:1024A000010190910201A0910301B0910401C816AD
:1024B000D906EA06FB0681F48F898031A9F4B301BD
:1024C000A201552766277727440F551FFA01E15CC3
:1024D000FB4F9182808219C040E0C701B6010E9483
:1024E000C5118111E9CFB0CFB301A2014F775527B4
:1024F00066277727440F551F440F551FFA01E15CEB
:10250000FB4F80829182A282B38280911A02816005
:1025100080931A028A89823080F08D819E81AF81FA
:10252000B885C80ED91EEA1EFB1EC0921B02D092AF
:102530001C02E0921D02F0921E0281E0DF91CF9119
:102540001F910F91FF90EF90DF90CF90BF90AF90D1
:102550009F908F907F906F905F904F9008958F9293
:102560009F92AF92BF92CF92DF92EF92FF920F9322
:102570001F93CF93DF93FC0181859285A385B4855A
:102580000196A11DB11D84179507A607B70710F482
:1025900080E05BC083889488A588B688878980316D
:1025A00029F4BB27A72F962F852F09C0DB01CA016D
:1025B000C7E0B695A79597958795CA95D1F7E90194
:1025C0006A017B018F01BC01CD01680D791D8A1D57
:1025D0009B1D8090010190900201A0900301B0909A
:1025E0000401681579058A059B0591F4F80187892E
:1025F0008031A1F4DD24EE24FF24C601880F991F49
:10260000FC01E15CFB4F80819181A0E0B0E018C04B
:1026100040E00E94C5118111E9CFBACFE894C7F814
:10262000DD24EE24FF24C601880F991F880F991F0F
:10263000FC01E15CFB4F80819181A281B381BF707D
:1026400088839983AA83BB8381E0DF91CF911F9117
:102650000F91FF90EF90DF90CF90BF90AF909F9041
:102660008F900895EF92FF920F931F93CF93DF9374
:10267000EC017B018A011B821A8288EE93E0A0E0C4
:10268000B0E08C839D83AE83BF838FE391E0998319
:1026900088838DE190E00E9452229A8F898F009763
:1026A00079F02DE1F701DC0101900D922A95E1F717
:1026B0004CE050E0B801CE010C960E946624188EC2
:1026C000DF91CF911F910F91FF90EF900895CF93DD
:1026D000DF93FC01828193819093BF038093BE03BB
:1026E00084819581A681B7818093C0039093C103B3
:1026F000A093C203B093C30380859185A285B3855F
:102700008093C4039093C503A093C603B093C703FB
:10271000EF012C96A8ECB3E089918D9383E0A53D61
:10272000B807D1F7818D928D9093D6038093D5030E
:102730008CEB93E0DF91CF91089542E050E06EEB97
:1027400071E088EC92E00C94FC0C0F931F93CF93F4
:10275000DF938C01C0E0D0E0F801EC0FFD1F649125
:10276000662341F088EC92E00E948F0D892B11F0D6
:102770002196F2CF0E949D138C0F9D1FDF91CF9168
:102780001F910F9108958091D5039091D6030097E2
:1027900061F00E946F058091D5039091D6030E944D
:1027A000EA221092D6031092D50308954F925F92B9
:1027B0006F927F92AF92BF92CF92DF92EF92FF9291
:1027C0000F931F93CF93DF9300D000D0CDB7DEB728
:1027D0008C0149835A836B837C835901C12CD12C92
:1027E0007601412C82E0582E612C712C49815A814E
:1027F0006B817C819E012F5F3F4FC8010E94AF1209
:10280000882351F1D301C201F801058404C0880F67
:10281000991FAA1FBB1F0A94D2F7C80ED91EEA1E21
:10282000FB1E49815A816B817C818789803129F027
:1028300088EF9FEFAFEFBFE004C088EF9FEFA0E00D
:10284000B0E0481759076A077B0780F2F501C0829C
:10285000D182E282F38281E00F900F900F900F906F
:10286000DF91CF911F910F91FF90EF90DF90CF906C
:10287000BF90AF907F906F905F904F900895CF93EF
:10288000DF93FC012581222311F080E049C0EC0197
:10289000809196038031C1F482E08583178A108E7F
:1028A000118E128E8091970390919803A0E0B0E072
:1028B00025E0880F991FAA1FBB1F2A95D1F7838B8C
:1028C000948BA58BB68B19C08032F9F683E0858393
:1028D0004091990350919A0360919B0370919C03DE
:1028E000478B508F618F728F9F012D5E3F4F8FE717
:1028F00093E00E94D613882341F28FE793E09C8FE8
:102900008B8F81E08C831E821F82188619861A861F
:102910001B861C861D861E861F86188A198A1A8A9F
:10292000DF91CF9108952F923F924F925F926F92D5
:102930007F928F929F92AF92BF92CF92DF92EF924F
:10294000FF920F931F93CF93DF93CDB7DEB7C75698
:10295000D1090FB6F894DEBF0FBECDBF6C015B018D
:10296000A6964FAFA69719A218A283E391E09F8F76
:102970008E8F1BA21C821B829A8389831E824E012A
:102980008EE1880E911CC4010E943F1475018E01D6
:102990000F5F1F4F240118016FE270E0C7010E9412
:1029A0005424009709F442C0F70120812F3221F40A
:1029B000FFEFEF1AFF0AF0CF8E198D3008F08CE090
:1029C000682E712CA301B701CE01885A9F4F0E9437
:1029D0006624E8E5F0E0EC0FFD1FE60DF71D108220
:1029E000C8010E946F05F8018581882351F01EAE51
:1029F0001DAE83E391E09CAF8BAF21961FAE219774
:102A000021C021E0AE01485A5F4FB201C8010E94C7
:102A1000B007882361F3E60CF71CC2010E946F0522
:102A2000942D852D2801092F182FB6CFC7018A199B
:102A30009B09A8969FAF8EAFA897B201CE01CB9607
:102A40000E94C50BA896EEADFFADA897AE0EBF1EB7
:102A5000F5018081811109C0BE01655C7F4FC10114
:102A60000E94C50B41EC51E041C019A218A283E3BA
:102A700091E09F8F8E8F1BA221968FAD21978111A0
:102A800013C0F6011382128288EE93E0A0E0B0E05A
:102A900084839583A683B7838FE391E091838083BA
:102AA000128E118E148626C0A6962FADA697A5016C
:102AB000BE01655C7F4FC4010E94B007882309F303
:102AC000CE01CB960E946F05A6968FADA697867015
:102AD000863039F449A95AA96BA97CA9C4010E947E
:102AE000DB03B401C1010E94C50BA501B101C60100
:102AF0000E943213C601C959DF4F0FB6F894DEBFEA
:102B00000FBECDBFDF91CF911F910F91FF90EF903E
:102B1000DF90CF90BF90AF909F908F907F906F90FD
:102B20005F904F903F902F90089540E061E083E3E5
:102B300094E00E943F108BE39FE10197F1F7089525
:102B4000EF92FF920F931F93CF93DF93EC01E12C51
:102B5000F12C00E010E080910E0490910F04DC0154
:102B6000ED91FC910084F185E02D0995892B81F48C
:102B700061E070E080E090E00E941619BFEFEB1A70
:102B8000FB0A28EEE21623E0F20628F38FEF46C098
:102B900080910E0490910F04DC01ED91FC91028470
:102BA000F385E02D09950930110538F5F801EC5C45
:102BB000FF4F0C9438228F3E71F61882898328C00B
:102BC00028813981A901482BCA01998388838130E2
:102BD0009F4EF1F020C0FE01E00FF11F808318C06E
:102BE0008E8316C01F82888713C02F813885D90134
:102BF000A82BCD0198878F830BC0FE01E00FF11F3A
:102C000080832F813885C80108978217930729F0A0
:102C10000F5F1F4FA0CF8EEF01C080E0DF91CF91FB
:102C20001F910F91FF90EF900895DF92EF92FF9226
:102C30000F931F93CF93DF93EC0180910E0490913B
:102C40000F046981DC01ED91FC910190F081E02D90
:102C5000099580910E0490910F04DC01ED91FC9197
:102C60000190F081E02D6881099580910E0490918A
:102C70000F04DC01ED91FC910190F081E02D6A815F
:102C8000099580910E0490910F04DC01ED91FC9167
:102C90000190F081E02D6B81099580910E04909157
:102CA0000F04DC01ED91FC910190F081E02D6C812D
:102CB000099580910E0490910F04DC01ED91FC9137
:102CC0000190F081E02D6D81099580910E04909125
:102CD0000F04DC01ED91FC910190F081E02D6E81FB
:102CE0000995EF80F884B2E0EB0EF11C80910E04A0
:102CF00090910F040F2D1127DC01ED91FC910190B3
:102D0000F081E02D602F099580910E0490910F04C1
:102D1000DC01ED91FC910190F081E02D6E2D099583
:102D20000E0D111D8E81080F111DD12CED2CF12CD3
:102D30002F81388580910E0490910F04E216F306DE
:102D400090F4EC0EFD1EDC01ED91FC910190F08100
:102D5000E02DD70119966C910995F7018185080F2F
:102D6000111DD394E3CFDC01ED91FC910190F08132
:102D7000E02D612F099580910E0490910F04DC01E4
:102D8000ED91FC910190F081E02D602FDF91CF91CA
:102D90001F910F91FF90EF90DF9009943FB7F89447
:102DA0008091460690914706A0914806B091490649
:102DB00026B5A89B05C02F3F19F00196A11DB11D96
:102DC0003FBFBA2FA92F982F8827820F911DA11DD1
:102DD000B11DBC01CD0142E0660F771F881F991F0E
:102DE0004A95D1F70895CF93DF93CDB7DEB7C95495
:102DF000D1090FB6F894DEBF0FBECDBF21E03FEE84
:102E00003A83298391E09F8322E030E03987288745
:102E10009FEF9B839C839D839E8392E09A878B8701
:102E2000CE0101960E941516CE0101960E94A015B2
:102E3000811105C08F81873011F48A8501C081E03E
:102E4000C75BDF4F0FB6F894DEBF0FBECDBFDF917B
:102E5000CF910895CF93DF93CDB7DEB7C954D10991
:102E60000FB6F894DEBF0FBECDBF81E09FEE9A8310
:102E7000898391E09F8321E030E0398728878FEFB5
:102E80008B838C838D838E839A87CE0101960E94DB
:102E90001516CE0101960E94A015811105C08F81E3
:102EA000873011F48A8501C081E0C75BDF4F0FB620
:102EB000F894DEBF0FBECDBFDF91CF9108958F9202
:102EC0009F92AF92BF92CF92DF92EF92FF92CF93F9
:102ED000DF93C82F83E793E09093400680933F06EB
:102EE000CC2369F1C53010F080E00CC140E060E017
:102EF00070E0CB010E94C5118823B1F320E1C29F8D
:102F0000C0011124815D9B4FFC01E254FE4F2081E2
:102F10002F7751F73C96408151816281738144360D
:102F200051056105710500F33497C080D180E280BE
:102F3000F380C114D104E104F10421F4D5CFC12CF4
:102F4000D12C760140E0C701B6010E94C51188234B
:102F500059F280914A0490914B048115924021F6D8
:102F6000A0914F04AA2309F4BFCF60914D04709142
:102F70004E046115710509F4B7CF20914C0422234A
:102F800009F4B2CFA09391032093830380E030E053
:102F900041E050E0C82FFA01082E02C0EE0FFF1FDB
:102FA0000A94E2F72E173F0739F08F5FC83091F788
:102FB00089E080938C0398CF80938C0320915504F3
:102FC000309156042115310519F040E050E008C059
:102FD000209163043091640440916504509166042B
:102FE0002093840330938503409386035093870393
:102FF00046015701860E971EA11CB11C80929203B8
:1030000090929303A0929403B0929503E0915004A0
:10301000F0915104F0939803E0939703B0E00E947D
:10302000D321860E971EA81EB91E809299039092F6
:103030009A03A0929B03B0929C0385E0EE0FFF1FC2
:103040008A95E1F7E150FE4FEF2FFF27E6958E0EB0
:103050009F1EA11CB11C80928D0390928E03A092A2
:103060008F03B092900320915204309153042115A4
:10307000310521F0A90160E070E008C040915F04D3
:10308000509160046091610470916204D701C6019F
:1030900088199909AA09BB09840F951FA61FB71F94
:1030A00004C0B695A79597958795CA95D2F7809352
:1030B000880390938903A0938A03B0938B03853F81
:1030C0002FE09207A105B10510F48CE018C0853FF0
:1030D0009F4FA105B10510F480E111C080916B04F0
:1030E00090916C04A0916D04B0916E04809399034B
:1030F00090939A03A0939B03B0939C0380E28093E8
:10310000960381E0DF91CF91FF90EF90DF90CF9019
:10311000BF90AF909F908F90089590E0FC01E65F84
:10312000FC4F2491FC01E451FD4F3491FC01E85225
:10313000FD4FE491EE2309F43CC0222339F1233002
:1031400091F038F42130A9F0223001F584B58F7D5B
:1031500012C0273091F02830A1F02430B9F48091CA
:1031600080008F7D03C0809180008F7780938000E6
:103170000DC084B58F7784BD09C08091B0008F7772
:1031800003C08091B0008F7D8093B000F0E0EE0F1F
:10319000FF1FE253FD4FA591B4919FB7F8946111C1
:1031A00004C08C913095382302C0EC913E2B3C93A7
:1031B0009FBF0895CF93DF9390E0FC01E451FD4F52
:1031C0002491FC01E852FD4F8491882361F190E045
:1031D000880F991FFC01E050FD4FC591D491FC016F
:1031E000E253FD4FA591B491611109C09FB7F894C6
:1031F0008881209582238883EC912E230BC0623036
:1032000061F49FB7F8948881322F309583238883A7
:10321000EC912E2B2C939FBF06C08FB7F894E881BA
:103220002E2B28838FBFDF91CF9108958F929F928D
:10323000AF92BF92CF92DF92EF92FF926B017C012F
:103240000E94CE164B015C01C114D104E104F104CB
:10325000F1F00E94CE16DC01CB0188199909AA0968
:10326000BB09883E9340A105B10570F321E0C21A65
:10327000D108E108F10888EE880E83E0981EA11CB1
:10328000B11CC114D104E104F10419F7DDCFFF90A2
:10329000EF90DF90CF90BF90AF909F908F90089568
:1032A0002FB7F894609142067091430680914406CE
:1032B000909145062FBF08951F920F920FB60F925F
:1032C00011242F933F938F939F93AF93BF9380913C
:1032D000420690914306A0914406B0914506309174
:1032E000410623E0230F2D3720F40196A11DB11DC7
:1032F00005C026E8230F0296A11DB11D20934106AB
:103300008093420690934306A0934406B0934506EB
:103310008091460690914706A0914806B0914906D3
:103320000196A11DB11D8093460690934706A09378
:103330004806B0934906BF91AF919F918F913F91FD
:103340002F910F900FBE0F901F90189585EE93E070
:103350000E94500F8EED93E00E94500F87ED93E096
:103360000E94500F81E591E090931504809314041E
:1033700080910602909107028451944071F4E0918B
:103380002704F09128049081809129048095892355
:10339000808310920702109206020895CF93DF9364
:1033A000CDB7DEB7C059D1090FB6F894DEBF0FBE56
:1033B000CDBF789484B5826084BD84B5816084BDBE
:1033C00085B5826085BD85B5816085BD80916E00C3
:1033D000816080936E0010928100809181008260F4
:1033E0008093810080918100816080938100809131
:1033F00080008160809380008091B1008460809320
:10340000B1008091B00081608093B00080917A001B
:10341000846080937A0080917A00826080937A0041
:1034200080917A00816080937A0080917A00806830
:1034300080937A001092C100109218021092190223
:103440001092170260E085E00E94DA1860E086E0E2
:103450000E94DA1860E0809100010E94DA18E09181
:10346000D802F091D90282E08083E091D402F091F9
:10347000D5021082E091D602F091D7028FEC8083C2
:103480001092E002E091DC02F091DD0286E08083A0
:10349000E091DA02F091DB02808180618083E0912B
:1034A000DA02F091DB02808188608083E091DA02A9
:1034B000F091DB02808180688083E091DA02F091F4
:1034C000DB0280818F7D80831092140210921302A0
:1034D00010921202109211021092100281E0809359
:1034E0000F0210920E0261E082E10E948D1861E0ED
:1034F00083E10E948D188091B9008E7F8093B9007E
:103500008091B9008D7F8093B90088E48093B800E2
:1035100085E48093BC008AE39EE090930D02809343
:103520000C028BE39EE090930B0280930A021092B0
:10353000380480913D04823018F098E0909338046C
:1035400080933B0462E370E080E090E00E941619F3
:1035500060913E0483E394E00E94C20F68EE73E042
:1035600080E090E00E94161960E383E394E00E94FB
:1035700026100BE416E4C8010197F1F760E383E33A
:1035800094E00E942610C8010197F1F760E383E3FD
:1035900094E00E94261083E592E00197F1F760E243
:1035A00083E394E00E94261060913804606240E05A
:1035B00083E394E00E943F1084E08093390440E06C
:1035C0006CE083E394E00E943F100E94951582E036
:1035D00080933A0440E066E083E394E00E943F1069
:1035E00040E062E083E394E00E943F108BE39FE1C0
:1035F0000197F1F788E080933E0460E083E394E074
:103600000E94C20F61E08AE00E94DA188091A20352
:10361000882321F08DE993E00E946F0510927E03CC
:1036200010927C0310927903109278038AE08093C1
:1036300077030E9450198B0161E0809177030E940B
:10364000DA1861E0809177030E948D18FFB6F89434
:1036500080911502811127C0E2EEF2E08491E6EF3D
:10366000F2E09491E82FF0E0EE0FFF1FE050FD4FE5
:10367000A591B491EC91E92321F461E08AE00E94E4
:103680008D1861E08AE00E94DA188CB580618CBDEB
:103690008CB580648CBD61E08DE00E94DA1861E039
:1036A0008BE00E94DA18809115028F5F80931502DB
:1036B000FFBE82E5809371031092720380917103C3
:1036C000909172030E94CB052AE0F22E8FEF0E94A8
:1036D0008C05FA94F110FACF83E793E00E94CE05AF
:1036E00020E030E0A90160E083E793E00E94E40578
:1036F000F82E80937D0381E0F81649F00E9450195E
:10370000601B710B613D774058F381E056C02AEA97
:1037100031E040E050E068E083E793E00E94E40598
:1037200082FF03C0F0927E0310C094E0F92E0E9445
:10373000930580937D03FA94F110F9CF8A3A11F042
:1037400082E03BC082E080937E0380917E038230E2
:1037500021F0C12CD12C760105C0C12CD12CE12C3B
:1037600080E4F82E20E030E0A90167E383E793E0EE
:103770000E94E405A701960169E283E793E00E94B5
:10378000E40580937D03882349F00E945019601B53
:10379000710B613D774030F388E00FC080917E036C
:1037A000823001F520E030E0A9016AE383E793E08D
:1037B0000E94E405882341F086E08093780383E744
:1037C00093E00E94810528C00E949305807C803C84
:1037D00019F483E080937E030E9493050E94930571
:1037E0000E94930583E793E00E94810580E5809322
:1037F00071031092720381E00E945F17882339F0F1
:103800008DE993E00E943F14882331F010C080E0DE
:103810000E945F178111F4CF80E092E00E94A5130F
:1038200060E177E280E090E00E941619F5CF8BEE20
:1038300091E00E94A513AB961FAE1EAEAB9783E33B
:1038400091E0A9969FAF8EAFA997AD961FAEAD97A9
:103850002E961FAE1EAE2E972C969FAF8EAF2C9736
:1038600060961FAE6097C12CD12CCE0189599F4F15
:103870005C01ADE9EA2EA3E0FA2EB3E36B2EB1E0D2
:103880007B2E8E010F5F1F4FC601F601E958FE4FD8
:1038900020812F3209F40196DC01A958BE4FFE01A8
:1038A000EC57FF4F20E030E04F014D914F3249F08F
:1038B000442339F02F5F3F4F019641932C3031055F
:1038C000A1F7F401E20FF31F1082FC01E958FE4F4B
:1038D00020812F3209F401966C01FC01E958FE4F5A
:1038E00040801C821B827A8269821E8221E0A401B0
:1038F000B701C8010E94B007882309F440C0C8017D
:103900000E946F054420E1F0F5018581811137C0E7
:1039100021E0A401B701C5010E94B007982EFDE97E
:10392000EF16F3E0FF0609F488C3C7010E946F0594
:10393000992069F19E2D8F2D7501A92EB82EA4CF47
:103940008DE9E81683E0F80619F0C7010E946F05BB
:1039500089E091E00E94A51381E08093190282E042
:103960008093180241E067E771E0C8010E94931458
:10397000C8010E946713E12CF7E0BF2E81C0FDE96A
:10398000EF16F3E0FF0619F0C7010E946F058AEEFB
:1039900090E00E94A51361E070E080E090E00E945A
:1039A0001619F9CF8CEB93E00E946909833271F00C
:1039B0008A3031F0682FCE01865B9F4F0E94ED0E5A
:1039C0008CEB93E00E94BB01892B61F71A8219826C
:1039D0001C821B821E821D822C966EAD7FAD2C97A1
:1039E0006115710539F060964EAD5FAD6097C80105
:1039F0000E942F0F60E0C8010E94ED0E811103C0EC
:103A0000C8010E941D0FCE2CD12CBC9CC001BD9CB6
:103A1000900D112489529C4F69817A81611571053D
:103A2000E9F14D815E810E942F0FC8010E94500F65
:103A3000CE01865B9F4F0E94500F60EC71E0C80181
:103A40000E94550F8CEB93E00E94BB01892B49F536
:103A500089819A810097D9F10E946D21F62EC801C3
:103A60000E94500FBC9CF001BD9CF00D1124E95246
:103A7000FC4FF682809117028F5F80931702E394C8
:103A80008CEB93E00E94BB01892B19F160EC71E093
:103A9000CE01865B9F4F0E94550F92CF0E941D0F53
:103AA000C4CF8CEB93E00E946909282F082E000CEC
:103AB000330B205331092A30310528F4682FC8010F
:103AC0000E94ED0EBFCF8A3009F0BCCFC1CF60E0BD
:103AD000C5CF0E94C31383ED91E00E94A51383EB31
:103AE00091E00E94A51368EB7BE080E090E00E94EB
:103AF00016198BE991E00E94A5136CE271E080E059
:103B000090E00E9416190E9495156CE271E080E029
:103B100090E00E94161983E891E00E94A5136CE2E0
:103B200071E080E090E00E9416190E9495156CE209
:103B300071E080E090E00E9416198BE691E00E940F
:103B4000A5136CE271E080E090E00E9416190E94DB
:103B500095156CE271E080E090E00E94161983E513
:103B600091E00E94A5136CE271E080E090E00E9479
:103B700016190E9495156CE271E080E090E00E94B9
:103B800016198BE391E00E94A5136CE271E080E0CE
:103B900090E00E9416190E9495156CE271E080E099
:103BA00090E00E94161984E291E00E94A51360ED56
:103BB00077E080E090E00E94161957E0352E44240B
:103BC0004394CC24C3946FEED62E66246394712C58
:103BD000E4E08E2E912C80911902882309F416C2FC
:103BE000E09118023E9EF0011124E952FC4F4481FD
:103BF00055816081718188EC92E00E94FC0C0E94EA
:103C00009D1368EB7BE080E090E00E94161960EC69
:103C100071E0C8010E94550FF12C8F2D90E0E091CA
:103C200018023E9EF0011124E952FC4F2481358197
:103C30008217930728F40190F081E02D309729F442
:103C400010921602E6E1F2E002C0E80FF91F60816F
:103C5000603229F0C8010E94ED0EF394DECF62E8D5
:103C600071E0CE01865B9F4F0E94550F8D819E8132
:103C7000A980BA80A114B10409F4D9C1009701F157
:103C80006096EEACFFAC6097E80EF91EB701CE016E
:103C9000865B9F4F0E94C60E882309F4C8C12C96EC
:103CA0002EAD3FAD2C9760968EAD9FAD6097B50160
:103CB000820F931F0E945F246096FFAEEEAE609766
:103CC00060964EAD5FAD60972C966EAD7FAD2C9734
:103CD00088EC92E00E94FC0C0E949D13CE01865B52
:103CE0009F4F0E94500FC8010E94500F68EB7BE06D
:103CF00080E090E00E941619409200018091170226
:103D0000E7EDF3E020E090E0821739F036813111E1
:103D100001C09F5F2F5F3796F7CFE09118023E9E5C
:103D2000F0011124E952FC4FB680B11004C0BB244D
:103D3000B394B80EB91AEE24EA9435E0A32E46E007
:103D4000242E80E792E00E94A5136CED75E080E0E0
:103D500090E00E9416190E942A17F82E91E0891708
:103D600071F0891798F0E2E08E1721F0F3E08F17D9
:103D700031F008C08EE692E00E94A513ECCF0E94BD
:103D8000900CE9CF0E94900CF110E5CF81E00E94E9
:103D9000F316F82E86E0F81609F469C08F1538F08E
:103DA000FF2071F091E0F91609F461C0D0C0E7E09E
:103DB000FE1609F45CC0F5E1FF1609F458C0C7C04F
:103DC00081E692E00E94A51368EB7BE080E090E042
:103DD0000E9416190E942A178230E1F782E492E0CD
:103DE0000E94A5136CED75E080E090E00E9416192A
:103DF0000E942A17F82E81E0F816E9F0F81638F03C
:103E000092E0F91679F0E3E0FE16A9F017C08EE211
:103E100092E00E94A51360ED77E080E090E00E94C0
:103E2000161910C08CE292E00E94A51360ED77E0B5
:103E300080E090E0DBCF0E94900CDACF0E94900CE3
:103E4000F110D6CF82E00E94F316F82EF6E08F171D
:103E500071F0F81730F0882371F081E0F81639F02E
:103E600076C097E0891719F0E5E18E1370C00E94C3
:103E7000900C5F2C72C0DA82C9824F827986688684
:103E8000EB82EC82ED82EE82AA86C8010E941516B2
:103E9000C8010E94A015811105C08F81873011F4DF
:103EA000FA8402C0FF24F3948F2D90E0009781F0F4
:103EB0008130910529F40E94900C552453944DC0F3
:103EC0000A9709F044C00E94900C2AE0522E45C087
:103ED000DA82C9824F8299868886EB82EC82ED82F3
:103EE000EE822A864B861C86BD86CE0101960E94F4
:103EF0001516CE0101960E94A015811105C08F8173
:103F0000873011F4FA8402C0FF24F3948F2D90E0DF
:103F1000009759F48EE192E00E94A51368EB7BE0D4
:103F200080E090E00E94161915C08130910519F2C9
:103F30008B30910529F40E94900C9BE0592E0DC006
:103F4000489729F40E94900C88E1582E06C00E94E0
:103F5000900C5F2C552009F4F4CE2C961FAE1EAEAB
:103F60002C972E961FAE1EAE2E9760961FAE1EAEDD
:103F700060974AE0B8018B2D90E00E94A921F801DA
:103F800001900020E9F73197AF01401B510BB801B8
:103F9000CE01865B9F4F0E942F0F68EB7BE080E095
:103FA00090E00E941619CE01865B9F4F0E94500F31
:103FB00047E167E771E0C8010E949314C8010E94BD
:103FC000671363E38CEB93E00E94DC010E94C31350
:103FD00047E16AE971E0C8010E949314C8010E9498
:103FE000671346E150E067EA71E08CEB93E00E94D2
:103FF000A90B0E94C31380E892E00E94A51368E811
:1040000073E180E090E00E94161904C083EB92E017
:104010000E94A5138FE992E00E94A51360E071EE63
:1040200085EF95E00E9416190E94FE0DD4CDCE01B9
:10403000865B9F4F0E941D0F43CE882309F4A7CCB7
:10404000FE01E65BFF4F7F0175CC1092CB02109210
:10405000CA0288EE93E0A0E0B0E08093CC02909397
:10406000CD02A093CE02B093CF022FE031E0309387
:10407000C9022093C80225EC30E03093D50220938A
:10408000D40224EC30E03093D7022093D60220EC07
:1040900030E03093D9022093D80221EC30E0309305
:1040A000DB022093DA0222EC30E03093DD02209331
:1040B000DC0226EC30E03093DF022093DE02109227
:1040C000E1021092E2021092E3021092E4021092D6
:1040D0006803109267038093690390936A03A09327
:1040E0006B03B0936C0321E231E0309366032093BD
:1040F000650320E5209371031092720310927803F8
:104100001092790310927C0310927E0342E050E0FB
:1041100060E070E040937F035093800360938103DD
:1041200070938203109296031092A00310929F0343
:1041300023E331E030939E0320939D031092A2036A
:10414000109236041092350423E631E030933404A3
:104150002093330427E22093370420E120933C048A
:1041600022E020933D0410923E0410921704109216
:1041700016048093180490931904A0931A04B09322
:104180001B0481E591E09093150480931404109230
:104190002B0410922A0410922D0410922C041092D9
:1041A0002F0410922E04109231041092300460916A
:1041B00032046E7F6D7F609332046695617081E09A
:1041C000682783E00E948D1861E083E00E94DA187E
:1041D000EFEEF2E0E491E0932404EBEDF2E0E49101
:1041E000F0E0EE0FFF1FE253FD4F85919491909305
:1041F00026048093250460E084E00E94DA18809110
:10420000320481FD04C061E084E00E948D1884E1E5
:1042100094E024E020932004E0EFF2E0E491E093C6
:104220002104ECEDF2E0E491F0E0EE0FFF1FEC531F
:10423000FD4F259134913093230420932204109252
:10424000F2031092F3031092F4031092F5034FEF70
:104250005FEFBA014093F6035093F7036093F803BE
:104260007093F903109213041092120490931104A6
:104270008093100490930F0480930E0460EC71E01F
:1042800087ED93E00E94550F60EC71E08EED93E0B6
:104290000E94550F60EC71E085EE93E00E94550F8F
:1042A0001092BF031092BE0388EE93E0A0E0B0E04E
:1042B0008093C0039093C103A093C203B093C30340
:1042C0008FE391E09093BD038093BC031092D603DB
:1042D0001092D5031092C80308951F93FC019927EB
:1042E0008827BC01E89411911032E9F3193010F0DD
:1042F0001E30C8F31B3251F01D3249F4689406C0D9
:104300000E949421610F711D811D911D1191105307
:104310001A30B0F33EF490958095709561957F4F7B
:104320008F4F9F4F1F910895592F482F372F262FBA
:10433000660F771F881F991F660F771F881F991FA9
:10434000620F731F841F951F660F771F881F991FA9
:104350000895BB27FB015527AA27880F991FAA1F7D
:10436000A41710F0A41B83955051B9F7A05DAA3390
:1043700008F0A95DA193009779F7B111B19311925B
:10438000CB010C94C321DC01FC01672F71917723D1
:10439000E1F7329704C07C916D9370836291AE1700
:1043A000BF07C8F308950E941522A59F900DB49FE2
:1043B000900DA49F800D911D112408952F923F927E
:1043C0004F925F926F927F928F929F92AF92BF9225
:1043D000CF92DF92EF92FF920F931F93CF93DF93D1
:1043E000CDB7DEB7CA1BDB0B0FB6F894DEBF0FBE2E
:1043F000CDBF09942A88398848885F846E847D847B
:104400008C849B84AA84B984C884DF80EE80FD807C
:104410000C811B81AA81B981CE0FD11D0FB6F894F2
:10442000DEBF0FBECDBFED010895A29FB001B39FC7
:10443000C001A39F700D811D1124911DB29F700DAD
:10444000811D1124911D089597FB072E16F40094E9
:1044500007D077FD09D00E943E2207FC05D03EF42C
:10446000909581959F4F0895709561957F4F089520
:10447000EE0FFF1F0590F491E02D0994AA1BBB1BC2
:1044800051E107C0AA1FBB1FA617B70710F0A61B54
:10449000B70B881F991F5A95A9F780959095BC0175
:1044A000CD0108950F931F93CF93DF938230910531
:1044B00010F482E090E0E0914C06F0914D0620E08F
:1044C00030E0A0E0B0E0309719F1408151810281E5
:1044D000138148175907C8F08417950769F4109796
:1044E00031F012960C93129713961C9327C00093E9
:1044F0004C0610934D0622C02115310519F04217C4
:10450000530718F49A01BD01EF01DF01F801DBCF79
:1045100021153105F9F0281B390B2430310580F4C1
:104520008A819B816115710521F0FB019383828350
:1045300004C090934D0680934C06FE01329644C011
:10454000FE01E20FF31F81939193225031093983C9
:1045500028833AC020914A0630914B06232B41F420
:10456000209107013091080130934B0620934A06B1
:1045700020910501309106012115310541F42DB737
:104580003EB74091090150910A01241B350BE0917F
:104590004A06F0914B06E217F307A0F42E1B3F0BDF
:1045A0002817390778F0AC014E5F5F4F24173507A5
:1045B00048F04E0F5F1F50934B0640934A0681937D
:1045C000919302C0E0E0F0E0CF01DF91CF911F9125
:1045D0000F910895CF93DF93009709F481C0FC01F8
:1045E000329713821282A0914C06B0914D0610971B
:1045F00081F420813181820F931F20914A063091EE
:104600004B062817390751F5F0934B06E0934A06FD
:1046100067C0ED0120E030E0CE17DF0740F44A81AB
:104620005B819E0141155105F1F0EA01F5CFD3837D
:10463000C28340815181840F951FC817D90759F44F
:1046400088819981840F951F0296918380838A8146
:104650009B81938382832115310529F4F0934D06C4
:10466000E0934C063DC0E901FB83EA8349915991EF
:10467000C40FD51FEC17FD0761F480819181840F71
:10468000951F0296E90199838883828193819B8398
:104690008A83E0E0F0E012968D919C911397009749
:1046A00019F0FD01DC01F7CF8D919C9111979D01CF
:1046B0002E5F3F4F820F931F20914A0630914B0689
:1046C0002817390769F4309729F410924D06109293
:1046D0004C0602C013821282B0934B06A0934A0686
:1046E000DF91CF910895A0E0B0E0E9E7F3E20C9408
:1046F000E221EC01009721F4CB010E945222B4C0C8
:10470000FC01E60FF71F9C0122503109E217F30765
:1047100008F4A8C0D9010D911C911197061717072D
:10472000B0F00530110508F49BC0C8010497861746
:10473000970708F495C002501109061B170B019347
:1047400011936D937C93CF010E94EA2289C05B0193
:10475000A01AB10A4C01800E911EA0914C06B09196
:104760004D06612C712CE12CF12C109709F446C0F8
:104770008D919C911197A815B905B1F56C0142E096
:10478000C40ED11CCA14DB0478F14C018A189B08B2
:10479000640142E0C40ED11C1296BC90129713968D
:1047A000AC91B5E0CB16D10440F0B282A3839182E4
:1047B0008082D9016D937C9309C00E5F1F4F800FDB
:1047C000911FF90191838083EB2DFA2FE114F104FD
:1047D00031F0D7011396FC93EE93129741C0F093FA
:1047E0004D06E0934C063CC06816790608F43C017F
:1047F0007D0112960D90BC91A02DB7CF80914A06F5
:1048000090914B0688169906E1F466167706C8F46F
:104810008091050190910601009741F48DB79EB7F4
:104820004091090150910A01841B950BE817F90783
:10483000C8F4F0934B06E0934A06F9017183608354
:104840000FC0CB010E9452227C01009759F0A801B1
:10485000BE010E944B24CE010E94EA22C70104C07F
:10486000CE0102C080E090E0CDB7DEB7EEE00C9460
:10487000FE2181E090E0F8940C947524FB01DC01AA
:1048800004C08D910190801921F441505040C8F727
:10489000881B990B0895FB01DC0102C001900D9269
:1048A00041505040D8F70895FC018191861721F0BE
:1048B0008823D9F7992708953197CF010895FB01EF
:1048C000DC0101900D920020E1F70895FB01DC016D
:1048D0004150504048F001900D920020C9F701C0AE
:1048E0001D9241505040E0F7089511E0C0E9D1E039
:1048F00004C0FE010E9438222196C139D107C9F7B0
:04490000F894FFCF59
:1049040007FFFFFFFF00004E068000000000008F3D
:104914000DFC0C260DDC0D570D350D490D00000066
:1049240000950E680E94023C0E600E4C0E3D0E0077
:10493400000000980BFC0C9402930200000000DCC1
:1049440001A90B9402D002BB01690973090000009C
:10495400000A02FC0C94023C0E5A027202F201009C
:104964000000005610FC0C9402930200000000C4E6
:104974000EFC0C94029302616C756E6F732E747846
:1049840074004341444153545241522044494749DD
:104994002D2054414C2044452000303330393230EE
:1049A40031382E7478740052414641454C204553A9
:1049B400544156412050524553454E5445000D0A2A
:0449C400002F0000C0
:107E0000112484B714BE81FFF0D085E080938100F7
:107E100082E08093C00088E18093C10086E0809377
:107E2000C20080E18093C4008EE0C9D0259A86E02C
:107E300020E33CEF91E0309385002093840096BBD3
:107E4000B09BFECF1D9AA8958150A9F7CC24DD24C4
:107E500088248394B5E0AB2EA1E19A2EF3E0BF2EE7
:107E6000A2D0813461F49FD0082FAFD0023811F036
:107E7000013811F484E001C083E08DD089C08234E0
:107E800011F484E103C0853419F485E0A6D080C0E4
:107E9000853579F488D0E82EFF2485D0082F10E0AE
:107EA000102F00270E291F29000F111F8ED06801E7
:107EB0006FC0863521F484E090D080E0DECF843638
:107EC00009F040C070D06FD0082F6DD080E0C81688
:107ED00080E7D80618F4F601B7BEE895C0E0D1E017
:107EE00062D089930C17E1F7F0E0CF16F0E7DF06D8
:107EF00018F0F601B7BEE89568D007B600FCFDCFD4
:107F0000A601A0E0B1E02C9130E011968C91119780
:107F100090E0982F8827822B932B1296FA010C0160
:107F200087BEE89511244E5F5F4FF1E0A038BF0790
:107F300051F7F601A7BEE89507B600FCFDCF97BE46
:107F4000E89526C08437B1F42ED02DD0F82E2BD052
:107F50003CD0F601EF2C8F010F5F1F4F84911BD097
:107F6000EA94F801C1F70894C11CD11CFA94CF0C13
:107F7000D11C0EC0853739F428D08EE10CD085E9AC
:107F80000AD08FE07ACF813511F488E018D01DD067
:107F900080E101D065CF982F8091C00085FFFCCF94
:107FA0009093C60008958091C00087FFFCCF809118
:107FB000C00084FD01C0A8958091C6000895E0E648
:107FC000F0E098E1908380830895EDDF803219F02E
:107FD00088E0F5DFFFCF84E1DECF1F93182FE3DFCA
:107FE0001150E9F7F2DF1F91089580E0E8DFEE27F6
:047FF000FF270994CA
:027FFE00040479
:0400000300007E007B
:00000001FF
