:100000000C9465000C948D000C948D000C948D0064
:100010000C948D000C948D000C948D000C948D002C
:100020000C948D000C948D000C948D000C948D001C
:100030000C948D000C948D000C948D000C948D000C
:100040000C94490A0C948D000C94B90A0C94930AF0
:100050000C948D000C948D000C948D000C948D00EC
:100060000C948D000C948D0000000008000201002B
:100070000003040700000000000000007C3C3E5E1E
:100080002B3D3F2F5B5D3B2C2A225C0000000000D3
:10009000250028002B0000000000240027002A0073
:1000A000040404040404040402020202020203031E
:1000B0000303030301020408102040800102040826
:1000C0001020010204081020721111241FBECFEF6E
:1000D000D8E0DEBFCDBF11E0A0E0B1E0ECE3F6E296
:1000E00002C005900D92A23CB107D9F724E0A2EC22
:1000F000B1E001C01D92A13CB207E1F710E0C5E6F6
:10010000D0E004C02197FE010E94C511C436D1077A
:10011000C9F70E94D90E0C941C130C940000FC012A
:10012000538D448D252F30E0842F90E0821B930B5C
:10013000541710F0CF96089501970895FC01918D02
:10014000828D981761F0828DDF01A80FB11D5D9639
:100150008C91928D9F5F9F73928F90E008958FEFA7
:100160009FEF0895FC01918D828D981731F0828D5B
:10017000E80FF11D858D90E008958FEF9FEF0895B2
:10018000FC01918D228D892F90E0805C9F4F821B16
:1001900091098F739927089580E090E0892B29F0C9
:1001A0000E943F0A81110C9400000895DC015996C9
:1001B000ED91FC915A973097B9F083899489A5897C
:1001C000B6894285538564857585841B950BA60B7E
:1001D000B70B811520E89207A105B10538F08FEF24
:1001E0009FE7A0E0B0E0089580E090E00895CF930D
:1001F000DF931F92CDB7DEB76983DC01ED91FC91EF
:100200000280F381E02D41E050E0BE016F5F7F4F3F
:1002100009950F90DF91CF910895089580E090E0C7
:100220000895FC01848DDF01A80FB11DA35ABF4FB3
:100230002C91848D90E001968F739927848FA689E5
:10024000B7892C93A089B1898C91837080648C9339
:10025000938D848D981306C00288F389E02D8081E8
:100260008F7D80830895EF92FF920F931F93CF931A
:10027000DF93EC0181E0888F9B8D8C8D981305C0F6
:10028000E889F989808185FD26C0F62E0B8D10E066
:100290000F5F1F4F0F731127E02E8C8DE8120CC0DB
:1002A0000FB607FCFACFE889F989808185FFF5CF81
:1002B000CE010E941101F1CF8B8DFE01E80FF11DDF
:1002C000E35AFF4FF0829FB7F8940B8FEA89FB89BE
:1002D000808180620AC09FB7F894EE89FF896083AD
:1002E000E889F98980818370806480839FBF81E081
:1002F00090E0DF91CF911F910F91FF90EF900895C3
:10030000CF93DF93EC01888D8823C9F0EA89FB89BC
:10031000808185FD05C0A889B9898C9186FD0FC0B3
:100320000FB607FCF5CF808185FFF2CFA889B98988
:100330008C9185FFEDCFCE010E941101E7CFDF91B7
:10034000CF9108958FB7F8948091C3018FBF08951E
:1003500061E0FC0184810E94800E8091C2018111C4
:100360001092C20108958EBD00000DB407FEFDCFAE
:100370008EB508958FEF0C94B3010F931F93CF9315
:10038000DF93EB010E94CD0E8B010E94BA018F3FDB
:1003900049F00E94CD0E601B710B6C177D07A8F30E
:1003A00080E001C081E0DF91CF911F910F9108950E
:1003B000CF93DF93EC018E81882389F08F8198851C
:1003C0009C012F5F3F4F38872F838230924018F473
:1003D0000E94BA01F3CFCE010E94A8011E82DF91D4
:1003E000CF9108958CBD9DBD0895CF93DF93EC010F
:1003F0008091C201811109C081E08093C201809186
:100400007204909173040E94F20160E08C81DF918C
:10041000CF910C94800E8F929F92AF92BF92FF92D9
:100420000F931F93CF93DF93EC01F62E49015A01EE
:100430000E94D801CE010E94F5016CE271E0CE016C
:100440000E94BD018F2D80640E94B30108E110E07D
:10045000D501C401002E04C0B695A7959795879540
:100460000A94D2F70E94B30108501109083F8FEF98
:10047000180771F7FF2029F088E0F81204C087E818
:1004800003C085E901C08FEF0E94B30110E00E9414
:10049000BA018A8787FF04C01F3F11F01F5FF7CFA3
:1004A000DF91CF911F910F91FF90BF90AF909F90E0
:1004B0008F900895AF92BF92CF92DF92EF92FF920A
:1004C0000F931F93CF93DF93EC016901C801820F53
:1004D000931F8130924008F070C08E81882371F0A4
:1004E00088819981AA81BB8184179507A607B707E0
:1004F00029F48F819885C816D906B0F548835983A9
:100500006A837B838B85833039F089E0440F551FE4
:10051000661F771F8A95D1F79A01AB0161E1CE0181
:100520000E940B02882319F083E08D8346C00E944D
:10053000CD0E5B010E94BA018A878F3F49F40E9469
:10054000CD0E6A197B096D327140A0F38FE003C0B4
:100550008E3F31F08DE08D83CE010E94A8012DC029
:1005600018861F8281E08E838F8198858C159D056A
:1005700040F40E94BA018F819885019698878F83F5
:10058000F3CF6701E00EF11EEC14FD0431F00E9480
:10059000BA01F60181936F01F7CF8F819885080F1B
:1005A000191F18870F838985882319F001151240B8
:1005B00048F0CE010E94D80105C0CE010E94A801DA
:1005C00080E001C081E0DF91CF911F910F91FF90FA
:1005D000EF90DF90CF90BF90AF900895EF92FF9291
:1005E0000F931F93CF93DF93EC01790141155105D0
:1005F0006105710511F482E13CC08B85833039F0CF
:1006000089E0440F551F661F771F8A95D1F79A011D
:10061000AB0168E1CE010E940B02882311F084E057
:1006200028C08EEF0E94B30187018EEFF81AF801FF
:1006300081918F010E94B301E016F106C1F78FEF9F
:100640000E94B3018FEF0E94B3010E94BA018A8712
:100650008F71853031F081E18D83CE010E94A80138
:1006600009C068E572E0CE010E94BD01811107C09A
:1006700085E18D83CE010E94A80180E014C020E0B6
:1006800030E0A9016DE0CE010E940B02811109C08A
:100690000E94BA01811105C0CE010E94A80181E02B
:1006A00002C084E1E6CFDF91CF911F910F91FF90BF
:1006B000EF9008958091D2018823A9F14091020121
:1006C00050910301609104017091050123ED31E027
:1006D0008091D3039091D4030E94EE02811102C055
:1006E00080E008954091C4015091C5016091C60118
:1006F0007091C701411551056105710591F023ED18
:1007000031E08091D3039091D4030E94EE028823BC
:1007100039F31092C4011092C5011092C6011092D3
:10072000C7011092D20181E008958F929F92AF92FB
:10073000BF92EF92FF920F931F93CF934B015C01F7
:10074000C42F8091020190910301A0910401B09106
:10075000050188159905AA05BB0501F10E945A03F8
:10076000811102C080E020C083EDE82E81E0F82EE8
:1007700000E012E020E030E0B501A4018091D30355
:100780009091D4030E945A02882361F3809202015F
:1007900090920301A0920401B09205018091D201D0
:1007A000C82BC093D20181E0CF911F910F91FF9090
:1007B000EF90BF90AF909F908F9008954F925F926F
:1007C0006F927F928F929F92AF92BF92CF92DF9261
:1007D000EF92FF920F931F93CF93DF93EC01423080
:1007E00051056105710510F480E078C089859A850E
:1007F000AB85BC850196A11DB11D84179507A60781
:10080000B70790F3CB88DC88ED88FE888F8980312C
:1008100029F4BB27A72F962F852F09C0DB01CA011A
:10082000E7E0B695A79597958795EA95D1F74801A2
:1008300059012A013B01C80ED91EEA1EFB1E8091F8
:10084000020190910301A0910401B0910501C81625
:10085000D906EA06FB0681F48F898031A9F4B30139
:10086000A201552766277727440F551FFA01ED523D
:10087000FE4F9182808219C040E0C701B6010E94FC
:1008800095038111E9CFB0CFB301A2014F7755276E
:1008900066277727440F551F440F551FFA01ED5265
:1008A000FE4F80829182A282B3828091D2018160C8
:1008B0008093D2018A89823080F08D819E81AF81C0
:1008C000B885C80ED91EEA1EFB1EC092C401D09284
:1008D000C501E092C601F092C70181E0DF91CF919E
:1008E0001F910F91FF90EF90DF90CF90BF90AF904E
:1008F0009F908F907F906F905F904F9008958F9210
:100900009F92AF92BF92CF92DF92EF92FF920F939E
:100910001F93CF93DF93FC0181859285A385B485D6
:100920000196A11DB11D84179507A607B70710F4FE
:1009300080E05BC083889488A588B68887898031E9
:1009400029F4BB27A72F962F852F09C0DB01CA01E9
:10095000C7E0B695A79597958795CA95D1F7E90110
:100960006A017B018F01BC01CD01680D791D8A1DD3
:100970009B1D8090020190900301A0900401B09013
:100980000501681579058A059B0591F4F8018789A9
:100990008031A1F4DD24EE24FF24C601880F991FC5
:1009A000FC01ED52FE4F80819181A0E0B0E018C0C3
:1009B00040E00E9495038111E9CFBACFE894C7F8CF
:1009C000DD24EE24FF24C601880F991F880F991F8C
:1009D000FC01ED52FE4F80819181A281B381BF70F5
:1009E00088839983AA83BB8381E0DF91CF911F9194
:1009F0000F91FF90EF90DF90CF90BF90AF909F90BE
:100A00008F9008958F929F92AF92BF92CF92DF9274
:100A1000EF92FF920F931F93CF93DF93EC018D81A1
:100A2000811102C080E078C00B891C892D893E8924
:100A30000417150726073707A8F36A017B018230E0
:100A400029F4CA86DB86EC86FD860DC0C114D1046C
:100A5000E104F10451F41E821F82188619861A8659
:100A60001B861C861D8681E057C08A849B84AC84CB
:100A7000BD84EB8DFC8D258530E0275F3F4FB501B0
:100A8000A4014150510961097109022E04C07695F3
:100A90006795579547950A94D2F7D701C6010197F4
:100AA000A109B10904C0B695A795979587952A9590
:100AB000D2F784179507A607B70720F089288A2858
:100AC0008B2871F44F89588D698D7A8D4E835F83A1
:100AD000688779874C015D018E010A5F1F4F16C040
:100AE000841B950BA60BB70BF5CF4E815F816885F4
:100AF000798598018B8D9C8D0E947F0491E0891AE5
:100B00009108A108B108882309F48CCF81149104BD
:100B1000A104B10451F795CFDF91CF911F910F91AF
:100B2000FF90EF90DF90CF90BF90AF909F908F900D
:100B300008953F924F925F926F927F928F929F9211
:100B4000AF92BF92CF92DF92EF92FF920F931F93DB
:100B5000CF93DF93CDB7DEB72C970FB6F894DEBFF7
:100B60000FBECDBF5C01DC015B968D909C905C97C5
:100B70001696CD90DD90ED90FC901997C114D1049C
:100B8000E104F10439F0BFEFCB1ADB0AEB0AFB0AF0
:100B9000312C07C0F401C080D180E280F38033247F
:100BA0003394F40181859285A385B4859C01AD01C0
:100BB0002F5F3F4F4F4F5F4F29873A874B875C87A7
:100BC000260137011D821E821F821886F40181854D
:100BD0009285A385B4852D813E814F815885281744
:100BE00039074A075B0708F063C089859A85AB859A
:100BF000BC858C159D05AE05BF0550F482E0C82E5E
:100C0000D12CE12CF12C92E0492E512C612C712C2D
:100C10009E012F5F3F4FB701A601C4010E947F04D0
:100C2000882309F445C089819A81AB81BC81892BD5
:100C30008A2B8B2B41F0260137019FEF491A590A65
:100C4000690A790A05C0C414D504E604F70491F0D2
:100C50002D813E814F8158852F5F3F4F4F4F5F4F12
:100C60002D833E834F8358873FEFC31AD30AE30A8D
:100C7000F30AACCF0FEF1FEF2FEF3FE0B301A2015C
:100C8000C4010E94DE03882399F0D50116964D9188
:100C90005D916D917C911997411551056105710523
:100CA00049F093018201C4010E94DE03811102C058
:100CB00080E02AC0D50116964D925D926D927C928D
:100CC0001997332051F0D301C2010196A11DB11D26
:100CD000F40180839183A283B383F5018789908D8A
:100CE000A18DB28D892B8A2B8B2B69F4D501579658
:100CF0004D925D926D927C925A9714968C911497B6
:100D0000806814968C9381E02C960FB6F894DEBF21
:100D10000FBECDBFDF91CF911F910F91FF90EF904C
:100D2000DF90CF90BF90AF909F908F907F906F900B
:100D30005F904F903F900895CF93DF93EC018D81AA
:100D4000882379F18C8187FF28C06E857F8588890B
:100D5000998941E00E949503882319F1EA8980E28C
:100D6000E89FF0011124ED52FE4F3097D1F08D81B4
:100D7000823040F48B899C89AD89BE89848F958FA0
:100D8000A68FB78F8F89988DA98DBA8D938F828FFB
:100D9000B58BA48B8C818F778C83DF91CF910C9452
:100DA0005A0380E0DF91CF910895CF93DF93EC0158
:100DB0000E949C06882311F01D8281E0DF91CF9173
:100DC0000895FC01818D928D009711F00C949C0682
:100DD00008952F923F924F925F926F927F928F92DF
:100DE0009F92AF92BF92CF92DF92EF92FF920F93BA
:100DF0001F93CF93DF9300D000D0CDB7DEB78C0127
:100E00005B011A01DC0115968C9115978130C9F4AC
:100E100014968C9181FF15C082FF1DC0F801438993
:100E200054896589768982859385A485B5858417DB
:100E30009507A607B70779F0C8010E94020581113E
:100E40000AC081E090E0D80113969C938E9312978C
:100E500080E090E036C1610183C05B968D919C91EA
:100E60005C97FC0174802FEF270D2A013B0139E0CC
:100E700076946794579447943A95D1F7722E7420DC
:100E80007A01F1E0FF22772009F476C080E092E059
:100E90008E199F0946018C159D0508F44C01D80157
:100EA0005B962D913C915C9716968D919D910D903E
:100EB000BC91A02D0297A109B109F901058404C0D4
:100EC000880F991FAA1FBB1F0A94D2F74685578522
:100ED00060897189840F951FA61FB71F9C01AD0102
:100EE000270D311D411D511D29013A01811432E0A8
:100EF000930609F088C08091020190910301A091AE
:100F00000401B0910501481659066A067B0659F49A
:100F10008FEF9FEFDC018093020190930301A09378
:100F20000401B09305019501B301A2018091D3039F
:100F30009091D4030E94EE02882309F482CF9EEFA1
:100F4000B91AC818D908F80182859385A485B58592
:100F5000880D991DA11DB11D82879387A487B58730
:100F6000D8011A964D915D916D917C911D97C11498
:100F7000D10409F072CF87C0E114F10409F086CFE3
:100F800016964D915D916D917C9119974115510582
:100F90006105710559F457968D919D910D90BC9105
:100FA000A02D0097A105B10541F521C09E012F5F3D
:100FB0003F4F0E947F04882309F44BCF89819A8197
:100FC000AB81BC81F801238D348DF9012789203153
:100FD00029F048EF5FEF6FEF7FE004C048EF5FEF6D
:100FE00060E070E084179507A607B70730F0C801E6
:100FF0000E94990581114ACF24CFF80186839783F7
:10100000A087B18743CFE114F10429F5D8011A96DE
:101010004D915D916D917C911D9753968D919D9110
:101020000D90BC91A02D481759076A077B0798F0CF
:101030000E945A03882309F404CF4092020150927F
:10104000030160920401709205018091D2018160D8
:101050008093D20108C041E0C301B2010E94950310
:10106000882309F4EECED501F701ED52FE4F9F0122
:10107000280D391D2E173F0719F08D918193FACF56
:10108000A80CB91C5ECFF80183899489A589B6891B
:1010900084179507A607B70738F4438B548B658BE5
:1010A000768B848180688483F801848183FD02C00B
:1010B000C10107C0C8010E949C06882309F4C1CE63
:1010C000F7CF0F900F900F900F90DF91CF911F915E
:1010D0000F91FF90EF90DF90CF90BF90AF909F90D7
:1010E0008F907F906F905F904F903F902F900895DA
:1010F000CF93DF931F92CDB7DEB7698341E050E015
:10110000BE016F5F7F4F0E94E9060F90DF91CF9184
:101110000895CF93DF93EC01898D9A8D009739F470
:1011200081E090E09B838A8380E090E00BC0FC012B
:10113000138212820E94E906E98DFA8D22813381A1
:10114000232B71F7DF91CF910895FC01DB011296FB
:101150008D919C9113979383828388E491E091838E
:10116000808314968C911497848315968C9115978F
:10117000858316964D915D916D917C91199746836B
:101180005783608771871A964D915D916D917C911F
:101190001D9742875387648775871E964D915D9191
:1011A0006D917C91519746875787608B718B5296D2
:1011B0008C915297828B53964D915D916D917C915C
:1011C0005697438B548B658B768B57964D915D91DB
:1011D0006D917C915A97478B508F618F728F5B9680
:1011E0008D919C915C97948F838F08954F925F921D
:1011F0006F927F92AF92BF92CF92DF92EF92FF9267
:101200000F931F93CF93DF931F92CDB7DEB7FC01EF
:101210002581222309F4C1C0848180FFBEC0838957
:101220009489A589B689428453846484758484151D
:101230009505A605B70509F4B0C06F015201F1E0AC
:10124000BF22D6015B968D919C915C97B301A20160
:1012500039E076956795579547953A95D1F72230BD
:1012600071F4FC01828D938DA48DB58D8A019B0153
:10127000080F191F2A1F3B1FC901B8014AC0DC0112
:1012800014961C9111501423A114B104F9F41111F6
:101290001DC045284628472851F4F6018789908DBE
:1012A000A18DB28D86839783A087B1870FC0D601A9
:1012B00016964D915D916D917C91199796012A5FDB
:1012C0003F4F0E947F04882309F467C0F601238DF5
:1012D000348D86819781A085B1850297A109B109D6
:1012E000AC01BD01F901058404C0440F551F661F00
:1012F000771F0A94D2F786859785A089B189840FD4
:10130000951FA61FB71FBC01CD01610F711D811D67
:10131000911DD60114962C9126FF0DC0409002011C
:101320005090030160900401709005014616570625
:101330006806790699F440E00E949503882369F1D4
:10134000F501ED52FE4FDE0111969F012F5F3F4FD9
:101350002E173F0799F081918D93FACFFE013196B8
:101360007F0101E010E09501AB01BC018091D30346
:101370009091D4030E945A02882379F0F601828565
:101380009385A485B5850196A11DB11D828793879C
:10139000A487B587898190E002C08FEF9FEF0F90FF
:1013A000DF91CF911F910F91FF90EF90DF90CF9041
:1013B000BF90AF907F906F905F904F900895FC0129
:1013C000818D928D009711F00C94F6088FEF9FEFAE
:1013D00008950F931F93CF93DF93FC01818D928D1E
:1013E0000097B9F0EF010E94F6088C010F3F8FEFD4
:1013F000180791F0898D9A8DFC014285538564858B
:10140000758541505109610971090E940205C801A1
:1014100005C080E090E002C08FEF9FEFDF91CF9199
:101420001F910F910895CF92DF92EF92FF920F9349
:101430001F93CF93DF936C017A018B01C0E0D0E062
:10144000CE15DF0581F0D8016D918D01D601ED91AA
:10145000FC910190F081E02DC6010995892B11F0D6
:101460002196EECF7E01C701DF91CF911F910F91A1
:10147000FF90EF90DF90CF9008950E94FB1285EDD2
:1014800093E00E94C00021E0892B09F420E0822F24
:1014900008951F920F920FB60F9211242F933F932E
:1014A0008F939F93AF93BF938091CE019091CF0183
:1014B000A091D001B091D1013091CD0123E0230F53
:1014C0002D3720F40196A11DB11D05C026E8230F7C
:1014D0000296A11DB11D2093CD018093CE01909362
:1014E000CF01A093D001B093D1018091C901909117
:1014F000CA01A091CB01B091CC010196A11DB11DF3
:101500008093C9019093CA01A093CB01B093CC0101
:10151000BF91AF919F918F913F912F910F900FBEEF
:101520000F901F9018951F920F920FB60F921124D3
:101530002F933F934F935F936F937F938F939F93DB
:10154000AF93BF93EF93FF9385ED93E00E9411015A
:10155000FF91EF91BF91AF919F918F917F916F918B
:101560005F914F913F912F910F900FBE0F901F9061
:1015700018951F920F920FB60F9211242F938F93ED
:101580009F93EF93FF93E091E503F091E603808151
:10159000E091EB03F091EC0382FD12C09081809109
:1015A000EE038F5F8F732091EF03821751F0E0916C
:1015B000EE03F0E0EB52FC4F958F8093EE0301C0F9
:1015C0008081FF91EF919F918F912F910F900FBE8E
:1015D0000F901F9018954F925F926F927F92AF92EB
:1015E000BF92CF92DF92EF92FF920F931F93CF9310
:1015F000DF9300D000D0CDB7DEB78C0149835A838A
:101600006B837C835901C12CD12C7601412C82E063
:10161000582E612C712C49815A816B817C819E01ED
:101620002F5F3F4FC8010E947F04882351F1D301EF
:10163000C201F801058404C0880F991FAA1FBB1FAF
:101640000A94D2F7C80ED91EEA1EFB1E49815A81A0
:101650006B817C818789803129F088EF9FEFAFEF24
:10166000BFE004C088EF9FEFA0E0B0E04817590743
:101670006A077B0780F2F501C082D182E282F382A1
:1016800081E00F900F900F900F90DF91CF911F91FD
:101690000F91FF90EF90DF90CF90BF90AF907F9031
:1016A0006F905F904F900895CF93DF93EC0180E2AD
:1016B000689FF0011124ED52FE4F6A8B8091020168
:1016C00090910301A0910401B09105018E879F873D
:1016D000A88BB98B4489558960E070E0BA01552721
:1016E0004427828D938DA0E0B0E0482B592B6A2BC4
:1016F0007B2B4F8B588F698F7A8F8385887151F43C
:10170000848D958DA68DB78D8B8B9C8BAD8BBE8B71
:1017100081E00EC0803111F080E015C09E012D5E89
:101720003F4F8B8D9C8D0E94EB0A8823A9F384E0A8
:101730008D8381E08C831E821F82188619861A860B
:101740001B861C861D86DF91CF910895009769F056
:10175000FC0101900020E9F73197AF01481B590BBC
:10176000BC0185ED93E00C94130A80E090E00895AD
:10177000CF93DF930E94A60BEC018EEB91E00E94C9
:10178000A60B8C0F9D1FDF91CF910895CF93DF9310
:10179000FC012581222311F080E049C0EC018091F9
:1017A00097048031C1F482E08583178A108E118EF0
:1017B000128E8091980490919904A0E0B0E025E009
:1017C000880F991FAA1FBB1F2A95D1F7838B948B73
:1017D000A58BB68B19C08032F9F683E085834091E2
:1017E0009A0450919B0460919C0470919D04478BD6
:1017F000508F618F728F9F012D5E3F4F80E894E084
:101800000E94EB0A882341F280E894E09C8F8B8F42
:1018100081E08C831E821F82188619861A861B8699
:101820001C861D861E861F86188A198A1A8ADF91D1
:10183000CF9108958F929F92AF92BF92CF92DF92F5
:10184000EF92FF92CF93DF93C82F84E794E09093B9
:10185000D4038093D303CC2369F1C53010F080E02A
:101860000CC140E060E070E0CB010E94950388234A
:10187000B1F320E1C29FC00111248D539E4FFC01A2
:10188000E254FE4F20812F7751F73C9640815181E1
:1018900062817381443651056105710500F3349707
:1018A000C080D180E280F380C114D104E104F1044E
:1018B00021F4D5CFC12CD12C760140E0C701B6016F
:1018C0000E949503882359F28091DE019091DF01F7
:1018D0008115924021F6A091E301AA2309F4BFCF1C
:1018E0006091E1017091E2016115710509F4B7CFD2
:1018F0002091E001222309F4B2CFA0939204209317
:10190000840480E030E041E050E0C82FFA01082E66
:1019100002C0EE0FFF1F0A94E2F72E173F0739F0BF
:101920008F5FC83091F789E080938D0498CF8093C2
:101930008D042091E9013091EA012115310519F05A
:1019400040E050E008C02091F7013091F80140914B
:10195000F9015091FA012093850430938604409355
:1019600087045093880446015701860E971EA11CD8
:10197000B11C8092930490929404A0929504B0922A
:101980009604E091E401F091E501F0939904E0936D
:101990009804B0E00E94BA11860E971EA81EB91EC8
:1019A00080929A0490929B04A0929C04B0929D0411
:1019B00085E0EE0FFF1F8A95E1F7E150FE4FEF2F14
:1019C000FF27E6958E0E9F1EA11CB11C80928E04EF
:1019D00090928F04A0929004B09291042091E6011D
:1019E0003091E7012115310521F0A90160E070E097
:1019F00008C04091F3015091F4016091F50170919C
:101A0000F601D701C60188199909AA09BB09840FF3
:101A1000951FA61FB71F04C0B695A79597958795E4
:101A2000CA95D2F78093890490938A04A0938B047B
:101A3000B0938C04853F2FE09207A105B10510F407
:101A40008CE018C0853F9F4FA105B10510F480E1DF
:101A500011C08091FF0190910002A0910102B0910C
:101A6000020280939A0490939B04A0939C04B093E9
:101A70009D0480E28093970481E0DF91CF91FF90F5
:101A8000EF90DF90CF90BF90AF909F908F90089590
:101A900090E0FC01EC54FF4F2491FC01E056FF4F15
:101AA0008491882399F090E0880F991FFC01EA56F1
:101AB000FF4FA591B491FC01E457FF4F859194919C
:101AC0008FB7F894EC91E22BEC938FBF0895EF92CF
:101AD000FF920F931F93CF93DF93EC017B018A0159
:101AE0001B821A8288EE93E0A0E0B0E08C839D8395
:101AF000AE83BF8382E191E0998388838DE190E09A
:101B00000E94DA119A8F898F009779F02DE1F70101
:101B1000DC0101900D922A95E1F74CE050E0B8010C
:101B2000CE010C960E940D13188EDF91CF911F915C
:101B30000F91FF90EF900895AF92BF92CF92DF92F6
:101B4000EF92FF920F931F93CF93DF93CDB7DEB742
:101B50002B970FB6F894DEBF0FBECDBF6C01FE0110
:101B60003196CE010C967F0120E22193E817F90708
:101B7000E1F7DA0120E037E09D91992331F19E32BF
:101B800031F43A3009F4AAC028E03AE0F5CFECE7A6
:101B9000F0E08491882321F031969813FACF9EC00B
:101BA000321708F49BC08FED890F8E3508F096C070
:101BB00081E0820FF701E20FF11D2FE9290F2A3191
:101BC00008F490529083282FD7CF8981803209F46E
:101BD00085C08B01FB01838D948DF601948F838FDB
:101BE000FB011682178210861186128613861486D0
:101BF0001586B12CF80182859385A485B585438926
:101C000054896589768984179507A607B70708F070
:101C100065C025E0B695A795979587952A95D1F744
:101C2000F82FFF70AF2EF8018581823008F456C07E
:101C3000C8010E94F60897FD51C0F801828593857E
:101C4000A485B5854F96A11DB11D82879387A48772
:101C5000B587F0E2AF9EB00111246D527E4F611541
:101C60007105E1F1FB0180818823F1F0853E99F156
:101C70004BE050E0C7010E940013892B09F0BACF56
:101C80006A2DC6012B960FB6F894DEBF0FBECDBFEE
:101C9000DF91CF911F910F91FF90EF90DF90CF9048
:101CA000BF90AF900C94540BB11018C0F601A28AEB
:101CB0008091020190910301A0910401B09105016E
:101CC00086879787A08BB18BFB018081882331F0B9
:101CD000BB24B3948FCFB110FBCFE8CF80E02B961D
:101CE0000FB6F894DEBF0FBECDBFDF91CF911F912D
:101CF0000F91FF90EF90DF90CF90BF90AF9008953D
:101D000090E0FC01E859FF4F2491FC01EC54FF4F97
:101D10003491FC01E056FF4FE491EE2309F43CC0FE
:101D2000222339F1233091F038F42130A9F0223008
:101D300001F584B58F7D12C0273091F02830A1F0D5
:101D40002430B9F4809180008F7D03C080918000A1
:101D50008F77809380000DC084B58F7784BD09C0D4
:101D60008091B0008F7703C08091B0008F7D809309
:101D7000B000F0E0EE0FFF1FE457FF4FA591B491C4
:101D80009FB7F894611104C08C913095382302C03C
:101D9000EC913E2B3C939FBF08952FB7F894609130
:101DA000CE017091CF018091D0019091D1012FBFD0
:101DB0000895CF93DF93CDB7DEB7C257D1090FB6E1
:101DC000F894DEBF0FBECDBF789484B5826084BD29
:101DD00084B5816084BD85B5826085BD85B581602F
:101DE00085BD80916E00816080936E0010928100AD
:101DF0008091810082608093810080918100816068
:101E00008093810080918000816080938000809128
:101E1000B10084608093B1008091B00081608093B4
:101E2000B00080917A00846080937A0080917A007B
:101E3000826080937A0080917A00816080937A003A
:101E400080917A00806880937A001092C100E091BE
:101E5000E503F091E60382E08083E091E103F091F5
:101E6000E2031082E091E303F091E4038FEC8083BE
:101E70001092ED03E091E903F091EA0386E080839C
:101E8000E091E703F091E803808180618083E09135
:101E9000E703F091E803808188608083E091E703A5
:101EA000F091E803808180688083E091E703F091FE
:101EB000E80380818F7D80838CE591E00E94A60BF2
:101EC0008091A304882321F08EE994E00E94D50636
:101ED00010927F0410927D0410927A04109279047B
:101EE0008AE0809378040E94CD0E8B018091780463
:101EF0000E94480D61E0809178040E94800EFFB638
:101F0000F8948091C801811124C0EAEAF0E084913C
:101F1000EEEBF0E09491E82FF0E0EE0FFF1FEA56B1
:101F2000FF4FA591B491EC91E92321F461E08AE09F
:101F30000E94800E8AE00E94480D8CB580618CBDA5
:101F40008CB580648CBD8DE00E94480D8BE00E94B2
:101F5000480D8091C8018F5F8093C801FFBE82E564
:101F600080937204109273048091720490917304B0
:101F70000E94F2016AE0F62E8FEF0E94B301FA94FC
:101F8000F110FACF84E794E00E94F50120E030E000
:101F9000A90160E084E794E00E940B02F82E809390
:101FA0007E0481E0F81649F00E94CD0E601B710B93
:101FB000613D774058F381E056C02AEA31E040E0C5
:101FC00050E068E084E794E00E940B0282FF03C0C7
:101FD000F0927F0410C054E0F52E0E94BA01809365
:101FE0007E04FA94F110F9CF8A3A11F082E03BC0F6
:101FF00082E080937F0480917F04823021F0C12CA5
:10200000D12C760105C0C12CD12CE12C40E4F42E5A
:1020100020E030E0A90167E384E794E00E940B022E
:10202000A701960169E284E794E00E940B02809385
:102030007E04882349F00E94CD0E601B710B613D28
:10204000774030F388E00FC080917F04823001F543
:1020500020E030E0A9016AE384E794E00E940B02EB
:10206000882341F086E08093790484E794E00E941D
:10207000A80128C00E94BA01807C803C19F483E04A
:1020800080937F040E94BA010E94BA010E94BA01A3
:1020900084E794E00E94A80180E580937204109286
:1020A000730481E00E941A0C882339F08EE994E0D1
:1020B0000E94C60B882331F00AC080E00E941A0CEF
:1020C0008111F4CF84E791E00E94B80BFFCF80E943
:1020D00091E00E94B80B88E4C82E81E0D82E98EEDB
:1020E000492E93E0592E612C712C22E1A22E21E081
:1020F000B22E88248394912CE0900001F09001018D
:102100001C821B82DA82C9821E82CE0101960E9445
:10211000C60BBE016F5F7F4FCE01CB960E94A50814
:1021200019A218A2DF8ECE8E1BA221968FAD219709
:10213000811116C06C961FAE1EAE6C97A0964CAE69
:102140005DAE6EAE7FAEA0976A96BFAEAEAE6A973A
:10215000E3961FAE1EAEE397A5961FAEA59720C0CF
:1021600042EB51E0BE01655C7F4FCE014E960E946E
:102170009C0D8823F9F2CE01CB960E94D506BE01B4
:10218000625E7F4FCE0101960E94A50842EB51E0AE
:10219000BE016F5F7F4FCE01885A9F4F0E94670D2F
:1021A000E396EEADFFADE397309709F483C08581E8
:1021B000882309F47FC0CE01885A9F4F0E94D60021
:1021C000892B31F0CE01885A9F4F0E94DF09F3CF4F
:1021D000E3968EAD9FADE397009729F040E050E085
:1021E000BA010E94020582EA91E00E94B80B00E069
:1021F00010E0170181E0281A3108CE01885A9F4F5C
:102200000E94D600892B09F1CE01885A9F4F0E9467
:10221000DF098D3031F40F5F1F4FE016F10669F7CB
:1022200014C00215130549F7833239F3282F082EFD
:10223000000C330B205331092A303105F0F2682F9E
:1022400085ED93E00E943301D8CFE3968EAD9FAD2C
:10225000E397009731F0FC014285538564857585CD
:1022600003C04FEF5FEFBA01455051096109710991
:10227000009711F00E940205CE01885A9F4F0E94DC
:10228000D600892B79F4E3968EAD9FADE397009746
:10229000A9F00E94D506E3968EAD9FADE3970E940C
:1022A00072120CC0CE01885A9F4F0E94DF098D30F8
:1022B00019F7E9CF84EA91E00E94B80B8091000100
:1022C0009091010101968F36910529F090930101BB
:1022D0008093000104C090920101809200010E944D
:1022E000CC000ACFE5EDF3E01382128288EE93E092
:1022F000A0E0B0E084839583A683B78386E391E072
:102300009183808385EC90E09587848784EC90E0CE
:102310009787868780EC90E0918B808B81EC90E0B2
:10232000938B828B82EC90E0958B848B86EC90E093
:10233000978B868B118E128E138E148EE2E7F4E04B
:1023400080E580831182E4E7F4E01582168211862D
:10235000138682E090E0A0E0B0E084879587A687AE
:10236000B78713A215A614A688E491E093A782A7C5
:1023700017A608950E94CB11A59F900DB49F900DB4
:10238000A49F800D911D11240895EE0FFF1F05904D
:10239000F491E02D0994A29FB001B39FC001A39FC7
:1023A000700D811D1124911DB29F700D811D11248E
:1023B000911D08950F931F93CF93DF938230910562
:1023C00010F482E090E0E091BF04F091C00420E0BE
:1023D00030E0A0E0B0E0309719F1408151810281F6
:1023E000138148175907C8F08417950769F41097A7
:1023F00031F012960C93129713961C9327C00093FA
:10240000BF041093C00422C02115310519F04217F2
:10241000530718F49A01BD01EF01DF01F801DBCF8A
:1024200021153105F9F0281B390B2430310580F4D2
:102430008A819B816115710521F0FB019383828361
:1024400004C09093C0048093BF04FE01329644C040
:10245000FE01E20FF31F81939193225031093983DA
:1024600028833AC02091BD043091BE04232B41F44F
:1024700020910801309109013093BE042093BD04DE
:1024800020910601309107012115310541F42DB746
:102490003EB740910A0150910B01241B350BE0918E
:1024A000BD04F091BE04E217F307A0F42E1B3F0B0E
:1024B0002817390778F0AC014E5F5F4F24173507B6
:1024C00048F04E0F5F1F5093BE044093BD048193AC
:1024D000919302C0E0E0F0E0CF01DF91CF911F9136
:1024E0000F910895CF93DF93009709F481C0FC0109
:1024F000329713821282A091BF04B091C00410974A
:1025000081F420813181820F931F2091BD0430918D
:10251000BE042817390751F5F093BE04E093BD04BB
:1025200067C0ED0120E030E0CE17DF0740F44A81BC
:102530005B819E0141155105F1F0EA01F5CFD3838E
:10254000C28340815181840F951FC817D90759F460
:1025500088819981840F951F0296918380838A8157
:102560009B81938382832115310529F4F093C00464
:10257000E093BF043DC0E901FB83EA83499159918F
:10258000C40FD51FEC17FD0761F480819181840F82
:10259000951F0296E90199838883828193819B83A9
:1025A0008A83E0E0F0E012968D919C91139700975A
:1025B00019F0FD01DC01F7CF8D919C9111979D01E0
:1025C0002E5F3F4F820F931F2091BD043091BE04B8
:1025D0002817390769F4309729F41092C004109233
:1025E000BF0402C013821282B093BE04A093BD0444
:1025F000DF91CF91089581E090E0F8940C941C1342
:10260000FB01DC0104C08D910190801921F441503F
:102610005040C8F7881B990B0895FB01DC0141501D
:10262000504048F001900D920020C9F701C01D9262
:0C26300041505040E0F70895F894FFCFAF
:10263C000100FFFFFFFF0000C1048000000000004C
:10264C000000F70089080E01E106D600DF09E90950
:10265C00000000003D0A130A0E010D013D0A3D0A5F
:10266C003D0A000000003301130A8F008001C000F6
:10267C009E00B200000000007808130A0E010D0144
:10268C00000000003D0A130A0E010D01496E697429
:10269C0069616C697A696E67205344206361726466
:1026AC002E2E2E0043617264206661696C65642C69
:1026BC00206F72206E6F742070726573656E74007B
:1026CC006361726420696E697469616C697A6564AE
:1026DC002E0020006572726F72206F70656E696ECD
:1026EC006720646174616C6F672E747874000D0AD6
:0226FC000000DC
:107E0000112484B714BE81FFF0D085E080938100F7
:107E100082E08093C00088E18093C10086E0809377
:107E2000C20080E18093C4008EE0C9D0259A86E02C
:107E300020E33CEF91E0309385002093840096BBD3
:107E4000B09BFECF1D9AA8958150A9F7CC24DD24C4
:107E500088248394B5E0AB2EA1E19A2EF3E0BF2EE7
:107E6000A2D0813461F49FD0082FAFD0023811F036
:107E7000013811F484E001C083E08DD089C08234E0
:107E800011F484E103C0853419F485E0A6D080C0E4
:107E9000853579F488D0E82EFF2485D0082F10E0AE
:107EA000102F00270E291F29000F111F8ED06801E7
:107EB0006FC0863521F484E090D080E0DECF843638
:107EC00009F040C070D06FD0082F6DD080E0C81688
:107ED00080E7D80618F4F601B7BEE895C0E0D1E017
:107EE00062D089930C17E1F7F0E0CF16F0E7DF06D8
:107EF00018F0F601B7BEE89568D007B600FCFDCFD4
:107F0000A601A0E0B1E02C9130E011968C91119780
:107F100090E0982F8827822B932B1296FA010C0160
:107F200087BEE89511244E5F5F4FF1E0A038BF0790
:107F300051F7F601A7BEE89507B600FCFDCF97BE46
:107F4000E89526C08437B1F42ED02DD0F82E2BD052
:107F50003CD0F601EF2C8F010F5F1F4F84911BD097
:107F6000EA94F801C1F70894C11CD11CFA94CF0C13
:107F7000D11C0EC0853739F428D08EE10CD085E9AC
:107F80000AD08FE07ACF813511F488E018D01DD067
:107F900080E101D065CF982F8091C00085FFFCCF94
:107FA0009093C60008958091C00087FFFCCF809118
:107FB000C00084FD01C0A8958091C6000895E0E648
:107FC000F0E098E1908380830895EDDF803219F02E
:107FD00088E0F5DFFFCF84E1DECF1F93182FE3DFCA
:107FE0001150E9F7F2DF1F91089580E0E8DFEE27F6
:047FF000FF270994CA
:027FFE00040479
:0400000300007E007B
:00000001FF
