:100000000C947D000C94A5000C94A5000C94A50004
:100010000C94A5000C94A5000C94A5000C94A500CC
:100020000C94A5000C94A5000C94A5000C94A500BC
:100030000C94A5000C94A5000C94A5000C94A500AC
:100040000C94A2140C94A5000C94F9020C94D30205
:100050000C94A5000C94A5000C94A5000C94A5008C
:100060000C94A5000C94A5004E6F6D6520646F2064
:10007000616C756E6F207072696E7461646F20635D
:100080006F6D207375636573736F007C3C3E5E2BF0
:100090003D3F2F5B5D3B2C2A225C000000000024CA
:1000A0000027002A0000000000250028002B000087
:1000B00000000023002600290004040404040404B2
:1000C0000402020202020203030303030301020407
:1000D00008102040800102040810200102040810CA
:1000E00020000000080002010000030407000000D7
:1000F000000000000000BB19B51911241FBECFEF8E
:10010000D8E0DEBFCDBF25E0A2ECB2E001C01D9279
:10011000AA3CB207E1F712E0A0E0B1E0EAE2FAE3BC
:1001200002C005900D92A23CB107D9F710E0CCE7D0
:10013000D0E004C02197FE010E94DF1ACB37D1071F
:10014000C9F70E94EC140C94081D0C940000CF9287
:10015000DF92EF92FF920F931F93CF93DF936C0187
:100160007A018B01C0E0D0E0CE15DF0581F0D80127
:100170006D918D01D601ED91FC910190F081E02D02
:10018000C6010995892B11F02196EECF7E01C7019A
:10019000DF91CF911F910F91FF90EF90DF90CF9063
:1001A0000895FC01538D448D252F30E0842F90E07D
:1001B000821B930B541710F0CF9608950197089562
:1001C000FC01918D828D981761F0828DDF01A80F5F
:1001D000B11D5D968C91928D9F5F9F73928F90E081
:1001E00008958FEF9FEF0895FC01918D828D9817F0
:1001F00031F0828DE80FF11D858D90E008958FEF2D
:100200009FEF0895FC01918D228D892F90E0805CF5
:100210009F4F821B91098F73992708958DEC94E06D
:100220000E94020121E0892B09F420E0822F089529
:10023000FC01848DDF01A80FB11DA35ABF4F2C9183
:10024000848D90E001968F739927848FA689B78952
:100250002C93A089B1898C91837080648C93938D49
:10026000848D981306C00288F389E02D80818F7DEC
:1002700080830895EF92FF920F931F93CF93DF93A4
:10028000EC0181E0888F9B8D8C8D981305C0E889E7
:10029000F989808185FD26C0F62E0B8D10E00F5F59
:1002A0001F4F0F731127E02E8C8DE8120CC00FB674
:1002B00007FCFACFE889F989808185FFF5CFCE0167
:1002C0000E941801F1CF8B8DFE01E80FF11DE35A5A
:1002D000FF4FF0829FB7F8940B8FEA89FB898081EA
:1002E00080620AC09FB7F894EE89FF896083E8892D
:1002F000F98980818370806480839FBF81E090E072
:10030000DF91CF911F910F91FF90EF900895CF93C0
:10031000DF93EC01888D8823C9F0EA89FB8980810D
:1003200085FD05C0A889B9898C9186FD0FC00FB6DF
:1003300007FCF5CF808185FFF2CFA889B9898C9120
:1003400085FFEDCFCE010E941801E7CFDF91CF915D
:10035000089580E090E0892B29F00E940E01811120
:100360000C94000008950E94CC1C0F931F93CF9310
:10037000DF93EC0188819981009729F02A813B81E4
:100380002617370788F48B016F5F7F4F0E94061C8A
:10039000009761F0998388831B830A832C813D81B8
:1003A000232B11F4FC01108281E001C080E0DF9179
:1003B000CF911F910F9108951F93CF93DF93EC017D
:1003C00080E2689FF0011124E353FD4F9385917102
:1003D00029F0842F827411F080E04FC0142F6A8BB3
:1003E0008091020190910301A0910401B091050157
:1003F0008E879F87A88BB98B4489558960E070E010
:10040000BA0155274427828D938DA0E0B0E0482B98
:10041000592B6A2B7B2B4F8B588F698F7A8F838553
:10042000887151F4848D958DA68DB78D8B8B9C8BA7
:10043000AD8BBE8B81E00CC0803171F69E012D5ECC
:100440003F4F8B8D9C8D0E94210F882329F284E0E1
:100450008D83812F8F708C831E821F821886198650
:100460001A861B861C861D8616FF06C0CE01DF91EC
:10047000CF911F910C94940E81E0DF91CF911F9149
:100480000895EF92FF920F931F93CF93DF9361151F
:10049000710511F480E01CC041155105C1F07B01CC
:1004A000EC018C819D818A01080F191FB801CE01D2
:1004B0000E94B501882371F3288139818C819D8147
:1004C000B701820F931F0E94F21C1D830C8381E0F1
:1004D000DF91CF911F910F91FF90EF900895CF93EF
:1004E000DF9300D0CDB7DEB769831A8241E050E0D8
:1004F000BE016F5F7F4F0E9441020F900F90DF910E
:10050000CF910895CF93DF93EC0188819981009773
:1005100011F00E947D1B198218821D821C821B8291
:100520001A82DF91CF910895EF92FF920F931F935C
:10053000CF93DF93EC017B018A01BA010E94B501E0
:10054000811104C0CE010E94820207C01D830C836A
:10055000B701888199810E94F21CCE01DF91CF9171
:100560001F910F91FF90EF900895CF93DF93EC01CF
:100570006115710559F0FB0101900020E9F73197F1
:10058000AF01461B570B0E94940202C00E948202D8
:10059000CE01DF91CF910895DC01ED91FC910190A6
:1005A000F081E02D09941F920F920FB60F92112443
:1005B0002F933F934F935F936F937F938F939F936B
:1005C000AF93BF93EF93FF938DEC94E00E941801DB
:1005D000FF91EF91BF91AF919F918F917F916F911B
:1005E0005F914F913F912F910F900FBE0F901F90F1
:1005F00018951F920F920FB60F9211242F938F937D
:100600009F93EF93FF93E091DD04F091DE048081EE
:10061000E091E304F091E40482FD12C090818091A6
:10062000E6048F5F8F732091E704821751F0E09109
:10063000E604F0E0E353FB4F958F8093E60401C09E
:100640008081FF91EF919F918F912F910F900FBE1D
:100650000F901F9018958091C6028823A9F14091B0
:1006600002015091030160910401709105012DEC8C
:1006700032E08091BB059091BC050E94A50B8111D1
:1006800002C080E008954091C7025091C802609175
:10069000C9027091CA02411551056105710591F0B9
:1006A0002DEC32E08091BB059091BC050E94A50B1A
:1006B000882339F31092C7021092C8021092C9021F
:1006C0001092CA021092C60281E008958F929F9202
:1006D000AF92BF92EF92FF920F931F93CF934B0174
:1006E0005C01C42F8091020190910301A09104014B
:1006F000B091050188159905AA05BB0501F10E9475
:100700002B03811102C080E020C08DECE82E82E036
:10071000F82E00E012E020E030E0B501A401809165
:10072000BB059091BC050E94110B882361F3809258
:10073000020190920301A0920401B0920501809100
:10074000C602C82BC093C60281E0CF911F910F91C2
:10075000FF90EF90BF90AF909F908F9008954F9231
:100760005F926F927F928F929F92AF92BF92CF9241
:10077000DF92EF92FF920F931F93CF93DF93EC01E1
:10078000423051056105710510F480E078C089851B
:100790009A85AB85BC850196A11DB11D841795076F
:1007A000A607B70790F3CB88DC88ED88FE888F8991
:1007B000803129F4BB27A72F962F852F09C0DB0195
:1007C000CA01E7E0B695A79597958795EA95D1F781
:1007D000480159012A013B01C80ED91EEA1EFB1E21
:1007E0008091020190910301A0910401B091050153
:1007F000C816D906EA06FB0681F48F898031A9F470
:10080000B301A201552766277727440F551FFA0128
:10081000E353FD4F9182808219C040E0C701B601C9
:100820000E9466038111E9CFB0CFB301A2014F77D7
:10083000552766277727440F551F440F551FFA0188
:10084000E353FD4F80829182A282B3828091C602DF
:1008500081608093C6028A89823080F08D819E817A
:10086000AF81B885C80ED91EEA1EFB1EC092C70212
:10087000D092C802E092C902F092CA0281E0DF91F0
:10088000CF911F910F91FF90EF90DF90CF90BF908D
:10089000AF909F908F907F906F905F904F90089552
:1008A0008F929F92AF92BF92CF92DF92EF92FF9280
:1008B0000F931F93CF93DF93FC0181859285A385CE
:1008C000B4850196A11DB11D84179507A607B7072A
:1008D00010F480E05BC083889488A588B6888789F7
:1008E000803129F4BB27A72F962F852F09C0DB0164
:1008F000CA01C7E0B695A79597958795CA95D1F790
:10090000E9016A017B018F01BC01CD01680D791DF0
:100910008A1D9B1D8090020190900301A09004010C
:10092000B0900501681579058A059B0591F4F801D9
:1009300087898031A1F4DD24EE24FF24C601880FCD
:10094000991FFC01E353FD4F80819181A0E0B0E04D
:1009500018C040E00E9466038111E9CFBACFE89445
:10096000C7F8DD24EE24FF24C601880F991F880FE5
:10097000991FFC01E353FD4F80819181A281B381D6
:10098000BF7088839983AA83BB8381E0DF91CF9175
:100990001F910F91FF90EF90DF90CF90BF90AF909D
:1009A0009F908F9008952F923F924F925F926F92F7
:1009B0007F928F929F92AF92BF92CF92DF92EF92EF
:1009C000FF920F931F93CF93DF93CDB7DEB72B9793
:1009D0000FB6F894DEBF0FBECDBF7C01FE0131968D
:1009E000CE010C966F0130E231938E179F07E1F72D
:1009F000DA0130E087E09D91992331F19E3231F4A4
:100A00008A3009F45AC138E08AE0F5CFEBE8F0E02B
:100A10004491442321F031969413FACF4EC18317A9
:100A200008F44BC14FED490F4E3508F046C141E087
:100A3000430FF601E30FF11D3FE9390F3A3108F496
:100A400090529083342FD7CF8981803209F435C1F9
:100A5000322E8B01DB015B968D919C915C97F701A7
:100A6000948F838F16961D921D921D921C9219973A
:100A7000FB011286138614861586B12CF801828537
:100A80009385A485B58543895489658976898417BA
:100A90009507A607B70708F05BC025E0B695A795B0
:100AA000979587952A95D1F7F82FFF70AF2ED8012B
:100AB00015968C91823008F400C1C8010E94620C26
:100AC00097FDFBC0F80182859385A485B5854F9677
:100AD000A11DB11D82879387A487B587F0E2AF9EE1
:100AE000B001112463537D4F6115710509F4E5C010
:100AF000DB018C91882319F0853EC1F4E0C0B11070
:100B00000EC0F701A28A8091020190910301A09189
:100B10000401B091050186879787A08BB18BDB011B
:100B20008C91882399F0BB24B394A8CF4BE050E07C
:100B3000C6010E94D11C892B09F0A0CF832D8073A0
:100B4000803309F4BAC0432D6A2DB3C0BB24B394DB
:100B5000832D8271823109F0B0C0BB2039F0C7010A
:100B60000E947B0E009709F078C0A7C0F80185812C
:100B7000823009F4A2C0C8010E945609882309F4F2
:100B80009CC0D8015B96ED91FC915C9716968D9078
:100B90009D90AD90BC901997B2E08B1A9108A10876
:100BA000B108058404C0880C991CAA1CBB1C0A94BB
:100BB000D2F786859785A089B189880E991EAA1ECD
:100BC000BB1E2480E1E08E1A9108A108B108222002
:100BD00009F124013501420C511C611C711C0E9459
:100BE0002B03882309F469C0EDECF2E0119224E0B4
:100BF000ED3CF207D9F74092020150920301609256
:100C00000401709205018091C60281608093C60242
:100C10002A94DDCFD8015B96ED91FC915C9780E042
:100C200092E0A0E0B0E0058404C0880F991FAA1FDD
:100C3000BB1F0A94D2F7F8014389548965897689E4
:100C4000840F951FA61FB71F838B948BA58BB68B24
:100C5000D70152961C928DEC92E020E2FC01119299
:100C60002A95E9F72BE0F601DC0101900D922A9517
:100C7000E1F721E238E2DC0151963C932E93509744
:100C800040E058E01F965C934E931E9753963C931A
:100C90002E93529759963C932E93589757965C9360
:100CA0004E9356970E942B03882339F0432DF7016A
:100CB0006289C7010E94DC0105C080E003C0B11059
:100CC00032CF1FCF2B960FB6F894DEBF0FBECDBF2D
:100CD000DF91CF911F910F91FF90EF90DF90CF9018
:100CE000BF90AF909F908F907F906F905F904F904C
:100CF0003F902F900895CF93DF93EC018D8188234F
:100D000019F18C8187FF1CC0CE010E947B0EFC0173
:100D1000892BD1F08D81823040F48B899C89AD89FB
:100D2000BE89848F958FA68FB78F8F89988DA98D57
:100D3000BA8D938F828FB58BA48B8C818F778C83A8
:100D4000DF91CF910C942B0380E0DF91CF91089538
:100D50008F929F92AF92BF92CF92DF92EF92FF92CB
:100D60000F931F93CF93DF93EC018D81811102C00C
:100D700080E078C00B891C892D893E8904171507EE
:100D800026073707A8F36A017B01823029F4CA8657
:100D9000DB86EC86FD860DC0C114D104E104F104AC
:100DA00051F41E821F82188619861A861B861C869D
:100DB0001D8681E057C08A849B84AC84BD84EB8D02
:100DC000FC8D258530E0275F3F4FB501A4014150E0
:100DD000510961097109022E04C0769567955795EE
:100DE00047950A94D2F7D701C6010197A109B10925
:100DF00004C0B695A795979587952A95D2F784173D
:100E00009507A607B70720F089288A288B2871F450
:100E10004F89588D698D7A8D4E835F836887798776
:100E20004C015D018E010A5F1F4F16C0841B950B9C
:100E3000A60BB70BF5CF4E815F8168857985980148
:100E40008B8D9C8D0E94500491E0891A9108A10815
:100E5000B108882309F48CCF81149104A104B10452
:100E600051F795CFDF91CF911F910F91FF90EF90A8
:100E7000DF90CF90BF90AF909F908F9008952F926A
:100E80003F924F925F926F927F928F929F92AF921A
:100E9000BF92CF92DF92EF92FF920F931F93CF9367
:100EA000DF9300D000D0CDB7DEB78C015B011A0113
:100EB000DC0115968C9115978130C9F414968C91AC
:100EC00081FF15C082FF1DC0F801438954896589DF
:100ED000768982859385A485B58584179507A607AD
:100EE000B70779F0C8010E94A80681110AC081E005
:100EF00090E0D80113969C938E93129780E090E037
:100F000036C1610183C05B968D919C915C97FC0119
:100F100074802FEF270D2A013B0139E07694679406
:100F2000579447943A95D1F7722E74207A01F1E0E4
:100F3000FF22772009F476C080E092E08E199F09A5
:100F400046018C159D0508F44C01D8015B962D9146
:100F50003C915C9716968D919D910D90BC91A02D22
:100F60000297A109B109F901058404C0880F991FEE
:100F7000AA1FBB1F0A94D2F74685578560897189DD
:100F8000840F951FA61FB71F9C01AD01270D311DB2
:100F9000411D511D29013A01811432E0930609F0E7
:100FA00088C08091020190910301A0910401B09149
:100FB0000501481659066A067B0659F48FEF9FEF24
:100FC000DC018093020190930301A0930401B0938C
:100FD00005019501B301A2018091BB059091BC056B
:100FE0000E94A50B882309F482CF9EEFB91AC81876
:100FF000D908F80182859385A485B585880D991D4A
:10100000A11DB11D82879387A487B587D8011A9641
:101010004D915D916D917C911D97C114D10409F0A2
:1010200072CF87C0E114F10409F086CF16964D9176
:101030005D916D917C91199741155105610571057F
:1010400059F457968D919D910D90BC91A02D0097CC
:10105000A105B10541F521C09E012F5F3F4F0E94C0
:101060005004882309F44BCF89819A81AB81BC81DC
:10107000F801238D348DF9012789203129F048EFBB
:101080005FEF6FEF7FE004C048EF5FEF60E070E07C
:1010900084179507A607B70730F0C8010E945609C4
:1010A00081114ACF24CFF80186839783A087B18727
:1010B00043CFE114F10429F5D8011A964D915D91C1
:1010C0006D917C911D9753968D919D910D90BC9142
:1010D000A02D481759076A077B0798F00E942B0339
:1010E000882309F404CF40920201509203016092D8
:1010F0000401709205018091C60281608093C6024E
:1011000008C041E0C301B2010E946603882309F4CC
:10111000EECED501F701E353FD4F9F01280D391D98
:101120002E173F0719F08D918193FACFA80CB91CA7
:101130005ECFF80183899489A589B68984179507BC
:10114000A607B70738F4438B548B658B768B848165
:1011500080688483F801848183FD02C0C10107C0D7
:10116000C8010E947B06882309F4C1CEF7CF0F90F7
:101170000F900F900F90DF91CF911F910F91FF90E3
:10118000EF90DF90CF90BF90AF909F908F907F9027
:101190006F905F904F903F902F900895CF93DF9383
:1011A0001F92CDB7DEB7698341E050E0BE016F5FAB
:1011B0007F4F0E943F070F90DF91CF910895CF930B
:1011C000DF93EC010E947B06882311F01D8281E0F1
:1011D000DF91CF910895DC015996ED91FC915A97DA
:1011E0003097B9F083899489A589B689428553855A
:1011F00064857585841B950BA60BB70B811520E8BC
:101200009207A105B10538F08FEF9FE7A0E0B0E0AD
:10121000089580E090E00895CF93DF931F92CDB7BB
:10122000DEB76983DC01ED91FC910280F381E02D52
:1012300041E050E0BE016F5F7F4F09950F90DF9155
:10124000CF910895089580E090E00895442339F007
:101250000E94A61391E0811103C090E001C091E0CB
:10126000892F0895FC01818D928D009711F00C94C7
:101270007B060895CF93DF93EC01898D9A8D0097BB
:1012800039F481E090E09B838A8380E090E00BC09A
:10129000FC01138212820E943F07E98DFA8D2281A0
:1012A0003381232B71F7DF91CF9108953F924F92B5
:1012B0005F926F927F928F929F92AF92BF92CF92E6
:1012C000DF92EF92FF920F931F93CF93DF93CDB7EF
:1012D000DEB72C970FB6F894DEBF0FBECDBF5C0112
:1012E000DC015B968D909C905C971696CD90DD907E
:1012F000ED90FC901997C114D104E104F10439F088
:10130000BFEFCB1ADB0AEB0AFB0A312C07C0F40152
:10131000C080D180E280F38033243394F40181854E
:101320009285A385B4859C01AD012F5F3F4F4F4F40
:101330005F4F29873A874B875C87260137011D82DB
:101340001E821F821886F40181859285A385B4854B
:101350002D813E814F815885281739074A075B0741
:1013600008F063C089859A85AB85BC858C159D0581
:10137000AE05BF0550F482E0C82ED12CE12CF12C33
:1013800092E0492E512C612C712C9E012F5F3F4F12
:10139000B701A601C4010E945004882309F445C086
:1013A00089819A81AB81BC81892B8A2B8B2B41F05F
:1013B000260137019FEF491A590A690A790A05C0BF
:1013C000C414D504E604F70491F02D813E814F81C9
:1013D00058852F5F3F4F4F4F5F4F2D833E834F8385
:1013E00058873FEFC31AD30AE30AF30AACCF0FEFD3
:1013F0001FEF2FEF3FE0B301A201C4010E94AF0332
:10140000882399F0D50116964D915D916D917C914F
:101410001997411551056105710549F09301820144
:10142000C4010E94AF03811102C080E02AC0D5012F
:1014300016964D925D926D927C921997332051F0E1
:10144000D301C2010196A11DB11DF40180839183D6
:10145000A283B383F5018789908DA18DB28D892BED
:101460008A2B8B2B69F4D50157964D925D926D9224
:101470007C925A9714968C911497806814968C934A
:1014800081E02C960FB6F894DEBF0FBECDBFDF9182
:10149000CF911F910F91FF90EF90DF90CF90BF9071
:1014A000AF909F908F907F906F905F904F903F9004
:1014B00008958FB7F8948091CC028FBF089561E0B2
:1014C000FC0184810E9406148091CB02811110924C
:1014D000CB0208958EBD00000DB407FEFDCF8EB582
:1014E00008958FEF0C946A0A0F931F93CF93DF93A5
:1014F000EB010E9496148B010E94710A8F3F49F004
:101500000E949614601B710B6C177D07A8F380E096
:1015100001C081E0DF91CF911F910F910895CF938A
:10152000DF93EC018E81882389F08F8198859C015F
:101530002F5F3F4F38872F838230924018F40E94EC
:10154000710AF3CFCE010E945F0A1E82DF91CF9114
:1015500008958CBD9DBD0895CF93DF93EC018091DC
:10156000CB02811109C081E08093CB0280916A0592
:1015700090916B050E94A90A60E08C81DF91CF9168
:101580000C9406148F929F92AF92BF92FF920F938A
:101590001F93CF93DF93EC01F62E49015A010E946D
:1015A0008F0ACE010E94AC0A6CE271E0CE010E946B
:1015B000740A8F2D80640E946A0A08E110E0D50148
:1015C000C401002E04C0B695A795979587950A94F7
:1015D000D2F70E946A0A08501109083F8FEF1807D6
:1015E00071F7FF2029F088E0F81204C087E803C0F3
:1015F00085E901C08FEF0E946A0A10E00E94710A1B
:101600008A8787FF04C01F3F11F01F5FF7CFDF916C
:10161000CF911F910F91FF90BF90AF909F908F90AF
:101620000895AF92BF92CF92DF92EF92FF920F9305
:101630001F93CF93DF93EC016901C801820F931FC1
:101640008130924008F070C08E81882371F08881CB
:101650009981AA81BB8184179507A607B70729F44A
:101660008F819885C816D906B0F5488359836A8357
:101670007B838B85833039F089E0440F551F661FCB
:10168000771F8A95D1F79A01AB0161E1CE010E94E3
:10169000C20A882319F083E08D8346C00E94961405
:1016A0005B010E94710A8A878F3F49F40E94961459
:1016B0006A197B096D327140A0F38FE003C08E3F41
:1016C00031F08DE08D83CE010E945F0A2DC0188617
:1016D0001F8281E08E838F8198858C159D0540F453
:1016E0000E94710A8F819885019698878F83F3CF26
:1016F0006701E00EF11EEC14FD0431F00E94710A46
:10170000F60181936F01F7CF8F819885080F191F1C
:1017100018870F838985882319F00115124048F036
:10172000CE010E948F0A05C0CE010E945F0A80E0B0
:1017300001C081E0DF91CF911F910F91FF90EF9059
:10174000DF90CF90BF90AF900895EF92FF920F93EC
:101750001F93CF93DF93EC0179014115510561058A
:10176000710511F482E13CC08B85833039F089E04A
:10177000440F551F661F771F8A95D1F79A01AB0159
:1017800068E1CE010E94C20A882311F084E028C0DB
:101790008EEF0E946A0A87018EEFF81AF801819194
:1017A0008F010E946A0AE016F106C1F78FEF0E94CE
:1017B0006A0A8FEF0E946A0A0E94710A8A878F71F3
:1017C000853031F081E18D83CE010E945F0A09C02E
:1017D00068E572E0CE010E94740A811107C085E1BC
:1017E0008D83CE010E945F0A80E014C020E030E0CB
:1017F000A9016DE0CE010E94C20A811109C00E94B8
:10180000710A811105C0CE010E945F0A81E002C009
:1018100084E1E6CFDF91CF911F910F91FF90EF9080
:101820000895FC01DB0112968D919C91139793838F
:10183000828384E391E09183808314968C91149742
:10184000848315968C911597858316964D915D919D
:101850006D917C91199746835783608771871A969B
:101860004D915D916D917C911D974287538764875F
:1018700075871E964D915D916D917C91519746872C
:101880005787608B718B52968C915297828B5396AF
:101890004D915D916D917C915697438B548B658BE7
:1018A000768B57964D915D916D917C915A97478BB0
:1018B000508F618F728F5B968D919C915C97948F06
:1018C000838F08954F925F926F927F92AF92BF92F3
:1018D000CF92DF92EF92FF920F931F93CF93DF93FC
:1018E0001F92CDB7DEB7FC012581222309F4C1C0C8
:1018F000848180FFBEC083899489A589B68942848A
:1019000053846484758484159505A605B70509F488
:10191000B0C06F015201F1E0BF22D6015B968D91FC
:101920009C915C97B301A20139E076956795579534
:1019300047953A95D1F7223071F4FC01828D938D51
:10194000A48DB58D8A019B01080F191F2A1F3B1F0B
:10195000C901B8014AC0DC0114961C91115014232E
:10196000A114B104F9F411111DC0452846284728D7
:1019700051F4F6018789908DA18DB28D868397836E
:10198000A087B1870FC0D60116964D915D916D91DC
:101990007C91199796012A5F3F4F0E94500488233B
:1019A00009F467C0F601238D348D86819781A08567
:1019B000B1850297A109B109AC01BD01F901058406
:1019C00004C0440F551F661F771F0A94D2F78685FF
:1019D0009785A089B189840F951FA61FB71FBC01E9
:1019E000CD01610F711D811D911DD60114962C91A1
:1019F00026FF0DC040900201509003016090040149
:101A000070900501461657066806790699F440E07D
:101A10000E946603882369F1F501E353FD4FDE015F
:101A200011969F012F5F3F4F2E173F0799F081912D
:101A30008D93FACFFE0131967F0101E010E0950110
:101A4000AB01BC018091BB059091BC050E94110BBC
:101A5000882379F0F60182859385A485B585019662
:101A6000A11DB11D82879387A487B587898190E0E6
:101A700002C08FEF9FEF0F90DF91CF911F910F91D9
:101A8000FF90EF90DF90CF90BF90AF907F906F90DE
:101A90005F904F900895FC01818D928D009711F019
:101AA0000C94620C8FEF9FEF08950F931F93CF93C9
:101AB000DF93FC01818D928D0097B9F0EF010E94B8
:101AC000620C8C010F3F8FEF180791F0898D9A8D72
:101AD000FC01428553856485758541505109610932
:101AE00071090E94A806C80105C080E090E002C00C
:101AF0008FEF9FEFDF91CF911F910F910895CF92BC
:101B0000DF92EF92FF920F931F93CF93DF93CDB7A6
:101B1000DEB76E970FB6F894DEBF0FBECDBF7C0167
:101B200041E06EE871E0CE0101960E94931000E062
:101B300010E0670181E0C81AD108CE0101960E9429
:101B4000EB08892B01F1CE0101960E944B0D8A30E2
:101B500031F40F5F1F4FE016F10679F714C00C1532
:101B60001D0559F7833249F3282F082E000C330B3B
:101B7000205331092A30310500F3682F8DEC94E0B1
:101B80000E94CC02DACFEA8DFB8D309729F0428596
:101B900053856485758503C04FEF5FEFBA014550EB
:101BA000510961097109CE0101960E94321000E0CD
:101BB00010E0CE0101960E94EB08892BE9F0CE01DE
:101BC00001960E944B0D282F082E000C330B20533A
:101BD00031092A30310550F4ECE1F0E0EC0FFD1F43
:101BE000E00FF11F80830F5F1F4FE3CF8A3009F7AB
:101BF000FE01E00FF11F148ECE014C960E94111AC7
:101C0000182FCE0101960E94B511812F6E960FB646
:101C1000F894DEBF0FBECDBFDF91CF911F910F9122
:101C2000FF90EF90DF90CF900895EF92FF920F9387
:101C30001F93CF93DF93EC017B018A011B821A82F1
:101C400088EE93E0A0E0B0E08C839D83AE83BF83F9
:101C500080E191E0998388838DE190E00E94E51A0C
:101C60009A8F898F009779F02DE1F701DC010190BF
:101C70000D922A95E1F74CE050E0B801CE010C96A8
:101C80000E94F91C188EDF91CF911F910F91FF9048
:101C9000EF900895CF93DF93FB0122813381DC0124
:101CA00013963C932E9312974481558166817781D8
:101CB00014964D935D936D937C9317974085518552
:101CC0006285738518964D935D936D937C931B97F6
:101CD0001C96EF012C969C01275E3F4F49914D9336
:101CE000A217B307D9F7218D328DFC01328F218FD6
:101CF000DF91CF910895CF93DF93EC016E857F85BF
:101D00008889998941E00E946603882341F08A8985
:101D100020E2829FC001112483539D4F02C080E0C6
:101D200090E0DF91CF9108958F929F92AF92BF92F2
:101D3000CF92DF92EF92FF920F931F93CF93DF9397
:101D400000D000D0CDB7DEB7FC018581813079F5B8
:101D5000948191FF2CC04389548965897689452BEC
:101D6000462B472B09F45CC07F0140E050E0BA01EC
:101D7000CF010E94A8068823D1F0F7018788908CB4
:101D8000A18CB28CC38CD48C82E090E0A0E0B0E057
:101D9000F60180839183A283B3839E012F5F3F4F1F
:101DA000B501A401C6010E945004811102C080E067
:101DB00037C000E010E09801B501A401C6010E94FF
:101DC000AF038823A1F389809A80AB80BC80F601A1
:101DD0008789803129F088EF9FEFAFEFBFE004C023
:101DE00088EF9FEFA0E0B0E088169906AA06BB0630
:101DF000A0F2F701178A108E118E128E138A148AA0
:101E0000158A168A848180688483C7010E947B06B4
:101E1000882369F240E050E0BA01C7010E94A80699
:101E20000F900F900F900F90DF91CF911F910F9116
:101E3000FF90EF90DF90CF90BF90AF909F908F90EA
:101E400008954F925F926F927F92AF92BF92CF921E
:101E5000DF92EF92FF920F931F93CF93DF9300D007
:101E600000D0CDB7DEB78C0149835A836B837C8366
:101E70005901C12CD12C7601412C82E0582E612CC5
:101E8000712C49815A816B817C819E012F5F3F4F6C
:101E9000C8010E945004882351F1D301C201F80106
:101EA000058404C0880F991FAA1FBB1F0A94D2F78C
:101EB000C80ED91EEA1EFB1E49815A816B817C81A6
:101EC0008789803129F088EF9FEFAFEFBFE004C032
:101ED00088EF9FEFA0E0B0E0481759076A077B073B
:101EE00080F2F501C082D182E282F38281E00F901C
:101EF0000F900F900F90DF91CF911F910F91FF9056
:101F0000EF90DF90CF90BF90AF907F906F905F90F9
:101F10004F9008959F92AF92BF92CF92DF92EF922F
:101F2000FF920F931F93CF93DF93CDB7DEB7C754C4
:101F3000D1090FB6F894DEBF0FBECDBF6C0119A258
:101F400018A284E391E09F8F8E8F1BA21C821B82BC
:101F50009A8389831E82A12C912C7E018EE1E80E4A
:101F6000F11C06E915E08A2D992DF601E80FF91FFD
:101F700020812F3209F40196D601A80FB91FFE0166
:101F8000FB9620E030E0AF016D916F3249F066239F
:101F900039F02F5F3F4F019661932C303105A1F747
:101FA000FA01E20FF31F1082F601E80FF91F2081FA
:101FB0002F3209F40196A82E992EF601E80FF91F89
:101FC000808181110BC0BA01C8010E94A613811142
:101FD00012C0E5E006391E0749F40BC0F701858100
:101FE000882391F0F5E006391F0719F0C8010E9417
:101FF000DF0880E024C085E00639180719F0C80121
:102000000E94DF0881E01BC021E0B801C7010E94E7
:10201000D304B82EF5E006391F0759F0C8010E9415
:10202000DF08BB2031F3902F812F8701E92EF82E96
:102030009ACF8823F1F28E010F5F1F4FF4CFC95B57
:10204000DF4F0FB6F894DEBF0FBECDBFDF91CF914B
:102050001F910F91FF90EF90DF90CF90BF90AF90C6
:102060009F900895FC01818D928D009729F00E9428
:10207000A80691E0811101C090E0892F0895CF93C7
:10208000DF93FC012581222311F080E049C0EC019F
:1020900080918F058031C1F482E08583178A108E8C
:1020A000118E128E8091900590919105A0E0B0E084
:1020B00025E0880F991FAA1FBB1F2A95D1F7838B94
:1020C000948BA58BB68B19C08032F9F683E085839B
:1020D00040919205509193056091940570919505FA
:1020E000478B508F618F728F9F012D5E3F4F88E726
:1020F00095E00E94210F882341F288E795E09C8FAC
:102100008B8F81E08C831E821F82188619861A8627
:102110001B861C861D861E861F86188A198A1A8AA7
:10212000DF91CF9108952F923F924F925F926F92DD
:102130007F928F929F92AF92BF92CF92DF92EF9257
:10214000FF920F931F93CF93DF93CDB7DEB7C756A0
:10215000D1090FB6F894DEBF0FBECDBF6C015B0195
:10216000A6964FAFA69719A218A284E391E09F8F7D
:102170008E8F1BA21C821B829A8389831E824E0132
:102180008EE1880E911CC4010E943F1075018E01E2
:102190000F5F1F4F240118016FE270E0C7010E941A
:1021A000E71C009709F442C0F70120812F3221F487
:1021B000FFEFEF1AFF0AF0CF8E198D3008F08CE098
:1021C000682E712CA301B701CE01885A9F4F0E943F
:1021D000F91CE8E5F0E0EC0FFD1FE60DF71D10829D
:1021E000C8010E94DF08F8018581882351F01EAEE6
:1021F0001DAE84E391E09CAF8BAF21961FAE21977B
:1022000021C021E0AE01485A5F4FB201C8010E94CF
:10221000D304882361F3E60CF71CC2010E94DF0897
:10222000942D852D2801092F182FB6CFC7018A19A3
:102230009B09A8969FAF8EAFA897B201CE01CB960F
:102240000E94110CA896EEADFFADA897AE0EBF1E72
:10225000F5018081811109C0BE01655C7F4FC1011C
:102260000E94110C40EC52E041C019A218A284E374
:1022700091E09F8F8E8F1BA221968FAD21978111A8
:1022800013C0F6011382128288EE93E0A0E0B0E062
:1022900084839583A683B78380E191E091838083D3
:1022A000128E118E148626C0A6962FADA697A50174
:1022B000BE01655C7F4FC4010E94D304882309F3EB
:1022C000CE01CB960E94DF08A6968FADA6978670AA
:1022D000863039F449A95AA96BA97CA9C4010E9486
:1022E000A806B401C1010E94110CA501B101C601EB
:1022F0000E94150EC601C959DF4F0FB6F894DEBF14
:102300000FBECDBFDF91CF911F910F91FF90EF9046
:10231000DF90CF90BF90AF909F908F907F906F9005
:102320005F904F903F902F900895009769F0FC01C7
:1023300001900020E9F73197AF01481B590BBC0110
:102340008DEC94E00C94A70080E090E00895CF938A
:10235000DF930E949511EC018BEA91E00E949511A8
:102360008C0F9D1FDF91CF910895CF93DF93EC01E8
:10237000898D9A8D009741F00E94DF08898D9A8D92
:102380000E947D1B1A8E198EDF91CF910895E5EB87
:10239000F5E044815581608171810C943A09DC013A
:1023A0005996ED91FC915A97309721F081E09581F3
:1023B000911101C080E00895833081F028F48130CC
:1023C00099F08230A1F008958730A9F08830B9F0F3
:1023D0008430D1F4809180008F7D03C08091800093
:1023E0008F7780938000089584B58F7702C084B57D
:1023F0008F7D84BD08958091B0008F7703C0809158
:10240000B0008F7D8093B00008958F929F92AF921D
:10241000BF920F931F93CF93DF93CDB7DEB7A197F2
:102420000FB6F894DEBF0FBECDBF19A2423008F43C
:102430004AE08E010F5D1F4F842E912CA12CB12CF0
:10244000A50194010E94BD1AE62FB901CA010150ED
:102450001109EA3014F4E05D01C0E95CD801EC93A5
:10246000232B242B252B61F7C8010E949511A196DF
:102470000FB6F894DEBF0FBECDBFDF91CF911F9195
:102480000F91BF90AF909F908F900895CF92DF9261
:10249000EF92FF92CF93DF936C01990FEE08FF0844
:1024A000F7FE13C06DE28DEC94E00E94CC02EC01CB
:1024B00066277727CB016C197D098E099F094AE0B1
:1024C0000E940512C80FD91F06C04AE0C701B60115
:1024D0000E940512EC018BEA91E00E9495118C0F8D
:1024E0009D1FDF91CF91FF90EF90DF90CF900895E7
:1024F0008F929F92AF92BF92CF92DF92EF92FF9214
:10250000CF93DF93C82F8CE695E09093BC05809322
:10251000BB05CC2369F1C53010F080E00CC140E070
:1025200060E070E0CB010E9466038823B1F320E1F4
:10253000C29FC001112483549D4FFC01E254FE4F01
:1025400020812F7751F73C964081518162817381C0
:10255000443651056105710500F33497C080D18080
:10256000E280F380C114D104E104F10421F4D5CF59
:10257000C12CD12C760140E0C701B6010E94660350
:10258000882359F28091D8029091D9028115924006
:1025900021F6A091DD02AA2309F4BFCF6091DB02EE
:1025A0007091DC026115710509F4B7CF2091DA0250
:1025B000222309F4B2CFA0938A0520937C0580E002
:1025C00030E041E050E0C82FFA01082E02C0EE0FC3
:1025D000FF1F0A94E2F72E173F0739F08F5FC830CC
:1025E00091F789E08093850598CF809385052091A8
:1025F000E3023091E4022115310519F040E050E08A
:1026000008C02091F1023091F2024091F302509102
:10261000F40220937D0530937E0540937F0550930F
:10262000800546015701860E971EA11CB11C8092A1
:102630008B0590928C05A0928D05B0928E05E0914D
:10264000DE02F091DF02F0939105E0939005B0E097
:102650000E946C1A860E971EA81EB91E80929205C3
:1026600090929305A0929405B092950585E0EE0FA7
:10267000FF1F8A95E1F7E150FE4FEF2FFF27E69508
:102680008E0E9F1EA11CB11C80928605909287051C
:10269000A0928805B09289052091E0023091E10274
:1026A0002115310521F0A90160E070E008C04091DA
:1026B000ED025091EE026091EF027091F002D701AD
:1026C000C60188199909AA09BB09840F951FA61F7D
:1026D000B71F04C0B695A79597958795CA95D2F769
:1026E0008093810590938205A0938305B093840520
:1026F000853F2FE09207A105B10510F48CE018C0CA
:10270000853F9F4FA105B10510F480E111C0809174
:10271000F9029091FA02A091FB02B091FC02809321
:10272000920590939305A0939405B093950580E24C
:1027300080938F0581E0DF91CF91FF90EF90DF9044
:10274000CF90BF90AF909F908F900895CF93DF93DD
:10275000CDB7DEB76D970FB6F894DEBF0FBECDBF15
:10276000AB011C821B8224E331E03A8329831E8261
:1027700022E0BC01CE0101960E94D304811102C067
:1027800080E012C0CE0101960E94940E8823C1F30E
:10279000CE0101960E947B0E009791F325EEFC017D
:1027A00020831E820E942B036D960FB6F894DEBF25
:1027B0000FBECDBFDF91CF910895CF93DF93282F28
:1027C00030E0F901EF51FF4F8491F901E353FF4FDE
:1027D000D491F901E754FF4FC491CC2391F08111BA
:1027E0000E94DC11EC2FF0E0EE0FFF1FE155FF4FD0
:1027F000A591B491EC91ED2381E090E021F480E08B
:1028000002C080E090E0DF91CF9108951F93CF93B5
:10281000DF93282F30E0F901EF51FF4F8491F90148
:10282000E353FF4FD491F901E754FF4FC491CC23F8
:10283000C1F0162F81110E94DC11EC2FF0E0EE0F99
:10284000FF1FEB55FF4FA591B4919FB7F89411115D
:1028500004C08C91D095D82302C0EC91DE2BDC9380
:102860009FBFDF91CF911F910895CF93DF9390E0A9
:10287000FC01E353FF4F2491FC01E754FF4F849187
:10288000882361F190E0880F991FFC01E556FF4F06
:10289000C591D491FC01EB55FF4FA591B491611105
:1028A00009C09FB7F8948881209582238883EC9192
:1028B0002E230BC0623061F49FB7F8948881322FC9
:1028C000309583238883EC912E2B2C939FBF06C0D9
:1028D0008FB7F894E8812E2B28838FBFDF91CF919B
:1028E00008953FB7F8948091C2059091C305A091D7
:1028F000C405B091C50526B5A89B05C02F3F19F0AA
:102900000196A11DB11D3FBFBA2FA92F982F88276F
:10291000820F911DA11DB11DBC01CD0142E0660FCA
:10292000771F881F991F4A95D1F708952FB7F894FC
:102930006091BE057091BF058091C0059091C10561
:102940002FBF08951F920F920FB60F9211242F934D
:102950003F938F939F93AF93BF938091BE059091C8
:10296000BF05A091C005B091C1053091BD0523E020
:10297000230F2D3720F40196A11DB11D05C026E8B7
:10298000230F0296A11DB11D2093BD058093BE05A6
:102990009093BF05A093C005B093C1058091C20577
:1029A0009091C305A091C405B091C5050196A11DE4
:1029B000B11D8093C2059093C305A093C405B09345
:1029C000C505BF91AF919F918F913F912F910F902E
:1029D0000FBE0F901F901895CF93DF93CDB7DEB742
:1029E000C254D1090FB6F894DEBF0FBECDBF7894A4
:1029F00084B5826084BD84B5816084BD85B5826004
:102A000085BD85B5816085BD80916E0081608093B4
:102A10006E0010928100809181008260809381001D
:102A2000809181008160809381008091800081602D
:102A3000809380008091B10084608093B100809188
:102A4000B00081608093B00080917A0084608093B0
:102A50007A0080917A00826080937A0080917A0077
:102A6000816080937A0080917A00806880937A00F8
:102A70001092C100E091DD04F091DE0482E08083D9
:102A8000E091D904F091DA041082E091DB04F09136
:102A9000DC048FEC80831092E504E091E104F09176
:102AA000E20486E08083E091DF04F091E00480811D
:102AB00080618083E091DF04F091E0048081886090
:102AC0008083E091DF04F091E0048081806880835E
:102AD000E091DF04F091E00480818F7D808388E4C1
:102AE00091E00E94951180919B05882321F086E951
:102AF00095E00E94DF0810927705109275051092FC
:102B00007205109271058AE0809370050E949614F8
:102B10008B0161E0809170050E94351461E0809125
:102B200070050E940614FFB6F8948091C2028111CC
:102B300027C0E3ECF0E08491E7EDF0E09491E82F1A
:102B4000F0E0EE0FFF1FE556FF4FA591B491EC9119
:102B5000E92321F461E08AE00E94061461E08AE042
:102B60000E9435148CB580618CBD8CB580648CBDA1
:102B700061E08DE00E94351461E08BE00E94351425
:102B80008091C2028F5F8093C202FFBE82E5809374
:102B90006A0510926B0580916A0590916B050E9401
:102BA000A90A7AE0F72E8FEF0E946A0AFA94F110D0
:102BB000FACF8CE695E00E94AC0A20E030E0A90153
:102BC00060E08CE695E00E94C20AF82E80937605BC
:102BD00021E0821749F00E949614601B710B613D41
:102BE000774058F381E056C02AEA31E040E050E0F7
:102BF00068E08CE695E00E94C20A82FF03C0F09272
:102C0000770510C064E0F62E0E94710A8093760565
:102C1000FA94F110F9CF8A3A11F082E03BC082E0D9
:102C20008093770580917705823021F0C12CD12CDB
:102C3000760105C0C12CD12CE12C50E4F52E20E00A
:102C400030E0A90167E38CE695E00E94C20AA70183
:102C5000960169E28CE695E00E94C20A80937605AF
:102C6000882349F00E949614601B710B613D7740E8
:102C700030F388E00FC080917705823001F520E0C5
:102C800030E0A9016AE38CE695E00E94C20A88233D
:102C900041F086E0809371058CE695E00E945F0A22
:102CA00028C00E94710A807C803C19F483E08093E4
:102CB00077050E94710A0E94710A0E94710A8CE6CF
:102CC00095E00E945F0A80E580936A0510926B058B
:102CD00081E00E947812882339F086E995E00E940D
:102CE0003F10882331F00AC080E00E9478128111E1
:102CF000F4CF80E691E00E94A711FFCF8CE791E02E
:102D00000E94A71141E06EE871E0CE0101960E9499
:102D10009310CE0101960E94CF1100E010E08823AD
:102D200079F0CE0101960E94EB08892B49F0CE0183
:102D300001960E944B0D8A30A1F70F5F1F4FF1CF14
:102D4000CE0101960E94B5111093C5020093C402F2
:102D500060E085E00E94351460E086E00E94351452
:102D600060E084E00E94351488E991E00E949511AA
:102D70008091C4029091C5020E9446128091000188
:102D8000909101010E947F0D182F89EA91E00E9425
:102D90009511612F70E080E090E04AE00E940512FA
:102DA0008BEA91E00E94951185E00E94DD1381304D
:102DB000910591F420910001309101014091C402EC
:102DC0005091C50224173507B9F02F5F3F4F30935C
:102DD0000101209300011FC086E00E94DD130197CE
:102DE00091F480910001909101018130910549F4A5
:102DF0008091C4029091C5029093010180930001DB
:102E00000AC00197F9CF84E00E94DD13019761F6B3
:102E100081E08093C3028091C302882309F470C2C9
:102E20008EEA91E00E94951180910001909101013C
:102E30000E947F0D85EB91E00E94A7118091000117
:102E4000909101010E947F0D882329F086EC91E08A
:102E50000E94A71153C282EE91E00E94951100E0FA
:102E600010E0CC24C394D12C41E06EE871E0CE0197
:102E700001960E949310E12CF12CCE0101960E9444
:102E8000EB08892B49F4EA8DFB8D309791F0428550
:102E900053856485758510C0CE0101960E944B0D47
:102EA0008A3059F7FFEFEF1AFF0ACE14DF0429F733
:102EB000EACF4FEF5FEFBA0145505109610971093F
:102EC000CE0101960E943210E12CF12CCE01019628
:102ED0000E94EB08892B09F1CE0101960E944B0D4F
:102EE000282F082E000C330B205331092A303105CE
:102EF00058F4ECE1F0E0EC0FFD1FEE0DFF1D8083B8
:102F00002FEFE21AF20AE2CF8A3001F7ECE1F0E0AB
:102F1000EC0FFD1FEE0DFF1D1082CE014C960E949E
:102F2000111AF82ECE0101960E94B511FF2011F062
:102F30000F5F1F4F8091C4029091C502C816D90639
:102F4000E1F468018FEFC81AD80AC6010E94461240
:102F5000A0900001B090010141E06EE871E0CE0167
:102F60004C960E949310CE014C960E94CF1188235C
:102F700009F441C1E12CF12CD3C0EFEFCE1ADE0AE7
:102F80006EE28DEC94E00E94CC026ECFCE014C96A6
:102F90000E944B0D8A3009F0DCC1FFEFEF1AFF0AE7
:102FA000EDA9FEA9AE14BF0409F0D3C0309709F40F
:102FB000BFC04284538464847584CE014C960E94C1
:102FC000B51147E169EF71E0CE0101960E949310BF
:102FD000BE016F5F7F4FCE014C960E944A0E18AE25
:102FE0001FAA1AAE19AE1CAE1BAE4AE0BE016F5F3F
:102FF0007F4FC6010E942F1ABE016F5F7F4FCE0127
:10300000C7960E94B5021A8219821C821B821E82F8
:103010001D8241E050E064E072E0CE0101960E9422
:1030200094024BAD5CAD6FA978ADCE0101960E94C4
:103030004102811104C0CE0101960E9482026AE021
:10304000CE0101960E946F02811104C0CE0101964B
:103050000E9482021EAE1DAE21961FAE1EAE2197AB
:1030600023961FAE1EAE239769817A816115710583
:1030700031F04D815E81CE01CD960E94940289810E
:103080009A810E947D1B8FA998AD0E947D1B23967B
:103090004EAD5FAD23976DAD7EAD85EB95E00E94A3
:1030A000410286E092E00E94A711CE014C960E9458
:1030B000CF11882309F441C0CE014C960E94C7115C
:1030C00083E192E00E94A711CE014C960E94B511B7
:1030D00041E06EE871E0CE0101960E949310BE01BE
:1030E0006F5F7F4FCE014C960E944A0EB301A20142
:1030F000CE014C960E94321008E610E0F80164916F
:1031000061111EC08BEA91E00E9495116DEA71E099
:1031100085EB95E00E94B5028DAD9EAD0E947D1BB2
:10312000CE014C960E94EB08892B09F02FCF63C08B
:1031300044244A94542C320140CF80E292E0C2CF22
:103140008DEC94E00E943A010F5F1F4F892BB1F67E
:10315000D9CF309729F0428453846484758404C0A5
:1031600044244A94542C3201CE014C960E94B5114D
:1031700047E169EF71E0CE0101960E949310BE0114
:103180006F5F7F4FCE014C960E944A0ECE014C9647
:103190000E94CF11882381F0CE014C960E94C71166
:1031A0006AE0CE014C960E94CC02CE014C960E9461
:1031B000B51183E592E002C08DE692E00E94A7116E
:1031C00041E06EE871E0CE0101960E949310BE01CD
:1031D0006F5F7F4FCE014C960E944A0EB301A20151
:1031E000CE014C960E9432106DEA71E085EB95E0BD
:1031F0000E94B50295CFCE014C960E94B5118EE883
:1032000091E00E948A0F41E069EF71E0CE010196E2
:103210000E949310BE016F5F7F4FCE014C960E94BB
:103220004A0ECE014C960E94CF11882309F462C049
:10323000CE014C960E94EB08892B09F45BC0CE01AD
:103240004C960E944B0D8A3009F089C0EDA9FEA969
:10325000309729F0C284D384E484F58404C0CC245C
:10326000CA94DC2C7601CE014C960E94B51147E140
:103270006EE871E0CE0101960E949310BE016F5F6F
:103280007F4FCE014C960E944A0ECE014C960E9472
:10329000CF11882381F0CE014C960E94C7116AE0BD
:1032A000CE014C960E94CC02CE014C960E94B511E4
:1032B00086E892E002C081EA92E00E94A71141E014
:1032C00069EF71E0CE0101960E949310BE016F5F1D
:1032D0007F4FCE014C960E944A0EB701A601CE0147
:1032E0004C960E9432106DEA71E085EB95E00E94E9
:1032F000B5029ECF89EF91E00E948A0F1092C3021F
:103300000E9471144B015C0184EBC82ED12CE12C7E
:10331000F12C0E947114DC01CB0188199909AA09CA
:10332000BB09883E9340A105B10598F3F1E0CF1A9F
:10333000D108E108F10828EE820E23E0921EA11CBC
:10334000B11CC114D104E104F10419F70E94A901D0
:1033500015CD682F85EB95E00E946F02E1CE682FB6
:1033600085EB95E00E946F0263CF8091B505909147
:10337000B6050C947D1BEDECF4E01382128288EE0E
:1033800093E0A0E0B0E084839583A683B78382E2D4
:1033900091E09183808385EC90E09587848784EC2D
:1033A00090E09787868780EC90E0918B808B81EC12
:1033B00090E0938B828B82EC90E0958B848B86ECF3
:1033C00090E0978B868B118E128E138E148EEAE608
:1033D000F5E080E580831182ECE6F5E01582168247
:1033E0001186138682E090E0A0E0B0E084879587A4
:1033F000A687B78713A215A614A684E391E093A726
:1034000082A717A6E5EBF5E01182108213821282E3
:103410001582148240E050E06DEA71E0CF010C9417
:103420009402FC0188279927E89421912032E9F33E
:10343000293010F02E30C8F32B3241F02D3239F400
:10344000689404C00E943A1A820F911D2191205362
:103450002A30C0F31EF4909581959F4F0895BB27A5
:103460004A3031F4992322F4BDE2909581959F4F23
:103470000C94431A7AE0979F902D879F802D910D91
:1034800011240895BB27FB015527AA27880F991FF0
:10349000AA1FA41710F0A41B83955051B9F7A05D83
:1034A000AA3308F0A95DA193009779F7B111B19300
:1034B0001192CB010C945C1ADC01FC01672F719115
:1034C0007723E1F7329704C07C916D93708362910A
:1034D000AE17BF07C8F308950E94AE1AA59F900DBE
:1034E000B49F900DA49F800D911D112408952F92DB
:1034F0003F924F925F926F927F928F929F92AF9284
:10350000BF92CF92DF92EF92FF920F931F93CF93D0
:10351000DF93CDB7DEB7CA1BDB0B0FB6F894DEBF67
:103520000FBECDBF09942A88398848885F846E848D
:103530007D848C849B84AA84B984C884DF80EE80D7
:10354000FD800C811B81AA81B981CE0FD11D0FB6E0
:10355000F894DEBF0FBECDBFED010895A29FB0016C
:10356000B39FC001A39F700D811D1124911DB29FB7
:10357000700D811D1124911D0895A1E21A2EAA1B20
:10358000BB1BFD010DC0AA1FBB1FEE1FFF1FA21713
:10359000B307E407F50720F0A21BB30BE40BF50B10
:1035A000661F771F881F991F1A9469F76095709599
:1035B000809590959B01AC01BD01CF010895EE0F60
:1035C000FF1F0590F491E02D09940F931F93CF9363
:1035D000DF938230910510F482E090E0E091C8051D
:1035E000F091C90520E030E0A0E0B0E0309719F19B
:1035F000408151810281138148175907C8F084170F
:10360000950769F4109731F012960C931297139660
:103610001C9327C00093C8051093C90522C021152B
:10362000310519F04217530718F49A01BD01EF0153
:10363000DF01F801DBCF21153105F9F0281B390B2B
:103640002430310580F48A819B816115710521F058
:10365000FB019383828304C09093C9058093C805BE
:10366000FE01329644C0FE01E20FF31F8193919355
:1036700022503109398328833AC02091C605309100
:10368000C705232B41F420910801309109013093A3
:10369000C7052093C6052091060130910701211529
:1036A000310541F42DB73EB740910A0150910B010D
:1036B000241B350BE091C605F091C705E217F3070F
:1036C000A0F42E1B3F0B2817390778F0AC014E5F92
:1036D0005F4F2417350748F04E0F5F1F5093C70503
:1036E0004093C6058193919302C0E0E0F0E0CF01E2
:1036F000DF91CF911F910F910895CF93DF930097A2
:1037000009F481C0FC01329713821282A091C8058E
:10371000B091C905109781F420813181820F931FE8
:103720002091C6053091C7052817390751F5F09348
:10373000C705E093C60567C0ED0120E030E0CE1775
:10374000DF0740F44A815B819E0141155105F1F08C
:10375000EA01F5CFD383C28340815181840F951F45
:10376000C817D90759F488819981840F951F02964B
:10377000918380838A819B81938382832115310584
:1037800029F4F093C905E093C8053DC0E901FB8326
:10379000EA8349915991C40FD51FEC17FD0761F4D5
:1037A00080819181840F951F0296E9019983888316
:1037B000828193819B838A83E0E0F0E012968D9171
:1037C0009C911397009719F0FD01DC01F7CF8D91C3
:1037D0009C9111979D012E5F3F4F820F931F209167
:1037E000C6053091C7052817390769F4309729F4C1
:1037F0001092C9051092C80502C013821282B093BC
:10380000C705A093C605DF91CF910895A0E0B0E071
:10381000ECE0FCE10C947B1AEC01009721F4CB0165
:103820000E94E51AB4C0FC01E60FF71F9C0122506C
:103830003109E217F30708F4A8C0D9010D911C91D2
:10384000119706171707B0F00530110508F49BC053
:10385000C80104978617970708F495C0025011090C
:10386000061B170B019311936D937C93CF010E945C
:103870007D1B89C05B01A01AB10A4C01800E911E0C
:10388000A091C805B091C905612C712CE12CF12CD7
:10389000109709F446C08D919C911197A815B90510
:1038A000B1F56C0142E0C40ED11CCA14DB0478F1FE
:1038B0004C018A189B08640142E0C40ED11C129688
:1038C000BC9012971396AC91B5E0CB16D10440F0A2
:1038D000B282A38391828082D9016D937C9309C0C7
:1038E0000E5F1F4F800F911FF90191838083EB2D95
:1038F000FA2FE114F10431F0D7011396FC93EE9303
:10390000129741C0F093C905E093C8053CC0681602
:10391000790608F43C017D0112960D90BC91A02D12
:10392000B7CF8091C6059091C70588169906E1F436
:1039300066167706C8F480910601909107010097FA
:1039400041F48DB79EB740910A0150910B01841B41
:10395000950BE817F907C8F4F093C705E093C6057F
:10396000F901718360830FC0CB010E94E51A7C01CD
:10397000009759F0A801BE010E94DE1CCE010E94F2
:103980007D1BC70104C0CE0102C080E090E0CDB72E
:10399000DEB7EEE00C94971A81E090E0F8940C9476
:1039A000081DFB01DC0104C08D910190801921F4F8
:1039B00041505040C8F7881B990B0895FB01DC016A
:1039C00002C001900D9241505040D8F70895FC017B
:1039D0008191861721F08823D9F799270895319787
:1039E000CF010895FB01DC0101900D920020E1F769
:1039F0000895FB01DC014150504048F001900D92C8
:103A00000020C9F701C01D9241505040E0F70895D1
:103A100010E0CCE7D0E004C0FE010E94DF1A21963E
:0A3A2000CD37D107C9F7F894FFCFA6
:103A2A000100FFFFFFFF0000CA0580000000000040
:103A3A000C093A0923093209EB084B0D550D000010
:103A4A0000003A01A700D10087010201E000F4005A
:103A5A0000000000CE08A700230922090000000088
:103A6A00B301A70023092209496E697469616C6967
:103A7A007A696E6720534420636172642E2E2E0089
:103A8A0043617264206661696C65642C206F7220E0
:103A9A006E6F742070726573656E74006361726410
:103AAA0020696E697469616C697A65642E006C6953
:103ABA007374612E747874002D2D2D2D2D3E3E3E8B
:103ACA00204445425547203A2020000D0A00616CE7
:103ADA00756E6F200020666F692073656C65636977
:103AEA006F6E61646F00616C756E6F206A6120741D
:103AFA00656D20756D612069642070617261207343
:103B0A0069005365726120636164617374726164F0
:103B1A006F206E6F20494420006C69737461322EE5
:103B2A007478740023006573746F75206171756908
:103B3A002031006573746F752061717569203200D8
:103B4A006E616F20636F6E73656775697520616258
:103B5A00726972206F206172717569766F2064656F
:103B6A0020746578746F206C69737461322E74786E
:103B7A007420005052494E5441444F204E4F204128
:103B8A0052515549564F204E4F564F2E006572726C
:103B9A006F72206F70656E696E67204C495354418D
:103BAA00322E747874005052494E5441444F204E7C
:103BBA004F204152515549564F2066696E616C2E0D
:103BCA00006572726F20616F2074656E7461722075
:103BDA006162726972204C495354412E74787400A0
:023BEA002F00AA
:00000001FF
